:0A0000000C94DC000C9400000C943A
:10000A0000000C9400000C9400000C9400000C9466
:10001A0000000C9400000C9400000C9400000C9456
:10002A0000000C9400000C9400000C9400000C9446
:10003A0000000C9400000C9400000C9400000C9436
:10004A0000000C9400000C9400001027E8036400E0
:10005A000A000100001000011000010001005365B0
:10006A006E686120496E636F7272657461005365D0
:10007A006E686120436F7272657461004C696761D2
:10008A006E646F2E2E2E0053697374656D61204164
:10009A00726D61646F0041726D616E646F205369A5
:1000AA007374656D610053697374656D612044658D
:1000BA007361726D61646F00416C657274613A209C
:1000CA00496E74727573616F0053656E68613A2088
:1000DA005F205F205F205F00416C657274613A2087
:1000EA0050726573656E636100416C657274613A42
:1000FA002046756D61C3A7610053757065726171A1
:10010A00756563696D656E746F004572726F206EF6
:10011A006F2053697374656D610045737461646F10
:10012A0020446573636F6E68656369646F00323279
:10013A00333480C0010002006600100060016800CC
:10014A000E00700178000B007E0186000F00890105
:10015A00910010009801A0000400A8018D0012006F
:10016A00AC01B0001100BE01C2000F00CF01D300E4
:10017A001100DE01E2000F00EF01D3001000FE01C2
:10018A00F3000F000E02D30011001D0203010F003D
:10019A002E02D30010003D02140114004D02240166
:1001AA00040062023801020069023C010000F8946E
:1001BA00EE27ECBBF1E0FBBFEBBFE5BF8DE0A2E0B1
:1001CA00BB27ED938A95E9F780E094E0A0E6ED93EA
:1001DA000197E9F7EEE3F1E085919591009761F0D7
:1001EA00A591B59105901590BF01F00105900D926A
:1001FA000197E1F7FB01F0CFEFE5EDBFE4E0EEBFD9
:10020A00C0E6D1E00C9409013AD0E4B3E07EE4BB45
:10021A00E5B3EF61E5BB35D010E0E3B3EF71EF3141
:10022A0061F1A4E1B0E08AD1989904C0A5E031D087
:10023A009FD01BC0999902C012E317C09A9902C0B5
:10024A0013E313C09B9902C014E30FC09C990DC01D
:10025A00AFD00E2FA8EEB3E071D1023011F4A5E0B1
:10026A0003C0013011F4A3E014D0103011F0A12F13
:10027A0088D0E3B3EF71EF31E1F7CDCFFFCF11D0E3
:10028A00089520FE05C0A091610229D0E89420F8C3
:10029A0008951A931A2F10936102689420F80C9407
:1002AA007C02D29AA0E1FAD0DB9AE0E0EA93A0E0DD
:1002BA00BBD008951ED123D1A02FCED0A4EFB1E098
:1002CA003DD1E12F1CD1AAE2C7D0B8C01ED1A0E609
:1002DA00B1E003C0B7D0A0E7B1E0D1D008951A9336
:1002EA001A2FB0D0E12FE03019F4AEE7B1E03EC0EA
:1002FA00E13019F4A9E8B1E039C0E23039F4A8E9EB
:10030A00B1E0BDD002D1A8EAB1E030C0E33019F4BF
:10031A00ACEAB1E02BC0E43039F4AEEBB1E0AFD0D7
:10032A00F4D0AFECB1E022C0E53039F4AEEDB1E083
:10033A00A6D0EBD0AFEEB1E019C0E63039F4AEEF9B
:10034A00B1E09DD0E2D0AEE0B2E010C0E73039F4BF
:10035A00ADE1B2E094D0D9D0AEE2B2E007C0E83065
:10036A0019F4ADE3B2E002C0ADE4B2E088D0BFC098
:10037A00E0E0E0936602E0936702E1E0E09368025E
:10038A0008951A931A2FE0916602F0E0EE59FD4F94
:10039A00A0811A1719F0E1E0E0936702E091660282
:1003AA00EF5FE09366021A93A091660283DF9FC013
:1003BA00E0916802E03021F0A0916602A43010F4C6
:1003CA00E0E00895E0916702E03021F07FDFD0DFBE
:1003DA00E2E008957FDFE0E0E0936802E0936602DE
:1003EA00E1E008951A931A2FEBB3EF70AE2FE12FC5
:1003FA00E07FEA2BEBBB89E18A95F1F7DA9A89E18A
:10040A008A95F1F7DA9889E18A95F1F770C0AA938B
:10041A00A881E8DFE881E295E883A881E3DF86EF37
:10042A008A95F1F72196089564D0F0E0E759FD4FD7
:10043A00E081E00FAE2FEBDF502E412E19810881AB
:10044A0023960895A2E065D0ACE0E1DFA1E061D097
:10045A00E0E04E2E5E2E08951A931A2F1A3011F0EC
:10046A00571438F0E0E0EA934394A42DDDDF1A3004
:10047A00F1F15394D89AA12FCADFD89838C054D032
:10048A009D01D9012F5F3F4FEC911E2FE03019F0EB
:10049A00A12FE2DFF6CF4DD0249608951A931A2F92
:1004AA00EAB3E06FEABBD29AD09AD19ADA98D8988E
:1004BA00D998712EE12FE058E0936B02E12FE054B6
:1004CA00E0936C02A4E1B0E039D027D026D025D041
:1004DA00A0E288DF81E791E00197F1F7A8E297DFD0
:1004EA00A4E095DFA5E893DFA6E091DFABDF1991E1
:1004FA0008951A930A931A2F0A81E12F0895E15059
:10050A00EE0FE95FEA93A1E08FCFE0E0EA93A1E082
:10051A008BCF7DDFA3E0B0E011C0A0E363DF81E70A
:10052A0091E00197F1F708953A932A931A930A935F
:10053A0008953B812A81198108810895109639F01E
:10054A00A89586E69EE00197F1F71197C9F70895F5
:00000001FF
