:0A0000000C94F7000C9400000C941F
:10000A0000000C9400000C9400000C9400000C9466
:10001A0000000C9400000C9400000C941F020C9435
:10002A0000000C9400000C9400000C9400000C9446
:10003A0000000C9400000C9400000C9400000C9436
:10004A0000000C9400000C9400003134373C323527
:10005A003830333639231027E80364000A000100D8
:10006A000010000110000100010053656E68612054
:10007A00496E636F72726574610053656E686120C0
:10008A00436F7272657461004C6967616E646F2EAA
:10009A002E2E0053697374656D612041726D61641F
:1000AA006F0041726D616E646F2053697374656D80
:1000BA00610053697374656D612044657361726D83
:1000CA0061646F00416C657274613A20496E7472A2
:1000DA007573616F0053656E68613A205F205F2017
:1000EA005F205F00416C657274613A2050726573DB
:1000FA00656E636100416C657274613A2046756D84
:10010A0061C3A76100537570657261717565636932
:10011A006D656E746F004572726F206E6F20536941
:10012A007374656D610045737461646F204465730F
:10013A00636F6E68656369646F00323233340A0034
:10014A0040006B65793D2575206865783D25582006
:10015A00696E6465783D25750D0A000080C001004E
:10016A00020072001000600174000E007001840029
:10017A000B007E0192000F0089019D00100098017A
:10018A00AC000400A80199001200AC01BC001100E7
:10019A00BE01CE000F00CF01DF001100DE01EE002C
:1001AA000F00EF01DF001000FE01FF000F000E023A
:1001BA00DF0011001D020F010F002E02DF001000E8
:1001CA003D02200114004D02300104006202440184
:1001DA0001006C02480101006E024A01020073022A
:1001EA0066010000F894EE27ECBBF1E0FBBFEBBF21
:1001FA00E5BF8DE0A2E0BB27ED938A95E9F780E0A1
:10020A0094E0A0E6ED930197E9F7E8E6F1E085913D
:10021A009591009761F0A591B59105901590BF0150
:10022A00F00105900D920197E1F7FB01F0CFEFE5A0
:10023A00EDBFE4E0EEBFC0E6D1E00C94240111D09A
:10024A00E0E0EBB9E8E0EAB9E6E8E0BDE0E0E0BD0D
:10025A00EFE2E9B90AD0B09902C0A5E013D0FACF0B
:10026A00FFCF28D04FD17894089520FE05C0A091E1
:10027A0061023FD0E89420F821FE03C0A0916102F8
:10028A0063D108951A931A2F10936102689420F883
:10029A00133041F0143031F0153021F0163011F0DE
:1002AA00173021F4689421F86ED002C0E89421F83E
:1002BA000C946103D29AA0E1D6D1DB9AE0E0EA93EA
:1002CA00A0E097D1089577D37CD3A02FAAD1A4EF29
:1002DA00B1E0FCD3E12F75D3AAE2A3D10C940803B1
:1002EA0076D3A0E6B1E003C092D1A0E7B1E0ACD1E9
:1002FA0008951A931A2F8BD1E12FE03019F4AEE743
:10030A00B1E03EC0E13019F4A9E8B1E039C0E23009
:10031A0039F4A8E9B1E098D15AD3A8EAB1E030C0DB
:10032A00E33019F4ACEAB1E02BC0E43039F4AEEBB7
:10033A00B1E08AD14CD3AFECB1E022C0E53039F458
:10034A00AEEDB1E081D143D3AFEEB1E019C0E630F2
:10035A0039F4AEEFB1E078D13AD3AEE0B2E010C0F2
:10036A00E73039F4ADE1B2E06FD131D3AEE2B2E0B9
:10037A0007C0E83019F4ADE3B2E002C0ADE4B2E080
:10038A0063D10C94610327D3E0936B0208951A9307
:10039A001A2FA0916602A43010F00C946103E09128
:1003AA006602F0E0E959FD4F1083E0916602EF5FC3
:1003BA00E09366021A93A091660285DF0C946103AA
:1003CA00A0916602A13060F0E0916602E150E093EC
:1003DA006602EE0FE95FEA93A1E00BD1AFE521D106
:1003EA0008951A93E0916B02E03021F0A091660221
:1003FA00A43018F4E0E00C94610310E0143098F48F
:10040A00E12FF0E0E959FD4FA081E12FF0E0EE592C
:10041A00FD4FE081EA1729F063DFB5DFE2E00C94D3
:10042A0061031F5FEBCF60DFE0E0E0936B02D3D2A2
:10043A000C946103AA93BA93EA93FA93EFB7EA93F7
:10044A00EDE8E2BFCDD230D3D0D2E3B3E095EF707E
:10045A00D1D2F0E0EA2BFB2BC8D2E0916E02E695EE
:10046A00E0936E02A0916E02A830A9F5E0E4E09351
:10047A006E02B6D23097D9F0E0916D02E03011F0F9
:10048A00E15022C0A0916C02A150A0936C02A93045
:10049A0031F4A6D2E0937102F093720217C0E09190
:1004AA007102F0917202A6D2EA17FB0721F0EAE084
:1004BA00E0936C0209C0E0916C02E03039F440909C
:1004CA006F0250907002E4E1E0936D02E0E0E09385
:1004DA006F02E0937002E0916E02E095E5BBE9914C
:1004EA00EFBFF991E991B991A99118951A930A93D5
:1004FA00F2018F01309711F044245524F801099133
:10050A0019910895E4B3E067E4BBE5B3EF67E5BB8F
:10051A00E3B7E460E3BFE2B7ED68E2BFE9B7E160E1
:10052A00E9BF0895A0D29D0110E01C3060F4E12FCC
:10053A00A1E0B0E0A8D2E223F323309711F0E12F33
:10054A008FC01F5FF2CF8CC08CD24A2FCFDF8F01B2
:10055A00309759F1D801E6DF3E2FECE4F1E0FA9347
:10056A00EA934DD24CD2D801DDDFFF2766277727E1
:10057A00A8D28CE0E0D12E9647D224912C3311F4E4
:10058A001FDF13C0233271F42CDF5E2FA8EEB3E015
:10059A009DD2523011F4A42F03C0513011F4A3E0BC
:1005AA0071DE03C031D2A491F2DE62D2269608959A
:1005BA001A931A2FEBB3EF70AE2FE12FE07FEA2BDD
:1005CA00EBBB89E18A95F1F7DA9A89E18A95F1F725
:1005DA00DA9889E18A95F1F76FC0AA93A881E8DFD2
:1005EA00E881E295E883A881E3DF86EF8A95F1F74F
:1005FA006AC0E1D1F0E0ED58FD4FE081E00FAE2F87
:10060A00ECDF702E612E1981088123960895A2E0ED
:10061A0000D2ACE0E2DFA1E0FCD1E0E06E2E7E2E5B
:10062A0008951A931A2F1A3011F0791438F0E0E06D
:10063A00EA936394A62DDDDF1A30F1F17394D89A08
:10064A00A12FCBDFD89838C00ED29D01D9012F5FD8
:10065A003F4FEC911E2FE03019F0A12FE2DFF6CFC9
:10066A0009D2249608951A931A2FEAB3E06FEABBC7
:10067A00D29AD09AD19ADA98D898D998912EE12F0D
:10068A00E058E0937502E12FE054E0937602A4E18A
:10069A00B0E01CD2C2D1C1D1C0D1A0E289DF81E7CA
:1006AA0091E00197F1F7A8E298DFA4E096DFA5E8C8
:1006BA0094DFA6E092DFABDF19910895AA935D9BC0
:1006CA00FECFE881ECB921960895CDD18D013C8108
:1006DA00A32FF4DFD801ED91FD913196FE93EE93AD
:1006EA00C9D125960895BA93AA932697BAD110E04C
:1006FA00AC85BD85E0E0F0E0ED93FC93EA89FB89E7
:10070A003196EA8BFB8B3197E4912E2FE03009F476
:10071A000BC1E12FE03031F4253211F411E001C0B0
:10072A0083D101C1E130A1F4253211F47DD1FAC09F
:10073A0012E040E000E02D3211F401E0F4C02B3267
:10074A0011F44BE2F0C0203211F440E2ECC002C0D6
:10075A00E23039F450E013E0203311F40068E3C0CA
:10076A0003C0E33009F0DFC0203310F02A3308F069
:10077A0007C0AAE05A9F502DE22FE0535E0FD3C064
:10078A00E22FE33639F457D1E889F989A481AA938B
:10079A0058D1C8C0E33729F44ED159D1F3D01E2F0E
:1007AA0007C0E03749F447D152D1F8D01E2F08606C
:1007BA0002600F7730E03AC0E43611F0E93611F4FE
:1007CA00046002C0E53731F4E0E6F0E0EE83FF832F
:1007DA0015E00CC0E83511F4086003C0E83709F0E9
:1007EA00A1C0EAE6F0E0EE83FF8314E002FF15C041
:1007FA0022D1A889B9891496ED91FD91EA87FB87E0
:10080A00AB85AA2322F43BD1EA87FB874DE240302D
:10081A0011F01F5F01C00B7F09C00DD1A889B989EA
:10082A001496ED91FC911197EA87FB8700FD10C0A1
:10083A00151770F407FF08C002FF04C00B7F242FAE
:10084A00115001C020E301C020E2EED05150F0CF98
:10085A00312F01FF16C0303099F003FF06C0EE8138
:10086A00FF812591EE83FF8305C0AE81BF812D9163
:10087A00AE83BF83D9D0503009F051503150EBCFFD
:10088A0048C020E3EE81FF8118D1E887F987EE811D
:10089A00FF813296EE83FF83E885F985AA85BB85B9
:1008AA00AE17BF0750F02F5FA885B985EA85FB858B
:1008BA00EA1BFB0BEA87FB87EFCF2A3328F003FFFB
:1008CA0002C0295F01C0295D04FD19C0213320F44B
:1008DA00A885B985119709F409C0531710F000FFCC
:1008EA0001C011C020E207FF0AC020E3006102FF35
:1008FA0006C00B7F4A93A5D0503009F0515094D0CE
:10090A00503009F051503150A885B985129708F036
:10091A00B8CF00FF07C0503029F05150E0E2EA9307
:10092A0090D0F9CF10E0EACEAC85BD85ED91FD916E
:10093A009FD064960895FF92F82E26971A930A93E9
:10094A00DE0114960024AF0DB01D8D01E0E0EC83AA
:10095A00ED83EE83EF83DE0118960024AF0DB01D00
:10096A00ED91FD91FA93EA931A930A93EAE6F3E07A
:10097A00FA93EA93DE011896B6DE19810881289661
:10098A00FF900895BA93AA93A991B991EE27FF27E8
:10099A006D91662311F03196FBCF0895BA93AA930D
:1009AA00AA27BB27E991F9910590002011F0119629
:1009BA00FBCFFD0108951A930A931A2F0A81E12F9A
:1009CA000895E150EE0FE95FEA93A1E012CEE0E06C
:1009DA00EA93A1E00ECEE0E0E0936602E1E008953A
:1009EA00E0916F02F09170020895E0936F02F09324
:1009FA0070020895A0916F02B09170020895F801F3
:100A0A00662777275ED00895E32FF0E0EC5AFF4F70
:100A1A000895E3DDA3E0B0E059C0A0E3C9DD81E7B2
:100A2A0091E00197F1F708952A93AD85BE85EF8588
:100A3A00F88909950895E889F9893497E88BF98B3B
:100A4A000895AD85BE85EF85F88909950895A88929
:100A5A00B9891496ED91FD91EE83FF83AE81BF8132
:100A6A0008955A934A933A932A931A930A930895A4
:100A7A005D814C813B812A81198108810895F19514
:100A8A00E195F0400895EE230E2EE8E01E2EFD01BA
:100A9A0051F0011420F0FE2FE0E0011821F0EE0FD2
:100AAA00FF1F0A94E1F70895EE0FFF1FEE0FFF1FD5
:100ABA00EE0FFF1FEE0FFF1F08950590F491E02D32
:100ACA0008957A936A93FA93EA930895109639F0FF
:100ADA00A89586E69EE00197F1F71197C9F7089560
:00000001FF
