:080000000C94EF000C940000C9
:100008000C9400000C9400000C9400000C94000068
:100018000C9416020C9400000C9400000C944B02F3
:100028000C9400000C9400000C9400000C94000048
:100038000C9400000C9400000C9400000C94000038
:100048000C9400000C9400000C9400003134373CF0
:1000580032353830333639231027E80364000A0074
:1000680001000010000110000100050053656E68D2
:100078006120496E636F72726574610053656E68C2
:100088006120436F7272657461004C6967616E64C8
:100098006F2E2E2E0053697374656D612041726D49
:1000A80061646F0041726D616E646F20536973748F
:1000B800656D610053697374656D61204465736192
:1000C800726D61646F00416C657274613A20496EAB
:1000D80074727573616F0053656E68613A205F20B2
:1000E8005F205F205F00416C657274613A20507236
:1000F8006573656E636100416C657274613A204690
:10010800756D6163610053757065726171756563C2
:10011800696D656E746F004572726F206E6F205343
:10012800697374656D610045737461646F2044651B
:1001380073636F6E68656369646F000032323334CD
:100148000A0040008A02260280C0010002007200F4
:100158001000600174000E00700184000B007E0125
:1001680092000F0089019D0010009801AC00040066
:10017800A80199001200AC01BC001100BE01CE001C
:100188000F00CF01DF001100DE01EE000F00EF01CC
:10019800DF000F00FE01FF000F000D02DF0011005D
:1001A8001C020E010F002D02DF0010003C021F018F
:1001B80014004C022F0104006102440101006C028A
:1001C800480101006E024A01040075024C01020058
:1001D800790250010000F894EE27ECBBF1E0FBBF78
:1001E800EBBFE5BF8DE0A2E0BB27ED938A95E9F769
:1001F80080E094E0A0E6ED930197E9F7E2E5F1E00D
:1002080085919591009761F0A591B591059015900C
:10021800BF01F00105900D920197E1F7FB01F0CFC6
:10022800EFE5EDBFE4E0EEBFC0E6D1E00C941C01C1
:100238000BD010D0B09902C0A5E01CD0B19902C073
:10024800A6E018D0F6CFFFCF2DD089D1F7D0D1D1E5
:100258007894089520FE05C0A091600242D0E894E9
:1002680020F821FE03C0A09160029DD1A0916002F8
:100278003CD208951A931A2F10936002689420F8BC
:10028800133041F0143031F0153021F0163011F0F0
:10029800173021F4689421F86ED002C0E89421F850
:1002A8000C940F04D29AA0E18DD2DB9AE0E0EA9395
:1002B800A0E04ED20895B1D2B6D2A02F61D2A4EF59
:1002C800B1E06CD3E12FAFD2AAE25AD20C94B603B4
:1002D800B0D2A0E6B1E003C049D2A0E7B1E063D252
:1002E80008951A931A2F42D2E12FE03019F4AEE79D
:1002F800B1E03EC0E13019F4A9E8B1E039C0E2301C
:1003080039F4A8E9B1E04FD294D2A8EAB1E030C0FC
:10031800E33019F4ACEAB1E02BC0E43039F4AEEBC9
:10032800B1E041D286D2AFECB1E022C0E53039F479
:10033800AEEDB1E038D27DD2AFEEB1E019C0E63013
:1003480039F4AEEFB1E02FD274D2ADE0B2E010C014
:10035800E73039F4ACE1B2E026D26BD2ADE2B2E0DC
:1003680007C0E83019F4ACE3B2E002C0ACE4B2E094
:100378001AD20C940F0461D2E0936A0208951A937A
:100388001A2FA0916502A43010F00C940F04E0918C
:100398006502F0E0EA59FD4F1083E0916502EF5FD6
:1003A800E09365021A93A091650285DF0C940F040F
:1003B800A0916502A13060F0E0916502E150E09300
:1003C8006502EE0FE95FEA93A1E0C2D1AFE5D8D1AB
:1003D80008951A93E0916A02E03021F0A091650235
:1003E800A43018F4E0E00C940F0410E0143098F4F2
:1003F800E12FF0E0EA59FD4FA081E12FF0E0EF593D
:10040800FD4FE081EA1729F063DFB5DFE2E00C94E5
:100418000F041F5FEBCF60DFE0E0E0936A020DD2CC
:100428000C940F04EA93FA93E0E0F0E0FDBDECBD14
:10043800E1E0E0936B02F991E9911895E5E0EEBDF2
:10044800E9B7E061E9BFE0E0F0E0FBBDEABD08958F
:100458001A930A938D01F80166277727A0E4B8E379
:1004680080E090E057D2DF01CB01E8EEF3E060E0F6
:1004780070E070D23197FBBDEABD6EC0E0916B02AF
:1004880008951A931A2F10936B020C940F04AA93D1
:10049800BA93EA93FA93EFB7EA93EDE8E2BFD2D1C1
:1004A80030D2D5D1E3B3E095EF70D6D1F0E0EA2BA6
:1004B800FB2BCDD1E0916E02E695E0936E02A09100
:1004C8006E02A830A9F5E0E4E0936E02BBD1309744
:1004D800D9F0E0916D02E03011F0E15022C0A09116
:1004E8006C02A150A0936C02A93031F4ABD1E09317
:1004F8007102F093720217C0E0917102F0917202DA
:10050800ABD1EA17FB0721F0EAE0E0936C0209C0DF
:10051800E0916C02E03039F440906F025090700224
:10052800E4E1E0936D02E0E0E0936F02E093700293
:10053800E0916E02E095E5BBE991EFBFF991E99191
:10054800B991A99118951A930A93F2018F013097DE
:1005580011F044245524F801099119910895E4B340
:10056800E067E4BBE5B3EF67E5BBE3B7E460E3BF8F
:10057800E2B7ED68E2BFE9B7E160E9BF0895A4D149
:100588009D0110E01C3068F4E12FA1E0B0E0A8D193
:10059800E223F323309719F0E12F0C94E3031F5F54
:1005A800F1CF0C94E3038ED14A2FCDDF8F01309722
:1005B800E9F0D801E4DF3E2F54D124912C3311F413
:1005C800F7DE14C0233279F404DF5E2FA8EEB3E01F
:1005D800E5D1523011F4A42F03C0513011F4A3E037
:1005E80049DE78D003C03DD1A491C9DE72D12696E8
:1005F8000895ECE1E5BDE0E8E1BB089565D19D0112
:10060800022E032A11F48F98DAC08F9AF90166270F
:100618007727A0E8B0E080E090E07CD1A0E0B0E0EF
:1006280081EE90E097D1E1501E2F13BDC8C01ED1B6
:10063800E1F0A0E026DF22FE0AC01ED13A9621D1C1
:10064800A837E5E0BE0710F0E89422F809C014D1F5
:100658003A9717D1A935E2E0BE0710F4689422F85A
:10066800A0917302B0917402C9DF0895FFD051F1CF
:10067800A0E007DF23FC12C00DD13196FE93EE9364
:1006880009D1EE3EA2E0FA0740F0689423F8EAE8C0
:10069800F2E0E0937502F093760211C0FBD0319737
:1006A800FE93EE93F7D0E33CA1E0FA0740F4E89418
:1006B80023F8E7E7F2E0A6E2B2E0A083B183EAD04C
:1006C800DF019CDF0895A0E0B0E098DFA0E0B0E093
:1006D800BFDE0895CBD029F0A0E0D3DEA0EDB7E0CF
:1006E80002C0A0E0B0E08ADF08951A931A2FE12F24
:1006F800E53011F0E43011F49ADF07C0E73011F06B
:10070800E63011F4B3DF01C0DEDF85C01A931A2F7B
:10071800EBB3EF70AE2FE12FE07FEA2BEBBB89E163
:100728008A95F1F7DA9A89E18A95F1F7DA9889E1F9
:100738008A95F1F770C0AA93A881E8DFE881E2956D
:10074800E883A881E3DF86EF8A95F1F7219608957B
:1007580064D0F0E0E758FD4FE081E00FAE2FEBDF0B
:10076800702E612E1981088123960895A2E09FD0EA
:10077800ACE0E1DFA1E09BD0E0E06E2E7E2E089594
:100788001A931A2F1A3011F0791438F0E0E0EA932E
:100798006394A62DDDDF1A30F1F17394D89AA12F56
:1007A800CADFD89838C090D09D01D9012F5F3F4F3C
:1007B800EC911E2FE03019F0A12FE2DFF6CF8BD09D
:1007C800249608951A931A2FEAB3E06FEABBD29AD7
:1007D800D09AD19ADA98D898D998912EE12FE058E2
:1007E800E0937B02E12FE054E0937C02A4E1B0E0C7
:1007F800D5D061D060D05FD0A0E288DF81E791E0FA
:100808000197F1F7A8E297DFA4E095DFA5E893DF69
:10081800A6E091DFABDF199108951A930A931A2F76
:100828000A81E12F0895E150EE0FE95FEA93A1E014
:100838008FCFE0E0EA93A1E08BCFE0E0E0936502A0
:10084800E1E00895E0916F02F09170020895E0935D
:100858006F02F09370020895A0916F02B091700238
:100868000895E32FF0E0EC5AFF4F0895A4E1B0E0BB
:10087800EFDD04DEE0300895E0917302F091740238
:100888000895E0937302F0937402A0917302B091FB
:1008980074020895E0E023FCE1E0A5E7B2E0F0E0AF
:1008A800EE0FFF1FAE0FBF1FED91FD91089543DFBF
:1008B800A3E0B0E073C0A0E329DF81E791E00197EE
:1008C800F1F708955A934A933A932A931A930A93FD
:1008D80008955D814C813B812A81198108810895A1
:1008E800EE230E2EE8E01E2EFD0151F0011420F03B
:1008F800FE2FE0E0011821F0EE0FFF1F0A94E1F748
:100908000895EE0FFF1FEE0FFF1FEE0FFF1FEE0FF4
:10091800FF1F08957A9F702D6B9F700DF89F700DC3
:10092800E99F700D6A9F602D710DFB9F600D711D11
:10093800E89F600D711D8827FA9FF02D610D781FC3
:10094800EB9FF00D611D781FEA9FE02DF10D681FE8
:10095800781F08953F934F935F9300241124A001BB
:1009680030E2AA0FBB1F881F991F001C111C441FCF
:10097800551F0E1A1F0A460B570B28F40E0E1F1E82
:10098800461F571F01C0A1603A9559F7FD01BC01E8
:10099800D001CA015F914F913F910895109639F0A7
:1009A800A89586E69EE00197F1F71197C9F7089593
:00000001FF
