:060000000C94DC000C94DE
:1000060000000C9400000C9400000C9400000C946A
:1000160000000C9467010C9400000C9400000C94F2
:1000260000000C9400000C9400000C9400000C944A
:1000360000000C9400000C9400000C9400000C943A
:1000460000000C9400000C9400000C940000102793
:10005600E80364000A00010000100001100001001E
:10006600010053656E686120496E636F7272657434
:10007600610053656E686120436F7272657461003A
:100086004C6967616E646F2E2E2E0053697374651A
:100096006D612041726D61646F0041726D616E64C5
:1000A6006F2053697374656D610053697374656D70
:1000B600612044657361726D61646F00416C6572A5
:1000C60074613A20496E74727573616F0053656E80
:1000D60068613A205F205F205F205F00416C657297
:1000E60074613A2050726573656E636100416C6598
:1000F6007274613A2046756D61C3A76100537570CD
:1001060065726171756563696D656E746F004572C0
:10011600726F206E6F2053697374656D610045734D
:100126007461646F20446573636F6E6865636964A8
:100136006F003232333480C00100020066001000C6
:10014600600168000E00700178000B007E018600D9
:100156000F008901910010009801A0000400A80179
:100166008D001200AC01B0001100BE01C2000F00EC
:10017600CF01D3001100DE01E2000F00EF01D30032
:100186001000FE01F3000F000E02D30011001D0245
:1001960003010F002E02D30010003D0214011400CB
:1001A6004D02240104006202380102006A023C0189
:1001B6000000F894EE27ECBBF1E0FBBFEBBFE5BF18
:1001C6008DE0A2E0BB27ED938A95E9F780E094E005
:1001D600A0E6ED930197E9F7EEE3F1E085919591BD
:1001E600009761F0A591B59105901590BF01F001BA
:1001F60005900D920197E1F7FB01F0CFEFE5EDBF1A
:10020600E4E0EEBFC0E6D1E00C94090103D006D0CD
:10021600FECFFFCF0BD064D07894089520FE05C0A2
:10022600A09161020CD0E89420F80895D29AA0E13A
:10023600C0D0DB9AE0E0EA93A0E07DD008951A935F
:100246001A2F8BD0E12FE03019F4AEE7B1E039C0B8
:10025600E13019F4A9E8B1E034C0E23031F4A8E99C
:10026600B1E0D2D0A8EAB1E02CC0E33019F4ACEA90
:10027600B1E027C0E43031F4AEEBB1E0C5D0AFEC6D
:10028600B1E01FC0E53031F4AEEDB1E0BDD0AFEE68
:10029600B1E017C0E63031F4AEEFB1E0B5D0AEE074
:1002A600B2E00FC0E73031F4ADE1B2E0ADD0AEE27E
:1002B600B2E007C0E83019F4ADE3B2E002C0ADE445
:1002C600B2E068D00C940502EA93FA93E0E0F0E01D
:1002D600FDBDECBDE1E0E0936902F991E991189565
:1002E600E5E0EEBDE0E1E9BFE0E0F0E0FBBDEABD40
:1002F60008951A931A2FEBB3EF70AE2FE12FE07F1C
:10030600EA2BEBBB89E18A95F1F7DA9A89E18A95BE
:10031600F1F7DA9889E18A95F1F774C0AA93A88172
:10032600E8DFE881E295E883A881E3DF86EF8A9536
:10033600F1F7219608951A930A931A2F0A81E12F4D
:10034600F0E0E659FD4FE081E00FAE2FE7DF502EDB
:10035600412E1981088123960895A2E05AD0ACE077
:10036600DDDFA1E056D0E0E04E2E5E2E08951A9312
:100376001A2F1A3011F0571438F0E0E0EA9343943C
:10038600A42DD9DF1A30F1F15394D89AA12FC6DFE4
:10039600D89838C049D09D01D9012F5F3F4FEC91C5
:1003A6001E2FE03019F0A12FE2DFF6CF42D02496BF
:1003B60008951A931A2FEAB3E06FEABBD29AD09A3D
:1003C600D19ADA98D898D998712EE12FE058E0930F
:1003D6006C02E12FE054E0936D02A4E1B0E02ED070
:1003E6001CD01BD01AD0A0E284DF81E791E00197F0
:1003F600F1F7A8E293DFA4E091DFA5E88FDFA6E09E
:100406008DDFABDF19910895C5DFE0E0EA93A1E047
:1004160092CF84DFA3E0B0E011C0A0E36ADF81E7FA
:1004260091E00197F1F708953A932A931A930A9364
:1004360008953B812A81198108810895109639F023
:10044600A89586E69EE00197F1F71197C9F70895FA
:00000001FF
