:0C0000000C94EA000C9400000C9400002A
:10000C000C9400000C9400000C9400000C9405025D
:10001C000C9400000C9400000C941A020C94000038
:10002C000C9400000C9400000C9400000C94000044
:10003C000C9400000C9400000C9400000C94000034
:10004C000C9400000C9400003134373C32353830BD
:10005C00333639231027E80364000A00010000102E
:10006C00000110000100010053656E686120496EAB
:10007C00636F72726574610053656E686120436FC3
:10008C007272657461004C6967616E646F2E2E2EFE
:10009C000053697374656D612041726D61646F000A
:1000AC0041726D616E646F2053697374656D61008C
:1000BC0053697374656D612044657361726D61641D
:1000CC006F00416C657274613A20496E747275737D
:1000DC00616F0053656E68613A205F205F205F207E
:1000EC005F00416C657274613A2050726573656E85
:1000FC00636100416C657274613A2046756D61C331
:10010C00A7610053757065726171756563696D6582
:10011C006E746F004572726F206E6F20536973742A
:10012C00656D610045737461646F20446573636F22
:10013C006E68656369646F00323233340A004000C4
:10014C0080C00100020072001000600174000E00FB
:10015C00700184000B007E0192000F0089019D004C
:10016C0010009801AC000400A80199001200AC0129
:10017C00BC001100BE01CE000F00CF01DF0011004A
:10018C00DE01EE000F00EF01DF001000FE01FF00AA
:10019C000F000E02DF0011001D020F010F002E02D6
:1001AC00DF0010003D02200114004D02300104005C
:1001BC006202440101006D02480101006F024A0114
:1001CC00020074024C010000F894EE27ECBBF1E045
:1001DC00FBBFEBBFE5BF8DE0A2E0BB27ED938A959B
:1001EC00E9F780E094E0A0E6ED930197E9F7EEE4FF
:1001FC00F1E085919591009761F0A591B5910590ED
:10020C001590BF01F00105900D920197E1F7FB01EC
:10021C00F0CFEFE5EDBFE4E0EEBFC0E6D1E00C942B
:10022C00170103D007D0FECFFFCF29D065D1F3D073
:10023C007894089520FE05C0A09161023FD0E89407
:10024C0020F821FE03C0A091610278D108951A9381
:10025C001A2F10936102689420F8133041F0143077
:10026C0031F0153021F0163011F0173021F468946C
:10027C0021F86ED002C0E89421F80C944E03D29A67
:10028C00A0E1DDD1DB9AE0E0EA93A0E09ED10895F5
:10029C0001D206D2A02FB1D1A4EFB1E057D2E12FF9
:1002AC00FFD1AAE2AAD10C94F50200D2A0E6B1E0EB
:1002BC0003C099D1A0E7B1E0B3D108951A931A2FD6
:1002CC0092D1E12FE03019F4AEE7B1E03EC0E1305D
:1002DC0019F4A9E8B1E039C0E23039F4A8E9B1E089
:1002EC009FD1E4D1A8EAB1E030C0E33019F4ACEA14
:1002FC00B1E02BC0E43039F4AEEBB1E091D1D6D102
:10030C00AFECB1E022C0E53039F4AEEDB1E088D10C
:10031C00CDD1AFEEB1E019C0E63039F4AEEFB1E0BB
:10032C007FD1C4D1AEE0B2E010C0E73039F4ADE11A
:10033C00B2E076D1BBD1AEE2B2E007C0E83019F43E
:10034C00ADE3B2E002C0ADE4B2E06AD10C944E036E
:10035C00B1D1E0936B0208951A931A2FA091660203
:10036C00A43010F00C944E03E0916602F0E0E959D1
:10037C00FD4F1083E0916602EF5FE09366021A93E3
:10038C00A091660285DF0C944E03A0916602A13009
:10039C0060F0E0916602E150E0936602EE0FE95FD7
:1003AC00EA93A1E012D1AFE528D108951A93E09118
:1003BC006B02E03021F0A0916602A43018F4E0E06A
:1003CC000C944E0310E0143098F4E12FF0E0E9594E
:1003DC00FD4FA081E12FF0E0EE59FD4FE081EA17CF
:1003EC0029F063DFB5DFE2E00C944E031F5FEBCF27
:1003FC0060DFE0E0E0936B025DD10C944E03EA9376
:10040C00FA93E0E0F0E0FDBDECBDE1E0E0936C02BE
:10041C00F991E9911895E5E0EEBDE0E1E9BFE0E086
:10042C00F0E0FBBDEABD0895AA93BA93EA93FA9360
:10043C00EFB7EA93EDE8E2BF42D17FD145D1E3B308
:10044C00E095EF7046D1F0E0EA2BFB2B3DD1E0912B
:10045C006F02E695E0936F02A0916F02A830A9F5A8
:10046C00E0E4E0936F022BD13097D9F0E0916E026B
:10047C00E03011F0E15022C0A0916D02A150A09388
:10048C006D02A93031F41BD1E0937202F093730228
:10049C0017C0E0917202F09173021BD1EA17FB07AF
:1004AC0021F0EAE0E0936D0209C0E0916D02E030CA
:1004BC0039F44090700250907102E4E1E0936E02C6
:1004CC00E0E0E0937002E0937102E0916F02E0953E
:1004DC00E5BBE991EFBFF991E991B991A991189513
:1004EC001A930A93F2018F01309711F0442455248A
:1004FC00F801099119910895E4B3E067E4BBE5B301
:10050C00EF67E5BBE3B7E460E3BFE2B7ED68E2BFDA
:10051C00E9B7E160E9BF0895F3D09D0110E01C300C
:10052C0060F4E12FA1E0B0E0F7D0E223F3233097A1
:10053C0011F0E12F81C01F5FF2CF7EC0DFD04A2FB8
:10054C00CFDF8F013097E1F0D801E6DF3E2FC6D028
:10055C0024912C3311F419DF13C0233271F426DFEC
:10056C005E2FA8EEB3E0F2D0523011F4A42F03C0EA
:10057C00513011F4A3E06BDE03C0B0D0A491ECDEDB
:10058C00C4D0269608951A931A2FEBB3EF70AE2FA2
:10059C00E12FE07FEA2BEBBB89E18A95F1F7DA9A40
:1005AC0089E18A95F1F7DA9889E18A95F1F770C0BB
:1005BC00AA93A881E8DFE881E295E883A881E3DFCC
:1005CC0086EF8A95F1F72196089564D0F0E0EC5807
:1005DC00FD4FE081E00FAE2FEBDF702E612E198105
:1005EC00088123960895A2E07ED0ACE0E1DFA1E083
:1005FC007AD0E0E06E2E7E2E08951A931A2F1A30C0
:10060C0011F0791438F0E0E0EA936394A62DDDDF65
:10061C001A30F1F17394D89AA12FCADFD89838C048
:10062C006FD09D01D9012F5F3F4FEC911E2FE03011
:10063C0019F0A12FE2DFF6CF6AD0249608951A9311
:10064C001A2FEAB3E06FEABBD29AD09AD19ADA9811
:10065C00D898D998912EE12FE058E0937602E12FAB
:10066C00E054E0937702A4E1B0E070D040D03FD0EA
:10067C003ED0A0E288DF81E791E00197F1F7A8E294
:10068C0097DFA4E095DFA5E893DFA6E091DFABDF71
:10069C00199108951A930A931A2F0A81E12F08953C
:1006AC00E150EE0FE95FEA93A1E08FCFE0E0EA932F
:1006BC00A1E08BCFE0E0E0936602E1E00895E091E9
:1006CC007002F09171020895E0937002F093710240
:1006DC000895A0917002B09171020895E32FF0E09B
:1006EC00EC5AFF4F089564DFA3E0B0E02FC0A0E305
:1006FC004ADF81E791E00197F1F708955A934A9305
:10070C003A932A931A930A9308955D814C813B8105
:10071C002A81198108810895EE230E2EE8E01E2E01
:10072C00FD0151F0011420F0FE2FE0E0011821F042
:10073C00EE0FFF1F0A94E1F70895EE0FFF1FEE0F67
:10074C00FF1FEE0FFF1FEE0FFF1F0895109639F0DD
:10075C00A89586E69EE00197F1F71197C9F70895E1
:00000001FF
