:100000000C946F000C9400000C9400000C94000001
:100010000C9400000C9400000C9400000C94000060
:100020000C9400000C9400000C9400000C94000050
:100030000C9400000C9400000C9400000C94000040
:100040000C9400000C9400000C9400000C94000030
:100050000C9400001027E80364000A00010000105F
:10006000000110000100426F6F74696E672E2E2E22
:100070000053697374656D612041726D61646F0036
:1000800053697374656D612044657361726D616459
:100090006F004572726F206E6F2053697374656DC7
:1000A000610045737461646F20446573636F6E68AB
:1000B000656369646F0080C00B00600166000F001B
:1000C0006B01710012007A01800010008C01920017
:1000D00014009C01A2000200B101B6000000F894D7
:1000E000EE27ECBBF1E0FBBFEBBFE5BF8DE0A2E08C
:1000F000BB27ED938A95E9F780E094E0A0E6ED93C5
:100100000197E9F7E8EBF0E085919591009761F0B0
:10011000A591B59105901590BF01F00105900D9244
:100120000197E1F7FB01F0CFEFE5EDBFE4E0EEBFB3
:10013000C0E6D1E00C949C0006D007D0A8EEB3E056
:10014000CDD0FBCFFFCF05D00895A091B0010AD04C
:100150000895D29AA0E182D0DB9AE0E0EA93A0E091
:100160003FD008951A931A2F4DD0E12FE03019F4A3
:10017000A0E6B1E011C0E13019F4ABE6B1E00CC08B
:10018000E23019F4AAE7B1E007C0E33019F4ACE8B3
:10019000B1E002C0ACE9B1E052D089C01A931A2F85
:1001A000EBB3EF70AE2FE12FE07FEA2BEBBB89E1E1
:1001B0008A95F1F7DA9A89E18A95F1F7DA9889E177
:1001C0008A95F1F774C0AA93A881E8DFE881E295E7
:1001D000E883A881E3DF86EF8A95F1F721960895F9
:1001E0001A930A931A2F0A81E12FF0E0EF54FE4F81
:1001F000E081E00FAE2FE7DF502E412E19810881FC
:1002000023960895A2E055D0ACE0DDDFA1E051D007
:10021000E0E04E2E5E2E08951A931A2F1A3011F038
:10022000571438F0E0E0EA934394A42DD9DF1A3054
:10023000F1F15394D89AA12FC6DFD89838C044D092
:100240009D01D9012F5F3F4FEC911E2FE03019F037
:10025000A12FE2DFF6CF3DD0249608951A931A2FEE
:10026000EAB3E06FEABBD29AD09AD19ADA98D898DA
:10027000D998712EE12FE058E093B301E12FE054BB
:10028000E093B401A4E1B0E029D017D016D015D086
:10029000A0E284DF81E791E00197F1F7A8E293DF24
:1002A000A4E091DFA5E88FDFA6E08DDFABDF199139
:1002B000089589DFA3E0B0E011C0A0E36FDF81E71C
:1002C00091E00197F1F708953A932A931A930A93CC
:1002D00008953B812A81198108810895109639F08B
:1002E000A89586E69EE00197F1F71197C9F7089562
:00000001FF
