:080000000C94BE000C940000FA
:100008000C9400000C9400000C9400000C94000068
:100018000C9400000C9400000C9400000C94000058
:100028000C9400000C9400000C9400000C94000048
:100038000C9400000C9400000C9400000C94000038
:100048000C9400000C9400000C9400001027E803A6
:1000580064000A00010000100001100001004C6952
:1000680067616E646F2E2E2E0053697374656D611F
:100078002041726D61646F0041726D616E646F2022
:1000880053697374656D610053697374656D61209C
:1000980044657361726D61646F00416C657274616F
:1000A8003A20496E74727573616F0053656E6861AA
:1000B8003A205F205F205F205F00416C65727461A9
:1000C8003A2050726573656E636100416C657274A5
:1000D800613A2046756D61C3A761005375706572FA
:1000E8006171756563696D656E746F004572726FD5
:1000F800206E6F2053697374656D61004573746178
:10010800646F20446573636F6E68656369646F002C
:1001180080C00B00600166000F006B0171001000C9
:100128007A01800004008A016D0012008E0190009F
:100138001100A001A2000F00B101B3001100C0011D
:10014800C2000F00D101B3001000E001D3000F007E
:10015800F001B3001100FF01E3000F001002B3002B
:1001680010001F02F40014002F02040102004402D0
:1001780018010000F894EE27ECBBF1E0FBBFEBBFE1
:10018800E5BF8DE0A2E0BB27ED938A95E9F780E013
:1001980094E0A0E6ED930197E9F7EAE1F1E08591B3
:1001A8009591009761F0A591B59105901590BF01C3
:1001B800F00105900D920197E1F7FB01F0CFEFE513
:1001C800EDBFE4E0EEBFC0E6D1E00C94EB0006D052
:1001D80007D0A8EEB3E0FAD0FBCFFFCF05D0089543
:1001E800A09143020AD00895D29AA0E1AAD0DB9A3E
:1001F800E0E0EA93A0E067D008951A931A2F75D02B
:10020800E12FE03019F4A0E6B1E039C0E13019F48B
:10021800ABE6B1E034C0E23031F4AAE7B1E0BCD0DB
:10022800AAE8B1E02CC0E33019F4AEE8B1E027C089
:10023800E43031F4A0EAB1E0AFD0A1EBB1E01FC0E7
:10024800E53031F4A0ECB1E0A7D0A1EDB1E017C0E2
:10025800E63031F4A0EEB1E09FD0A0EFB1E00FC0DE
:10026800E73031F4AFEFB1E097D0A0E1B2E007C0DA
:10027800E83019F4AFE1B2E002C0AFE2B2E052D028
:1002880089C01A931A2FEBB3EF70AE2FE12FE07FDE
:10029800EA2BEBBB89E18A95F1F7DA9A89E18A952D
:1002A800F1F7DA9889E18A95F1F774C0AA93A881E1
:1002B800E8DFE881E295E883A881E3DF86EF8A95A5
:1002C800F1F7219608951A930A931A2F0A81E12FBC
:1002D800F0E0EC5BFD4FE081E00FAE2FE7DF502E42
:1002E800412E1981088123960895A2E05AD0ACE0E6
:1002F800DDDFA1E056D0E0E04E2E5E2E08951A9381
:100308001A2F1A3011F0571438F0E0E0EA934394AA
:10031800A42DD9DF1A30F1F15394D89AA12FC6DF52
:10032800D89838C049D09D01D9012F5F3F4FEC9133
:100338001E2FE03019F0A12FE2DFF6CF42D024962D
:1003480008951A931A2FEAB3E06FEABBD29AD09AAB
:10035800D19ADA98D898D998712EE12FE058E0937D
:100368004602E12FE054E0934702A4E1B0E02ED02A
:100378001CD01BD01AD0A0E284DF81E791E001975E
:10038800F1F7A8E293DFA4E091DFA5E88FDFA6E00C
:100398008DDFABDF19910895C5DFE0E0EA93A1E0B6
:1003A80092CF84DFA3E0B0E011C0A0E36ADF81E769
:1003B80091E00197F1F708953A932A931A930A93D3
:1003C80008953B812A81198108810895109639F092
:1003D800A89586E69EE00197F1F71197C9F7089569
:00000001FF
