:060000000C9432010C9487
:1000060000000C9400000C9400000C9400000C946A
:1000160000000C94DC020C9400000C9400000C947C
:1000260013030C9400000C9400000C9400000C9434
:1000360000000C9400000C9400000C9400000C943A
:1000460000000C9400000C9400000C940000313465
:10005600373C32353830333639231027E80364000D
:100066000A000100001000011000010005005365A0
:100076006E686120496E636F7272657461005365C4
:100086006E686120436F72726574610044617461C9
:1000960020736574616461004C6967616E646F2EDC
:1000A6002E2E0053697374656D612041726D616413
:1000B6006F0041726D616E646F2073697374656D54
:1000C600610044617461206520486F72613A2000C6
:1000D6005F5F2F5F5F2F5F5F205F5F3A5F5F20206C
:1000E600004174697665206F2073697374656D616C
:1000F6003A0053656E68613A205F205F205F205F9B
:10010600202000416C657274613A20496E747275E4
:1001160073616F00416C657274613A205072657349
:10012600656E636100416C657274613A20496E6365
:10013600656E64696F00537570657261717565638C
:10014600696D656E746F00416C657274613A204921
:100156006E766173616F004572726F206E6F205309
:10016600697374656D610045737461646F204465DD
:1001760073636F6E68656369646F0000323233348F
:100186000A0040002020202053697374656D6100C9
:10019600202044657361726D61646F00BC022B029E
:1001A60080C00100020072001000600174000E00A1
:1001B600700184000C007E0192000B008A019E00F3
:1001C6000F009501A9001000A401B8000400B401B5
:1001D600A5000E00B801C8001100C601D600110026
:1001E600D701E7001100E801F8001100F901090143
:1001F60011000A02F80011001B021A0111002C025C
:10020600F80011003D022B0111004E02F80011000A
:100216005F023C0111007002F800100081024D01DE
:1002260011009102F8001000A2025D011400B20252
:100236006D010400DF0282010100FB02860101005C
:10024600FD0288010C00C6028A010C00D20296014A
:1002560004000603A20102000A03A6010000F894A6
:10026600EE27ECBBF1E0FBBFEBBFE5BF8DE0A2E004
:10027600BB27ED938A95E9F780E094E0A0E6ED933D
:100286000197E9F7E8EAF1E085919591009761F029
:10029600A591B59105901590BF01F00105900D92BD
:1002A6000197E1F7FB01F0CFEFE5EDBFE4E0EEBF2C
:1002B600C0E6D1E00C945F010BD012D0829902C047
:1002C600A6E028D0839902C0A7E024D0F6CFFFCFBE
:1002D6004BD00ED27AD115D383D288D47894089590
:1002E60020FE0FC0A091DE026BD0E091DE02E0306E
:1002F60031F4A8E8B3E1CAD4A3E00CD00895E89499
:1003060020F821FE03C0A091DE0216D2A091DE02E3
:10031600E6D208951A931A2F1093DE02689420F8F5
:10032600153051F0163041F0173031F0193021F008
:10033600143011F0183029F4689421F8A2D0A5D011
:1003460009C0133029F4689421F89FD09AD002C0CE
:10035600E89421F8123031F4A0EDB7E097D4E1E04B
:10036600E093DE020C941005D29AA0E12DD3DB9A1D
:10037600E0E0EA93A0E0EAD2089551D357D3A02F44
:1003860001D3A4EFB1E082D4E12FE1504FD3AAE22A
:10039600F9D20C94B70443D3EA93A1E0D7D2A02FA5
:1003A600F1D20C94B70447D3A0E6B1E007C0E0D27F
:1003B600A0E7B1E003C0DCD2AEE7B1E0F6D2089523
:1003C6001A931A2FD5D2E12FE03019F4AAE8B1E03A
:1003D60055C0E13019F4A5E9B1E050C0E23039F476
:1003E600A4EAB1E0E2D227D3A4EBB1E047C0E33000
:1003F60039F4A8EBB1E0D9D21ED3A6ECB1E03EC0E9
:10040600E43041F4A7EDB1E0D0D215D3A8EEB1E0C7
:10041600CCD202C0E53039F4A9EFB1E0C6D20BD395
:10042600AAE0B2E02BC0E63039F4ABE1B2E0BDD2CF
:1004360002D3ACE2B2E022C0E73039F4ADE3B2E079
:10044600B4D2F9D2AEE4B2E019C0E93039F4AFE57E
:10045600B2E0ABD2F0D2A0E7B2E010C0E83039F497
:10046600A1E8B2E0A2D2E7D2A1E9B2E007C0EA3041
:1004760019F4A2EAB2E002C0A2EBB2E096D20C9462
:100486001005DDD2E093F8020895DED2E093F9027A
:1004960008951A931A2FA091E302A43010F00C9439
:1004A6001005E091E302F0E0EB51FD4F1083E0917F
:1004B600E302EF5FE093E3021A93A091E3025DDFAC
:1004C6000C9410051A931A2FA091E402AF3010F085
:1004D6000C941005E091E402F0E0E751FD4F108323
:1004E600B8D21A93A091E40256DFB9D221F4A091B2
:1004F600E402AF3008F001C0ACD20C941005A09114
:10050600E302A13040F0E091E302E150E093E30220
:100516008DD2AFE537D20895A091E402A13078F0EC
:10052600E091E402E150E093E40299D209F40895DF
:10053600E091E402EA93A1E009D2AFE523D208955F
:100546001A93E091F802E03021F0A091E302A43082
:1005560018F4E0E00C94100510E0143098F4E12F44
:10056600F0E0EB51FD4FA081E12FF0E0E152FD4FAD
:10057600E081EA1729F017DF84DFE2E00C9410052A
:100586001F5FEBCF14DFE0E0E093F80258D20C9443
:100596001005E091F902E03021F0A091E402AF30BD
:1005A60010F4E0E0089507DFE0E0E093F9024CD2B2
:1005B6000895EA93FA93E0E0F0E0FDBDECBDE1E0DA
:1005C600E093FA02F991E9911895E5E0EEBDE9B7F5
:1005D600E061E9BFE0E0F0E0FBBDEABD08951A93F3
:1005E6000A938D01F80166277727A0E4B8E380E037
:1005F60090E0A7D2DF01CB01E8EEF3E060E070E027
:10060600CED2662777273197FBBDEABD6EC0E09153
:10061600FA0208951A931A2F1093FA020C941005F1
:10062600AA93BA93EA93FA93EFB7EA93EDE8E2BF97
:100636001CD27ED21FD2E3B3E095EF7020D2F0E059
:10064600EA2BFB2B17D2E091FD02E695E093FD0223
:10065600A091FD02A830A9F5E0E4E093FD0205D2E1
:100666003097D9F0E091FC02E03011F0E15022C061
:10067600A091FB02A150A093FB02A93031F4F5D161
:10068600E0930003F093010317C0E0910003F0919B
:100696000103F5D1EA17FB0721F0EAE0E093FB023C
:1006A60009C0E091FB02E03039F44090FE02509020
:1006B600FF02E4E1E093FC02E0E0E093FE02E09357
:1006C600FF02E091FD02E095E5BBE991EFBFF991EC
:1006D600E991B991A99118951A930A93F2018F019C
:1006E600309711F044245524F80109911991089581
:1006F600E4B3E067E4BBE5B3EF67E5BBE3B7E4600B
:10070600E3BFE2B7ED68E2BFE9B7E160E9BF08958C
:10071600F2D19D0110E01C3068F4E12FA1E0B0E0B9
:10072600F6D1E223F323309719F0E12F0C94E40479
:100736001F5FF1CF0C94E404DCD15A2FCDDF8F017B
:10074600309709F44AC0D801E3DF3E2F9DD12491AA
:100756002C3331F4533011F4DFDE3FC0D0DE3DC020
:10076600233291F5533061F414DFE0930303A8EECE
:10077600B3E08CD2A0910303A13009F48AD12DC035
:10078600DFDEE0930203A8EEB3E080D2A09102037D
:10079600A23021F4A52FBEDD93D015C0A09102038F
:1007A600A13089F4543011F474D10DC0A4E0B2DD47
:1007B600DFD0A6ECB2E0F9D03ED1A2EDB2E0F5D0A2
:1007C600A8EEB3E063D209C0533021F45DD1A49101
:1007D60079DE03C059D1A4915CDE92D126960895A4
:1007E600ECE1E5BDE0E8E1BB089585D19D01022E6F
:1007F600032A19F48F980C94E4048F9AF90166275A
:100806007727A0E8B0E080E090E09BD1A0E0B0E0E0
:1008160081EE90E0C4D1E1501E2F13BD0C94E40488
:100826003CD1E1F0A0E0F6DE22FE0AC03CD13A96C9
:100836003FD1A837E5E0BE0710F0E89422F809C0DA
:1008460032D13A9735D1A935E2E0BE0710F4689463
:1008560022F8A0910403B0910503C7DF08951DD1C6
:1008660039F1A0E0D7DE23FC12C02BD13596FE93DA
:10087600EE9327D1E43EA2E0FA0740F0689423F80D
:10088600ECEBF2E0E0930603F093070311C019D1F5
:100896003597FE93EE9315D1E83CA1E0FA0740F4B4
:1008A600E89423F8E8E0F3E0ABE2B2E0A083B1839A
:1008B6000895A0E0B0E099DFA0E0B0E090DE0895F2
:1008C600A4E6B0E08CDEA3DEE03029F0A0E0A2DEF4
:1008D600A2ECB1E002C0A0E0B0E087DF08951A9371
:1008E6001A2FE12FE63011F0E53011F499DF07C039
:1008F600E93011F0E73011F4B2DF01C0DADF0C9411
:100906001005E0E0E7BB08951A931A2FEBB3EF70DA
:10091600AE2FE12FE07FEA2BEBBB89E18A95F1F759
:10092600DA9A89E18A95F1F7DA9889E18A95F1F7F9
:1009360074C0AA93A881E8DFE881E295E883A881DC
:10094600E3DF86EF8A95F1F7219608951A930A93C5
:100956001A2F0A81E12FF0E0E65FFC4FE081E00FFD
:10096600AE2FE7DF702E612E198108812396089538
:10097600A2E0B4D0ACE0DDDFA1E0B0D0E0E06E2EC6
:100986007E2E08951A931A2F1A3011F0791438F022
:10099600E0E0EA936394A62DD9DF1A30F1F173945F
:1009A600D89AA12FC6DFD89838C0A5D09D01D90105
:1009B6002F5F3F4FEC911E2FE03019F0A12FE2DFA1
:1009C600F6CFA0D0249608951A931A2FEAB3E06FB3
:1009D600EABBD29AD09AD19ADA98D898D998912E19
:1009E600E12FE058E0930C03E12FE054E0930D0370
:1009F600A4E1B0E04BD176D075D074D0A0E284DF0C
:100A060081E791E00197F1F7A8E293DFA4E091DF97
:100A1600A5E88FDFA6E08DDFABDF199108951A9365
:100A26000A931A2F0A81E12FE1500895EE0FE95F2C
:100A3600EA93A1E08BCFE0E0EA93A1E087CFE0E084
:100A4600E093E302E1E00895E0E0E093E402E1E010
:100A56000895E091E402EF5FE093E4020895A09127
:100A6600E402E3E0C0D0E2300895E091FE02F091A6
:100A7600FF020895E093FE02F093FF020895A0910D
:100A8600FE02B091FF020895E32FF0E0EC5AFF4F0B
:100A96000895A2E095DCA2E03DCCA4E1B0E09FDDA4
:100AA600B6DDE0300895E0910403F0910503089562
:100AB600E0930403F0930503A0910403B0910503AA
:100AC6000895E0E023FCE1E0A6E0B3E0F0E0EE0FFD
:100AD600FF1FAE0FBF1FED91FD9108952ADFA3E022
:100AE600B0E0D4C0A0E310DF81E791E00197F1F711
:100AF60008955A934A933A932A931A930A93089518
:100B06005D814C813B812A81198108810895EE23FC
:100B16000E2EE8E01E2EFD0151F0011420F0FE2FEE
:100B2600E0E0011821F0EE0FFF1F0A94E1F70895A7
:100B3600EE0FFF1FEE0FFF1FEE0FFF1FEE0FFF1F43
:100B460008957A9F702D6B9F700DF89F700DE99F29
:100B5600700D6A9F602D710DFB9F600D711DE89FE2
:100B6600600D711D8827FA9FF02D610D781FEB9F90
:100B7600F00D611D781FEA9FE02DF10D681F781FAB
:100B86000895002498E0AA0F001C0E1A10F40E0E09
:100B960001C0A1609A95B9F7EA2FA02D08953F9359
:100BA6004F935F9300241124A00130E2AA0FBB1FCC
:100BB600881F991F001C111C441F551F0E1A1F0A5F
:100BC600460B570B28F40E0E1F1E461F571F01C05B
:100BD600A1603A9559F7FD01BC01D001CA015F91A8
:100BE6004F913F910895CDDFEA2F0895C098C1989F
:100BF600B89AB99815C0B998B898EE270000B19B75
:100C06000895B09B089504D0B99A02D0B89AE1E04D
:100C160069E007C0B99AB89A03D0B898F9DFB998CD
:100C260062E16A95F1F7089578E0B898F1DFB09B34
:100C3600FECFEEDF8894B1990894B89AF1DFEE1FE3
:100C46007A9599F7AA2311F4B99801C0B99AE0DF09
:100C5600B898E6DFB89ADCDFB998DACF78E0AA0F61
:100C660010F4B99801C0B99ADBDFB898D1DFB09B10
:100C7600FECFCEDFB89A7A9591F7B998C9DFB898C2
:100C8600CFDFE1E0B199EE27B89AC2CF109639F0DE
:100C9600A89586E69EE00197F1F71197C9F70895A2
:00000001FF
