:080000000C94DC000C940000DC
:100008000C9400000C9400000C9400000C94000068
:100018000C9400000C9400000C9400000C94000058
:100028000C9400000C9400000C9400000C94000048
:100038000C9400000C9400000C9400000C94000038
:100048000C9400000C9400000C9400001027E803A6
:1000580064000A0001000010000110000100010006
:1000680053656E686120496E636F727265746100D2
:1000780053656E686120436F7272657461004C69E4
:1000880067616E646F2E2E2E0053697374656D61FF
:100098002041726D61646F0041726D616E646F2002
:1000A80053697374656D610053697374656D61207C
:1000B80044657361726D61646F00416C657274614F
:1000C8003A20496E74727573616F0053656E68618A
:1000D8003A205F205F205F205F00416C6572746189
:1000E8003A2050726573656E636100416C65727485
:1000F800613A2046756D61C3A761005375706572DA
:100108006171756563696D656E746F004572726FB4
:10011800206E6F2053697374656D61004573746157
:10012800646F20446573636F6E68656369646F000C
:100138003232333480C001000200660010006001D2
:1001480068000E00700178000B007E0186000F0029
:100158008901910010009801A0000400A8018D00F9
:100168001200AC01B0001100BE01C2000F00CF01A7
:10017800D3001100DE01E2000F00EF01D3001000F0
:10018800FE01F3000F000E02D30011001D0203014F
:100198000F002E02D30010003D02140114004D027E
:1001A8002401040062023801020069023C010000D7
:1001B800F894EE27ECBBF1E0FBBFEBBFE5BF8DE0A9
:1001C800A2E0BB27ED938A95E9F780E094E0A0E6EA
:1001D800ED930197E9F7EEE3F1E0859195910097AA
:1001E80061F0A591B59105901590BF01F0010590BA
:1001F8000D920197E1F7FB01F0CFEFE5EDBFE4E0E9
:10020800EEBFC0E6D1E00C94090126D0A8E5B2E023
:1002180034D080990EC000E010E00035E0E01E0701
:1002280040F4A9D0E85AFD4FDF01ABD00F5F1F4F54
:10023800F4CF81990FC000E010E00035E0E01E0720
:1002480048F499D0A8E7B5E0AE1BBF0B9AD00F5F72
:100258001F4FF3CFDECFFFCF02D00AD00895D29A36
:10026800A0E15ED0DB9AE0E0EA93A0E03DD00895FB
:10027800ECE1E5BDE0E8E1BB089592D09D01F9010C
:1002880066277727A0E8B0E080E090E093D0A0E070
:10029800B0E081EE90E0AED0E1501E2F13BD85D0C6
:1002A800249608951A931A2FEBB3EF70AE2FE12F0F
:1002B800E07FEA2BEBBB89E18A95F1F7DA9A89E1CD
:1002C8008A95F1F7DA9889E18A95F1F752C0AA93ED
:1002D800A881E8DFE881E295E883A881E3DF86EF7B
:1002E8008A95F1F7219608951A930A931A2F0A818D
:1002F800E12FF0E0E759FD4FE081E00FAE2FE7DF97
:10030800502E412E1981088123960895A2E03DD0F0
:10031800ACE0DDDFA1E039D0E0E04E2E5E2E08959E
:100328001A931A2FEAB3E06FEABBD29AD09AD19AFD
:10033800DA98D898D998712EE12FE058E0936B029B
:10034800E12FE054E0936C02A4E1B0E077D021D033
:1003580020D01FD0A0E2A6DF81E791E00197F1F756
:10036800A8E2B5DFA4E0B3DFA5E8B1DFA6E0AFDF20
:10037800CDDF19910895AAE0A09FF001A19FF00D8B
:1003880008957BDFA4E1B0E059C0A1DFA3E0B0E0AD
:1003980055C0A0E387DF81E791E00197F1F7089561
:1003A8003A932A931A930A9308953B812A811981D3
:1003B800088108957A9F702D6B9F700DF89F700DBE
:1003C800E99F700D6A9F602D710DFB9F600D711D77
:1003D800E89F600D711D8827FA9FF02D610D781F29
:1003E800EB9FF00D611D781FEA9FE02DF10D681F4E
:1003F800781F08953F934F935F9300241124A00121
:1004080030E2AA0FBB1F881F991F001C111C441F34
:10041800551F0E1A1F0A460B570B28F40E0E1F1EE7
:10042800461F571F01C0A1603A9559F7FD01BC014D
:10043800D001CA015F914F913F910895109639F00C
:10044800A89586E69EE00197F1F71197C9F70895F8
:00000001FF
