:100000000C9463010C94A1010C9467050C940000FE
:100010000C9400000C9400000C94D5030C94000088
:100020000C9400000C940D040C9400000C9400003F
:100030000C9400000C9400000C9400000C94000040
:100040000C9400000C9400000C9400000C94000030
:100050000C9400003134373C323538303336392394
:100060001027E80364000A000100001000011000DE
:100070000100110074696D657374616D702C657396
:100080007461646F20646F2073697374656D610DB2
:100090000A0053656E686120496E636F7272657401
:1000A000610053656E686120436F72726574610010
:1000B0004461746120736574616461004C696761B7
:1000C0006E646F2E2E2E0053697374656D6120412E
:1000D000726D61646F0041726D616E646F2073694F
:1000E0007374656D61002020202020202E2E2E00AC
:1000F00044617461206520486F72613A20005F5F3F
:100100002F5F5F2F5F5F205F5F3A5F5F20200041BE
:1001100074697665206F2073697374656D613A0048
:1001200053656E68613A205F205F205F205F20206A
:1001300000416C657274613A20496E747275736126
:100140006F00416C657274613A2050726573656E20
:10015000636100416C657274613A20496E63656E3B
:1001600064696F0053757065726171756563696D5F
:10017000656E746F00416C657274613A20496E76E9
:100180006173616F004572726F206E6F20536973E7
:1001900074656D610045737461646F2044657363B9
:1001A0006F6E68656369646F0000323233343030DB
:1001B00030303030303030303030303030000A00C5
:1001C00040002020202053697374656D6100202059
:1001D00044657361726D61646F00BC022B0225641B
:1001E0002F25642F25642025643A25643A25642C44
:1001F00025642C0D0A0080C001002D4E414E00499F
:100200004E460000010002007200100060019200E2
:100210000E007001A2000C007E01B0000B008A01EC
:10022000BC000F009501C7001000A401D6000A0011
:10023000B401E6000E00BE01F0001100CC01FE008A
:100240001100DD010F011100EE0120011100FF017D
:1002500031011100100220011100210242011100A0
:100260003202200111004302530111005402200107
:10027000110065026401110076022001100087025E
:1002800075011100970220011000A80285011400D9
:10029000B80295010400E502AA010F00EF02AE01C9
:1002A00001000103BE0101000303C0010C00CC02E8
:1002B000C2010C00D802CE0102000C03F6010100BD
:1002C0001003F8010000F894EE27ECBBF1E0FBBF4F
:1002D000EBBFE5BFF8E1F1BDE1BD8DE0A2E0BB27DA
:1002E000ED938A95E9F780E094E0A0E6ED9301971D
:1002F000E9F7E4E0F2E085919591009761F0A5912E
:10030000B59105901590BF01F00105900D920197F0
:10031000E1F7FB01F0CFEFE5EDBFE4E0EEBFC0E6B3
:10032000D1E00C94930114D024D0859903C0E6E069
:10033000EA9344D0839903C0E7E0EA933FD0F4CF37
:10034000FFCFEA93EFB7689423F8EFBFE9911895D0
:100350006FD00E946E050E94D0050E9489040E9401
:10036000E1030E945D050E941E050E945F097894CA
:10037000089520FE12C0E091E402EA9392D0E09149
:10038000E402E03041F4E8E8F3E10E94A908E3E088
:10039000EA9314D00895E89420F821FE05C0E09176
:1003A000E402EA930E94B10423FE02C022FC01C0D1
:1003B00004C00E94DB05E89423F80895E881E093E7
:1003C000E402689420F8A881A53051F0A63041F0ED
:1003D000A73031F0A93021F0A43011F0A83029F471
:1003E000689421F8D9D0DFD00AC0A881A33029F4BD
:1003F000689421F8D8D0D0D002C0E89421F8A88120
:10040000A23089F4E0EDF7E00E94A908E1E0E09372
:10041000E402E4E7F0E0FA93EA9380E00E945407F4
:100420002296689422F821960895E091E4020895B6
:10043000D29AE0E1EA930E94E807DB9AE0E0EA93CF
:10044000EA930E94AC0708950E94AD08E981EA93FF
:100450000E94C507E4EFF1E00E94A9080E94AD08E0
:10046000EAE206C00E94B70831970E94BA08E98103
:10047000EA930E94C50722960895E0E00E94BA0818
:10048000E0E6F1E009C00E94B807E0E7F1E004C04F
:100490000E94B807EEE7F1E0FA93EA930E94DA07C8
:1004A00008950E94B8070E94B708309719F4EAE847
:1004B000F1E06CC0E130A0E0FA0719F4E5E9F1E001
:1004C00065C0E230A0E0FA0739F4E4EAF1E00E9406
:1004D000BF08E4EBF1E05AC0E330A0E0FA0739F4DA
:1004E000EEEBF1E00E94BF08ECECF1E04FC0E4302D
:1004F000A0E0FA0759F4EDEDF1E00E94BF08EEEE3E
:10050000F1E0FA93EA930E94DA0704C0E530A0E034
:10051000FA0739F4EFEFF1E00E94BF08E0E1F2E002
:1005200035C0E630A0E0FA0739F4E1E2F2E00E94DB
:10053000BF08E2E3F2E02AC0E730A0E0FA0739F4AE
:10054000E3E4F2E00E94BF08E4E5F2E01FC0E93016
:10055000A0E0FA0739F4E5E6F2E00E94BF08E6E71A
:10056000F2E014C0E830A0E0FA0739F4E7E8F2E07E
:100570000E94BF08E7E9F2E009C0EA30A0E0FA070C
:1005800019F4E8EAF2E002C0E8EBF2E0FA93EA9349
:100590000E94DA070C941908E0E0E093E902E1E038
:1005A000E093FE020895E0E0E093EA02E1E0E093E8
:1005B000FF020895A091E902A43010F00C941908EC
:1005C000E091E902F0E0E551FD4FA881A083E091C0
:1005D000E902EF5FE093E902E881EA93E091E90242
:1005E000EA9332DF0C941908A091EA02AF3010F0C0
:1005F0000C941908E091EA02F0E0E151FD4FA88166
:10060000A083E091EA02EF5FE093EA02E881EA93D7
:10061000E091EA02EA9326DF0E94C508329721F4AE
:10062000A091EA02AF3008F005C0E091EA02EF5F66
:10063000E093EA020C941908A091E902A13068F055
:10064000E091E902E150E093E902EE0FE95F0E94D8
:10065000BA08EFE5EA930E94C5070895A091EA025F
:10066000A130A0F0E091EA02E150E093EA020E949A
:10067000C508E230A0E0FA0709F40895E091EA0223
:100680000E94BA08EFE5EA930E94C50708951A93FD
:10069000E091FE02E03021F0A091E902A43010F4D4
:1006A000E0E01CC010E0143090F4E12FF0E00F0106
:1006B000E551FD4FA081F001EB51FD4FE081EA17BC
:1006C00021F0DBDE69DFE2E009C01F5FECCFDBDE9B
:1006D000E0E0E093FE02E093E902E1E01991089581
:1006E0000E944A0AE091FF02E03021F0A091EA0264
:1006F000AF3028F4E0E00E94510A0C945608C8DE9E
:10070000A091EA02AF3011F00C94CB03E091EF021C
:100710000E94CD080E94D008E091F0020E94CD080E
:10072000EA0F1E2FE091F2020E94CD080E94D0082D
:10073000E091F3020E94CD08EA0F0E2FE091F5023E
:100740000E94CD080E94D008E091F6020E94CD08D8
:10075000EA0F3E2FE091F8020E94CD080E94D008D7
:10076000E091F9020E94CD08EA0F2E2FE091FB02E2
:100770000E94CD080E94D008E091FC020E94CD08A2
:10078000EA0F5E2F1A930A933A930E94BC052A93AC
:100790005A930E94C605E0E0E093FF02E093EA026C
:1007A000E1E00E94510A0C945608EA93FA93E0E0C3
:1007B000F0E0FDBDECBDE1E0E0930003F991E991CB
:1007C0001895EEB5E460EEBDE9B7E061E9BFE0E0A1
:1007D000F0E0FBBDEABD0895E881F981662777273F
:1007E000A0E4B8E380E090E00E94D709DF01CB01EC
:1007F000E8EEF3E060E070E00E940A0A66277727DF
:100800003197FBBDEABD0C947D08E091000308958B
:10081000E881E09300030C941908AA93BA93EA9331
:10082000FA93EFB7EA93EDE8E2BF0E94D5080E9481
:10083000CE09E0930403F0930503E3B3F0E0E09501
:10084000F095EF70F070A0910403B0910503EA2BCE
:10085000FB2BE0930403F0930503E0910303F0E026
:10086000F595E795E0930303A0910303A830D1F534
:10087000E0E4E09303030E94D5083097F9F0E0919B
:100880000203E03011F0E15026C0A0910103A15015
:10089000A0930103A93039F40E94D508E093060320
:1008A000F09307031AC0E0910603F0910703A091AB
:1008B0000403B0910503EA17FB0721F0EAE0E09397
:1008C000010309C0E0910103E03039F440900403D2
:1008D00050900503E4E1E0930203E0E0E0930403B9
:1008E000E0930503E0910303E095E5BBE991EFBFD9
:1008F000F991E991B991A99118951A930A93F20186
:100900008F01309711F044245524F8010991199171
:100910000895E4B3E067E4BBE5B3EF67E5BBE3B795
:10092000E460E3BFE2B7ED68E2BFE9B7E160E9BFC9
:1009300008951A9310E01C3088F4E12FA1E0B0E094
:100940000E94C509A981BA81EA23FB23309721F0CF
:10095000E12F18810C946B081F5FEDCF18810C9468
:100960006B080E944C0AC9DF8F01309711F40C9478
:100970001A051A930A93DDDF3E2F0E94DA082491AC
:100980002C3349F4AC81A33019F40E942E0352C0D9
:100990000E941C034FC02332E9F5AC81A33069F4F7
:1009A0000E947003E09309030E94DF08A0910903ED
:1009B000A13011F40E94E2083DC00E944703E09379
:1009C00008030E94DF08A0910803A23031F4EC81F3
:1009D000EA930E94DE015AD01CC0A0910803A13006
:1009E000C1F4AC81A43019F40E94E20812C0E4E022
:1009F000EA930E94DE010E94B807ECECF2E00E944C
:100A0000BF08E8EDF2E0FA93EA930E94DA070E9449
:100A1000DF0810C0AC81A33039F40E94DA08E491F9
:100A2000EA930E94F40206C00E94DA08E491EA9375
:100A30000E94DA020E94530A25960895E5B5EC61FA
:100A4000E5BD8F9A08951A93E981FA81309721F4D0
:100A50008F9818810C946B088F9AE981FA81662728
:100A60007727A0E8B0E080E090E00E94D709A0E0FE
:100A7000B0E081EE90E00E940A0AE150F040604050
:100A800070401E2F13BD18810C946B08E4E6F0E053
:100A9000FA93EA930E94EC030E940504E03039F0D7
:100AA000E0E0EA930E940804E2ECF1E002C0E0E03A
:100AB000F0E0FA93EA93C7DF0895E7B3E06CE7BB91
:100AC000EBB7E06CEBBFE5B7EE60E5BF0895EA93E6
:100AD000EFB7689426F8EFBFE9911895E0E0EA9344
:100AE000E1E0EA93E0E0EA930E941B08E1B3E1BB96
:100AF000929A089522970E944A0AE6E0F0E0FA935B
:100B0000EA930E9471088F01EDB7FEB7FA93EA935A
:100B10003F93EDB7FEB7FA93EA932F93EDB7FEB785
:100B2000FA93EA935F930E9448085F912F913F9157
:100B3000EDB7FEB7FA93EA934F93FE013996FA9315
:100B4000EA93FE013A96FA93EA930E9430084F9195
:100B5000E52FD801EC93F801218332834383EF81A1
:100B6000D8011496EC93EE81D8011596EC93F80118
:100B70000E94510A28960895EA81EA93EA81EA934D
:100B8000EA81EA930E9458080C946B08E981EA9381
:100B9000E981EA93E0E0EA930E943C080C947D0826
:100BA000E0E0EBB9E8E0EAB9E6E8E0BDE0E0E0BDAE
:100BB000EFE2E9B908950E944C0A9CDF8F010E9480
:100BC00015023E2FEEEDF1E0FA93EA93F801E2818F
:100BD0000E94EA08F801E1810E94EA08D801EC913C
:100BE0000E94EA08F801E3810E94EA08F801E48122
:100BF0000E94EA08F801E5810E94EA08E32F0E94BA
:100C0000EA088CE10E9454076E961A930A930E9498
:100C100074080E94530A0C946F085D9BFECFE88114
:100C2000ECB90C941908EA81EA93F7DFA881B9813D
:100C3000ED91FD913196FE93EE930C946B082697FF
:100C40000E944A0A10E0AC85BD85E0E0F0E0ED933B
:100C5000FC93EA89FB893196EA8BFB8B3197E4910F
:100C60002E2FE03011F40C944C07E12FE03039F4D2
:100C7000253211F411E002C00E94F0080CC1E130ED
:100C8000A9F4253219F40E94F00804C112E040E0F2
:100C900000E02D3211F401E0FEC02B3211F44BE2E2
:100CA000FAC0203211F440E2F6C002C0E23039F45A
:100CB00050E013E0203311F40068EDC004C0E330CD
:100CC00011F00C944B07203310F02A3308F007C0C2
:100CD000AAE05A9F502DE22FE0535E0FDCC0E22FB6
:100CE000E33649F40E94F908E889F989A481AA93B6
:100CF0000E94FF08CFC0E33741F40E94F9080E9428
:100D000007090E947F081E2F0AC0E03761F40E9485
:100D1000F9080E9407090E9489081E2F08600260D6
:100D20000F7730E035C0E43611F0E93611F4046095
:100D300002C0E53731F4E0E6F0E0EE83FF8315E032
:100D40000DC0E83511F4086004C0E83711F00C94C8
:100D50004A07EAE6F0E0EE83FF8314E002FF14C0E6
:100D60000E94F9080E941109AB85AA233AF4EA858A
:100D7000FB850E94C109EA87FB874DE2403011F0F4
:100D80001F5F01C00B7F04C00E94F9080E94110977
:100D900000FD11C0151778F407FF08C002FF04C05A
:100DA0000B7F242F115001C020E301C020E20E94DC
:100DB000F0085150EFCF312F01FF17C03030A1F0B4
:100DC00003FF06C0EE81FF812591EE83FF8305C0FE
:100DD000AE81BF812D91AE83BF830E94F008503059
:100DE00009F051503150EACF4BC020E3EE81FF8132
:100DF0000E94410AE887F987EE81FF813296EE83EF
:100E0000FF83E885F985AA85BB85AE17BF0750F03B
:100E10002F5FA885B985EA85FB85EA1BFB0BEA876E
:100E2000FB87EFCF2A3328F003FF02C0295F01C000
:100E3000295D04FD1AC0213320F4A885B9851197D6
:100E400009F409C0531710F000FF01C013C020E2DD
:100E500007FF0BC020E3006102FF07C00B7F4A932E
:100E60000E94FF08503009F051500E94F0085030A5
:100E700009F051503150A885B985129708F0B5CFC7
:100E800000FF08C0503031F05150E0E2EA930E9478
:100E9000FF08F8CF10E0DDCEAC85BD850E943D0A8D
:100EA0000E94510A64960895FF92F82E26971A938D
:100EB0000A93DE0114960E94BD098D01E0E0EC83E7
:100EC000ED83EE83EF83DE0118960E94BD090E9438
:100ED0003D0AFA93EA931A930A93E3E1F6E0FA9350
:100EE000EA93FE013896FA93EA93A9DE1981088104
:100EF0002896FF900895E881E07111F0DC9A01C016
:100F0000DC98E881E07211F0DD9A01C0DD98E8819B
:100F1000E07411F0DE9A01C0DE98E881E07811F00B
:100F2000DF9A01C0DF988AE08A95F1F7DA9A89E1C1
:100F30008A95F1F7DA9889E18A95F1F77AC0E88124
:100F4000EA93D9DFE881E295E883E881EA93D3DF89
:100F500086EF8A95F1F76DC00E94B708E45FFC4FF9
:100F6000E081A981EA0FEA93EADF79806880C5C051
:100F7000E2E00E941909ECE0EA93E1DFE1E00E947F
:100F80001909E0E06E2E7E2E0895A881AA3011F096
:100F9000791448F0E0E0EA9363946A92DDDFA88177
:100FA000AA3009F446C07394D89AE881EA93C7DF5F
:100FB000D8983FC01A93A981BA81ED91A983BA83C9
:100FC0001E2FE03019F01A93E0DFF5CF188183C0AF
:100FD000D49AD59AD69AD79AD29AD09AD19ADA98A0
:100FE000D898D9989880E881E058E0930E03E8817A
:100FF000E054E0930F03E4E1F0E00E94A9080E94AE
:101000001F090E941F090E941F09E0E2EA9373DF93
:1010100081E791E00197F1F7E8E2EA9390DFE4E0FD
:10102000EA938DDFE5E8EA938ADFE6E0EA9387DF7B
:101030009FDF21960895EA81E370EA83E981E03039
:1010400019F0EA81E061EA83E881E03019F0EA8191
:10105000E068EA830E942809E7E00E942E0936C072
:101060000E942809E0E00E943309A881B9810E940A
:101070004309AC81BD8117C00E942809E0E0EA93D2
:101080000E949809E8810E9455090E942E091BC000
:101090000E942809E4E00E943309AC81BD810E94CE
:1010A0004309A881B981EC930E947309269608959B
:1010B0000E942809E4E00E942E090E945509EA9343
:1010C0000E949809E881EA930E94A008EA930E948E
:1010D00098090E94730923960895E0E0F0E02496B1
:1010E0000895E0E0F0E009C0E881F981FA93EA931D
:1010F000E0E0F0E0FA93EA93F0DF22960895A991F8
:10110000B991EE27FF276D91662311F03196FBCF41
:101110000895AA27BB27E991F9910590002011F0C5
:101120001196FBCFFD010895E881E295EF70AE2F97
:10113000AA0FAA0FEA0FEE0FA991AF70EA0F089558
:10114000A991EE27AA5012F0E05FFCCFA65FEA0F4C
:101150000895FA93EA930C94B109E881F0E031978D
:10116000EE0FE95FEA93E1E0EA930C94AC07E881C3
:10117000F0E00895EA93E1E0EA930C94AC07FA9367
:10118000EA930E94DA07E0E0F5CFA091EA02BB27DC
:10119000E3E0F0E00E942F0A0895F0E0F097089550
:1011A000AAE0EA02F001AE2F0895E0910403F09165
:1011B00005030895E32FF0E0EC5AFF4F0895E8EEA1
:1011C000F3E0C7CFE2E0EA930E945102E2E0EA9343
:1011D0000C94DE01FF27662777270E94450A0895B1
:1011E0002A93ED85FE85FA93EA93E989FA890995B0
:1011F0000895E889F9893497E88BF98B0895ED858E
:10120000FE85FA93EA93E989FA8909950895A889F0
:10121000B98914960E943D0AEE83FF83FA93EA93FC
:101220000895A889B98914960E943D0AEA87FB8728
:101230000895EA930E949F07E3E0F0E08ACFE0E39D
:10124000EA930E947B0781E791E00197F1F7089507
:101250000E946409E0EDEA930C949809EA930E94D5
:101260009809EA810895EA930E9498090E94640906
:10127000E1EDEA930E949809E1E0EA930E947D097A
:10128000EA930C949408EC93E1E0EA930E947D09C0
:10129000EA930E949408AA81BB81EC93E0E0EA9370
:1012A0000E947D09EA930C949408EA930E94A00896
:1012B000EA930E949809E981EA930C94A008C498E3
:1012C000C398BC9ABB9815C0BB98BC98EE27000089
:1012D000B39B0895B49B089504D0BB9A02D0BC9AE6
:1012E000E1E069E107C0BB9ABC9A03D0BC98F9DF82
:1012F000BB9861E36A95F1F7089578E0BC98F1DF57
:10130000B49BFECFEEDF8894B3990894BC9AF1DFCA
:10131000EE1F7A9599F77991772311F4BB9801C064
:10132000BB9ADFDFBC98E5DFBC9ADBDFBB98D9CF87
:10133000E99178E0EE0F10F4BB9801C0BB9AD9DFB9
:10134000BC98CFDFB49BFECFCCDFBC9A7A9591F7E7
:10135000BB98C7DFBC98CDDFE1E0B399EE27BC9A1C
:10136000C0CFE991F991309639F086E69EE0019779
:10137000F1F7A8953197C9F708950024AF0DB01D76
:101380000895F195E195F0400895EE230E2EFD01AC
:1013900021F0EE0FFF1F0A94E1F70895EE0FFF1FF3
:1013A000EE0FFF1FEE0FFF1FEE0FFF1F08957A9F36
:1013B000702D6B9F700DF89F700DE99F700D6A9FE7
:1013C000602D710DFB9F600D711DE89F600D711DFB
:1013D0008827FA9FF02D610D781FEB9FF00D611D9E
:1013E000781FEA9FE02DF10D681F781F08950024F3
:1013F000112490E1AA0FBB1F001C111C0E1A1F0A1A
:1014000018F40E0E1F1E01C0A1609A9599F7FD01F8
:10141000D00108953F934F935F93002411244427F4
:10142000552730E2AA0FBB1F881F991F001C111CF3
:10143000441F551F0E1A1F0A460B570B28F40E0E99
:101440001F1E461F571F01C0A1603A9559F7FD01A5
:10145000BC01D001CA015F914F913F910895E8947A
:10146000B7FF04C0A095B09511966894F7FD89DF89
:10147000BEDFFD010EF485DF0895ED91FC9111971B
:1014800008950590F491E02D08957A936A93FA9364
:10149000EA9308955A934A933A932A931A930A9394
:1014A00008955D814C813B812A81198108810895CD
:00000001FF
