:020000000C945E
:1000020060010C9400000C94F4050C9400000C9414
:1000120000000C9400000C94D2030C9400000C9489
:1000220000000C940A040C9400000C9400000C9440
:1000320000000C9400000C9400000C9400000C943E
:1000420000000C9400000C9400000C9400000C942E
:1000520000003134373C32353830333639231027FB
:10006200E80364000A000100001000011000010012
:10007200090053656E686120496E636F7272657420
:10008200610053656E686120436F7272657461002E
:100092004461746120736574616461004C696761D5
:1000A2006E646F2E2E2E0053697374656D6120414C
:1000B200726D61646F0041726D616E646F2073696D
:1000C2007374656D61002020202020202E2E2E00CA
:1000D20044617461206520486F72613A20005F5F5D
:1000E2002F5F5F2F5F5F205F5F3A5F5F20200041DD
:1000F20074697665206F2073697374656D613A0067
:1001020053656E68613A205F205F205F205F202088
:1001120000416C657274613A20496E747275736144
:100122006F00416C657274613A2050726573656E3E
:10013200636100416C657274613A20496E63656E59
:1001420064696F0053757065726171756563696D7D
:10015200656E746F00416C657274613A20496E7607
:100162006173616F004572726F206E6F2053697305
:1001720074656D610045737461646F2044657363D7
:100182006F6E68656369646F0000323233343030F9
:1001920030303030303030303030303030000A00E3
:1001A20040002020202053697374656D6100202077
:1001B20044657361726D61646F00BC022B027661EB
:1001C2006C6F72206C69646F3A2025640D0A00001E
:1001D2000D0A25642F25642F25642025643A2564A1
:1001E2003A25642C25642C0080C001002D4E414E1E
:1001F20000494E460000010002007200100060013A
:1002020074000E00700184000C007E0192000B004D
:100212008A019E000F009501A9001000A401B800F8
:100222000A00B401C8000E00BE01D2001100CC01C8
:10023200E0001100DD01F1001100EE0102011100E8
:10024200FF01130111001002020111002102240119
:100252001100320202011100430235011100540261
:10026200020111006502460111007602020110002E
:10027200870257011100970202011000A8026701CC
:100282001400B80277010400E6028C010F00F002AC
:10029200900101000403A00101000603A2010C0069
:1002A200CC02A4010C00D802B00104000F03BC016F
:1002B20002001603EA0101001A03EC010000F8949F
:1002C200EE27ECBBF1E0FBBFEBBFE5BFF8E1F1BD10
:1002D200E1BD8DE0A2E0BB27ED938A95E9F780E0CE
:1002E20094E0A0E6ED930197E9F7E8EFF1E085915C
:1002F2009591009761F0A591B59105901590BF0178
:10030200F00105900D920197E1F7FB01F0CFEFE5C7
:10031200EDBFE4E0EEBFC0E6D1E00C94900108D05E
:1003220018D0859903C0E6E0EA9338D0F9CFFFCF21
:100332007FD00E9447060E94A9060E9490040E9454
:10034200DE030E94EA050E9429050E94600A789451
:10035200089520FE12C0E091E402EA93A2D0E09157
:10036200E402E03041F4E8E8F3E10E948209E3E0CC
:10037200EA9314D00895E89420F821FE05C0E09194
:10038200E402EA930E94BE0422FE02C00E94FB0520
:10039200E091E402EA930E94D1050895E091E4021B
:1003A200E093E502E881E093E402A091E402A33045
:1003B20011F0A03009F401C032D0689420F8A8816D
:1003C200A53051F0A63041F0A73031F0A93021F02C
:1003D200A43011F0A83049F4689421F8E89422F886
:1003E2000E94B804D8D0DED00AC0A881A33029F474
:1003F200689421F8D7D0CFD002C0E89421F8A88120
:10040200A23049F4E0E1F7E20E948209E1E0E093E0
:10041200E402689422F8E8C0E091E4020895E091D1
:10042200E402A091E502EA1711F00E94B4060895D1
:10043200D29AE0E1EA930E94C108DB9AE0E0EA93F3
:10044200EA930E94850808950E948609E981EA9349
:100452000E949E08E4EFF1E00E9482090E94860950
:10046200EAE206C00E94900931970E949309E9814D
:10047200EA930E949E0822960895E0E00E94930962
:10048200E0E6F1E009C00E949108E0E7F1E004C073
:100492000E949108EEE7F1E0FA93EA930E94B30812
:1004A20008950E9491080E949009309719F4EAE891
:1004B200F1E06CC0E130A0E0FA0719F4E5E9F1E0FF
:1004C20065C0E230A0E0FA0739F4E4EAF1E00E9404
:1004D2009809E4EBF1E05AC0E330A0E0FA0739F4FE
:1004E200EEEBF1E00E949809ECECF1E04FC0E43051
:1004F200A0E0FA0759F4EDEDF1E00E949809EEEE62
:10050200F1E0FA93EA930E94B30804C0E530A0E058
:10051200FA0739F4EFEFF1E00E949809E0E1F2E026
:1005220035C0E630A0E0FA0739F4E1E2F2E00E94D9
:100532009809E2E3F2E02AC0E730A0E0FA0739F4D2
:10054200E3E4F2E00E949809E4E5F2E01FC0E9303A
:10055200A0E0FA0739F4E5E6F2E00E949809E6E73E
:10056200F2E014C0E830A0E0FA0739F4E7E8F2E07C
:100572000E949809E7E9F2E009C0EA30A0E0FA0730
:1005820019F4E8EAF2E002C0E8EBF2E0FA93EA9347
:100592000E94B30829C0E0E0E093EA02E1E0E093C0
:1005A200FF020895E0E0E093EB02E1E0E093000354
:1005B2000895A091EA02A430B8F4E091EA02F0E0D2
:1005C200E451FD4FA881A083E091EA02EF5FE0933E
:1005D200EA02E881EA93E091EA02EA9335DF04C095
:1005E200A091EB02AF3010F021960895E091EB025A
:1005F200F0E0E051FD4FA881A083E091EB02EF5FB4
:10060200E093EB02E881EA93E091EB02EA932ADFBE
:100612000E949E09329721F4A091EB02AF3008F0BC
:1006220005C0E091EB02EF5FE093EB020C94F2085D
:10063200A091EA02A13068F0E091EA02E150E09371
:10064200EA02EE0FE95F0E949309EFE5EA930E9446
:100652009E080895A091EB02A130A0F0E091EB0278
:10066200E150E093EB020E949E09E230A0E0FA071B
:1006720009F40895E091EB020E949309EFE5EA93F1
:100682000E949E0808951A93E091FF02E03021F043
:10069200A091EA02A43010F4E0E01CC010E0143093
:1006A20090F4E12FF0E00F01E451FD4FA081F00141
:1006B200EA51FD4FE081EA1721F0DFDE6CDFE2E074
:1006C20009C01F5FECCFDFDEE0E0E093FF02E093C2
:1006D200EA02E1E0199108950E944B0BE0910003B8
:1006E200E03021F0A091EB02AF3028F4E0E00E946C
:1006F200520B26960895CCDEA091EB02AF3011F09A
:100702000C94C803E091F0020E94A6090E94A90974
:10071200E091F1020E94A609EA0F1E2FE091F30276
:100722000E94A6090E94A909E091F4020E94A6096A
:10073200EA0F0E2FE091F6020E94A6090E94A90973
:10074200E091F7020E94A609EA0F3E2FE091F9021A
:100752000E94A6090E94A909E091FA020E94A60934
:10076200EA0F2E2FE091FC020E94A6090E94A9091D
:10077200E091FD020E94A609EA0F5E2F1A930A93E6
:100782003A930E9495062A935A930E949F06E0E0AC
:10079200E0930003E093EB02E1E00E94520B0C9421
:1007A2002F09EA93FA93E0E0F0E0FDBDECBDE1E051
:1007B200E0930103F991E9911895EEB5E460EEBD7D
:1007C200E9B7E061E9BFE0E0F0E0FBBDEABD089512
:1007D200E881F98166277727A0E4B8E380E090E01A
:1007E2000E94D80ADF01CB01E8EEF3E060E070E09E
:1007F2000E940B0B662777273197FBBDEABD0C944D
:100802005609E09101030895E881E09301030C94F5
:10081200F208AA93BA93EA93FA93EFB7EA93EDE850
:10082200E2BF0E94AE090E94CF0AE0930703F09351
:100832000803E3B3F0E0E095F095EF70F070A0915B
:100842000703B0910803EA2BFB2BE0930703F09315
:100852000803E0910603F0E0F595E795E0930603BF
:10086200A0910603A83011F00C947304E0E4E09325
:1008720006030E94AE093097F9F0E0910503E030DB
:1008820011F0E15028C0A0910403A150A0930403E9
:10089200A93039F40E94AE09E0930903F0930A03E8
:1008A2001CC0E0910903F0910A03A0910703B091E3
:1008B2000803EA17FB0721F0EAE0E09304030BC008
:1008C200E0910403E03049F40E94AE09E093020390
:1008D200F0930303E4E1E0930503E0E0E093070310
:1008E200E0930803E0910603E095E5BBE991EFBFD1
:1008F200F991E991B991A99118951A930A93E09106
:100902000203F09103038F01309729F0E0E0E093B6
:100912000203E0930303F801099119910895E4B3E6
:10092200E067E4BBE5B3EF67E5BBE3B7E460E3BFD1
:10093200E2B7ED68E2BFE9B7E160E9BF08951A9353
:1009420010E01C3088F4E12FA1E0B0E00E94C60A5A
:10095200A981BA81EA23FB23309721F0E12F188184
:100962000C9444091F5FEDCF18810C944409E0E018
:10097200E0930203E093030308950E944D0BBDDF51
:100982008F01309711F40C9425051A930A93D7DF3F
:100992003E2F0E94B30924912C3349F4AC81A33039
:1009A20019F40E942B0350C00E9419034DC0233238
:1009B200D9F5AC81A33059F40E946D03E0930C0386
:1009C200A0910C03A13011F40E94B8093DC00E940D
:1009D2004403E0930B03A0910B03A23031F4EC81AA
:1009E200EA930E94CF01C7D01EC0A0910B03A13091
:1009F200D1F4AC81A43019F40E94B80914C0E4E027
:100A0200EA930E94CF010E949108ECECF2E00E946E
:100A12009809E8EDF2E0FA93EA930E94B308E8EE4F
:100A2200F3E00E94820910C0AC81A33039F40E9425
:100A3200B309E491EA930E94F10206C00E94B3094D
:100A4200E491EA930E94DA020E94540B25960895DB
:100A5200E5B5EC61E5BD8F9A08951A93E981FA81B3
:100A6200309721F48F9818810C9444098F9AE98168
:100A7200FA8166277727A0E8B0E080E090E00E9444
:100A8200D80AA0E0B0E081EE90E00E940B0BE150AA
:100A9200F040604070401E2F13BD18810C94440931
:100AA2000E94C009F9F00E94CA0923FE0CC00E94EC
:100AB200CE093A960E94D309A837E5E0BE0710F0A6
:100AC200E89423F80BC00E94CE093A970E94D309FA
:100AD200A935E2E0BE0710F4689423F80E94CE091B
:100AE2000E94DC0908950E94C009C9F10E94CA0946
:100AF20024FC18C00E94E009ED91FD913596FE9309
:100B0200EE930E94E0090E943E0BE43EA2E0FA0747
:100B120040F0689424F8ECEBF2E0E0930F03F093DA
:100B2200100317C00E94E009ED91FD913597FE93E5
:100B3200EE930E94E0090E943E0BE83CA1E0FA0716
:100B420040F4E89424F8E1E1F3E0ABE2B2E0A08300
:100B5200B1830E94E0090E943E0B0E94DC090895C5
:100B6200E0E0F0E00E94DC09E0E0F0E0FA93EA93D2
:100B72000E94E9030895E4E6F0E0FA93EA930E9402
:100B8200E9030E940204E03029F00E94CA09E2EC63
:100B9200F1E002C0E0E0F0E0FA93EA935EDF08954C
:100BA2000E949009E630A0E0FA0721F0E530A0E0CB
:100BB200FA0711F475DF0BC0E930A0E0FA0721F063
:100BC200E730A0E0FA0711F48EDF01C0C9DF0C9410
:100BD200F208E7B3E7BBC79AEBB7E064EBBFE5B750
:100BE200EC60E5BF0895EA93EFB7689425F8EFBF8C
:100BF200E9911895E0E0B699E1E0E0931303E0E0B3
:100C0200B79BE1E0E0931403E0E0B599E1E0E09303
:100C12001503E0ECF1E0FA93EA93E09115030E94E8
:100C2200EB0984E00E942D082696E0911303E03040
:100C320041F0E0911503E03021F0E0911403E0303F
:100C420009F402C0E7E01CC0E0911303E03011F0A8
:100C5200E7E016C0E0911503E03021F0E0911403C3
:100C6200E03009F402C0E8E00BC0E0911403E03088
:100C720011F0E5E005C0E0911503E03021F0E6E077
:100C8200EA930E94CF01E89425F80895E0E0EA9300
:100C9200E1E0EA93E0E0EA930E94F408E1B3E1BB09
:100CA200929A089522970E944B0BE6E0F0E0FA93A5
:100CB200EA930E944A098F01EDB7FEB7FA93EA93CD
:100CC2003F93EDB7FEB7FA93EA932F93EDB7FEB7D2
:100CD200FA93EA935F930E9421095F912F913F91CA
:100CE200EDB7FEB7FA93EA934F93FE013996FA9362
:100CF200EA93FE013A96FA93EA930E9409094F9108
:100D0200E52FD801EC93F801218332834383EF81ED
:100D1200D8011496EC93EE81D8011596EC93F80164
:100D22000E94520B28960895EA81EA93EA81EA9397
:100D3200EA81EA930E9431090C944409E981EA9319
:100D4200E981EA93E0E0EA930E9415090C945609BE
:100D5200E0E0EBB9E8E0EAB9E6E8E0BDE0E0E0BDFA
:100D6200EFE2E9B908950E944D0B9CDF8F010E94CA
:100D72000D023E2FE2EDF1E0FA93EA93F801E281EF
:100D82000E94EB09F801E1810E94EB09D801EC9184
:100D92000E94EB09F801E3810E94EB09F801E4816A
:100DA2000E94EB09F801E5810E94EB09E32F0E9402
:100DB200EB098CE10E942D086E961A930A930E9409
:100DC2004D090E94540B0C9448095D9BFECFE881AB
:100DD200ECB90C94F208EA81EA93F7DFA881B981B1
:100DE200ED91FD913196FE93EE930C944409269772
:100DF2000E944B0B10E0AC85BD85E0E0F0E0ED9386
:100E0200FC93EA89FB893196EA8BFB8B3197E4915B
:100E12002E2FE03011F40C942508E12FE03039F444
:100E2200253211F411E002C00E94F1090CC1E13037
:100E3200A9F4253219F40E94F10904C112E040E03C
:100E420000E02D3211F401E0FEC02B3211F44BE22E
:100E5200FAC0203211F440E2F6C002C0E23039F4A6
:100E620050E013E0203311F40068EDC004C0E33019
:100E720011F00C942408203310F02A3308F007C034
:100E8200AAE05A9F502DE22FE0535E0FDCC0E22F02
:100E9200E33649F40E94FA09E889F989A481AA9300
:100EA2000E94000ACFC0E33741F40E94FA090E946F
:100EB200080A0E9458091E2F0AC0E03761F40E94F6
:100EC200FA090E94080A0E9462091E2F0860026045
:100ED2000F7730E035C0E43611F0E93611F40460E2
:100EE20002C0E53731F4E0E6F0E0EE83FF8315E07F
:100EF2000DC0E83511F4086004C0E83711F00C9415
:100F02002308EAE6F0E0EE83FF8314E002FF14C058
:100F12000E94FA090E94120AAB85AA233AF4EA85D2
:100F2200FB850E94C20AEA87FB874DE2403011F03E
:100F32001F5F01C00B7F04C00E94FA090E94120ABF
:100F420000FD11C0151778F407FF08C002FF04C0A6
:100F52000B7F242F115001C020E301C020E20E9428
:100F6200F1095150EFCF312F01FF17C03030A1F0FE
:100F720003FF06C0EE81FF812591EE83FF8305C04A
:100F8200AE81BF812D91AE83BF830E94F1095030A3
:100F920009F051503150EACF4BC020E3EE81FF817E
:100FA2000E94420BE887F987EE81FF813296EE8339
:100FB200FF83E885F985AA85BB85AE17BF0750F088
:100FC2002F5FA885B985EA85FB85EA1BFB0BEA87BB
:100FD200FB87EFCF2A3328F003FF02C0295F01C04D
:100FE200295D04FD1AC0213320F4A885B985119723
:100FF20009F409C0531710F000FF01C013C020E22A
:1010020007FF0BC020E3006102FF07C00B7F4A937A
:101012000E94000A503009F051500E94F1095030EC
:1010220009F051503150A885B985129708F0B5CF13
:1010320000FF08C0503031F05150E0E2EA930E94C4
:10104200000AF8CF10E0DDCEAC85BD850E943E0BD4
:101052000E94520B64960895FF92F82E26971A93D7
:101062000A93DE0114960E94BE0A8D01E0E0EC8331
:10107200ED83EE83EF83DE0118960E94BE0A0E9482
:101082003E0BFA93EA931A930A93ECEEF6E0FA9384
:10109200EA93FE013896FA93EA93A9DE1981088150
:1010A2002896FF900895E881E07111F0DC9A01C062
:1010B200DC98E881E07211F0DD9A01C0DD98E881E8
:1010C200E07411F0DE9A01C0DE98E881E07811F058
:1010D200DF9A01C0DF988AE08A95F1F7DA9A89E10E
:1010E2008A95F1F7DA9889E18A95F1F77AC0E88171
:1010F200EA93D9DFE881E295E883E881EA93D3DFD6
:1011020086EF8A95F1F76DC00E949009EA5EFC4F66
:10111200E081A981EA0FEA93EADF59804880C5C0DD
:10112200E2E00E941A0AECE0EA93E1DFE1E00E94C9
:101132001A0AE0E04E2E5E2E0895A881AA3011F020
:10114200571448F0E0E0EA9343944A92DDDFA88125
:10115200AA3009F446C05394D89AE881EA93C7DFCB
:10116200D8983FC01A93A981BA81ED91A983BA8315
:101172001E2FE03019F01A93E0DFF5CF188183C0FB
:10118200D49AD59AD69AD79AD29AD09AD19ADA98EC
:10119200D898D9987880E881E058E0931803E881DC
:1011A200E054E0931903E4E1F0E00E9482090E9416
:1011B200200A0E94200A0E94200AE0E2EA9373DFDA
:1011C20081E791E00197F1F7E8E2EA9390DFE4E04A
:1011D200EA938DDFE5E8EA938ADFE6E0EA9387DFC8
:1011E2009FDF21960895EA81E370EA83E981E03086
:1011F20019F0EA81E061EA83E881E03019F0EA81DE
:10120200E068EA830E94290AE7E00E942F0A36C0BA
:101212000E94290AE0E00E94340AA881B9810E9452
:10122200440AAC81BD8117C00E94290AE0E0EA931A
:101232000E94990AE8810E94560A0E942F0A1BC046
:101242000E94290AE4E00E94340AAC81BD810E9416
:10125200440AA881B981EC930E94740A26960895E3
:101262000E94290AE4E00E942F0A0E94560AEA9389
:101272000E94990AE881EA930E947909EA930E94FE
:10128200990A0E94740A23960895E0E0F0E02496F9
:101292000895E0E0F0E009C0E881F981FA93EA9369
:1012A200E0E0F0E0FA93EA93F0DF22960895A99144
:1012B200B991EE27FF276D91662311F03196FBCF8E
:1012C2000895AA27BB27E991F9910590002011F012
:1012D2001196FBCFFD010895E881E295EF70AE2FE4
:1012E200AA0FAA0FEA0FEE0FA991AF70EA0F0895A5
:1012F200A991EE27AA5012F0E05FFCCFA65FEA0F99
:101302000895FA93EA930C94B20AE881F0E03197D7
:10131200EE0FE95FEA93E1E0EA930C948508E88135
:10132200F0E00895EA93E1E0EA930C948508FA93D9
:10133200EA930E94B308E0E0F5CFA091EB02BB274D
:10134200E3E0F0E00E94300B0895F0E0F09708959A
:10135200AAE0EA02F001AE2F0895E0910703F091AE
:1013620008030895E32FF0E0EC5AFF4F0895E2E0FE
:10137200EA930E945202E2E0EA930C94CF01E4E184
:10138200F0E0FA93EA930E94E9030E940204E0303B
:101392000895E0E0EA930C940504E0910D03F091C6
:1013A2000E030895E0930D03F0930E03A0910D0335
:1013B200B0910E030895FA93EA930C942E05E0E09F
:1013C20024FCE1E0AFE0B3E0F0E0EE0FFF1FAE0F70
:1013D200BF1F0895FF27662777270E94460B0895AF
:1013E2002A93ED85FE85FA93EA93E989FA890995AC
:1013F2000895E889F9893497E88BF98B0895ED858A
:10140200FE85FA93EA93E989FA8909950895A889EC
:10141200B98914960E943E0BEE83FF83FA93EA93F6
:101422000895A889B98914960E943E0BEA87FB8722
:101432000895EA930E947808E3E0F0E062CFE0E3E7
:10144200EA930E94540881E791E00197F1F7089529
:101452000E94650AE0EDEA930C94990AEA930E94CD
:10146200990AEA810895EA930E94990A0E94650AFC
:10147200E1EDEA930E94990AE1E0EA930E947E0A72
:10148200EA930C946D09EC93E1E0EA930E947E0AE0
:10149200EA930E946D09AA81BB81EC93E0E0EA9392
:1014A2000E947E0AEA930C946D09EA930E947909DC
:1014B200EA930E94990AE981EA930C947909C49803
:1014C200C398BC9ABB9815C0BB98BC98EE27000085
:1014D200B39B0895B49B089504D0BB9A02D0BC9AE2
:1014E200E1E069E107C0BB9ABC9A03D0BC98F9DF7E
:1014F200BB9861E36A95F1F7089578E0BC98F1DF53
:10150200B49BFECFEEDF8894B3990894BC9AF1DFC6
:10151200EE1F7A9599F77991772311F4BB9801C060
:10152200BB9ADFDFBC98E5DFBC9ADBDFBB98D9CF83
:10153200E99178E0EE0F10F4BB9801C0BB9AD9DFB5
:10154200BC98CFDFB49BFECFCCDFBC9A7A9591F7E3
:10155200BB98C7DFBC98CDDFE1E0B399EE27BC9A18
:10156200C0CFE991F991309639F086E69EE0019775
:10157200F1F7A8953197C9F708950024AF0DB01D72
:101582000895F195E195F0400895EE230E2EFD01A8
:1015920021F0EE0FFF1F0A94E1F70895EE0FFF1FEF
:1015A200EE0FFF1FEE0FFF1FEE0FFF1F08957A9F32
:1015B200702D6B9F700DF89F700DE99F700D6A9FE3
:1015C200602D710DFB9F600D711DE89F600D711DF7
:1015D2008827FA9FF02D610D781FEB9FF00D611D9A
:1015E200781FEA9FE02DF10D681F781F08950024EF
:1015F200112490E1AA0FBB1F001C111C0E1A1F0A16
:1016020018F40E0E1F1E01C0A1609A9599F7FD01F4
:10161200D00108953F934F935F93002411244427F0
:10162200552730E2AA0FBB1F881F991F001C111CEF
:10163200441F551F0E1A1F0A460B570B28F40E0E95
:101642001F1E461F571F01C0A1603A9559F7FD01A1
:10165200BC01D001CA015F914F913F910895E89476
:10166200B7FF04C0A095B09511966894F7FD89DF85
:10167200BEDFFD010EF485DF0895ED91FC91119717
:1016820008950590F491E02D08957A936A93FA9360
:10169200EA9308955A934A933A932A931A930A9390
:1016A20008955D814C813B812A81198108810895C9
:00000001FF
