:0C0000000C9432010C9400000C940000E1
:10000C000C9400000C9400000C9400000C941B0346
:10001C000C9400000C9400000C9452030C940000FF
:10002C000C9400000C9400000C9400000C94000044
:10003C000C9400000C9400000C9400000C94000034
:10004C000C9400000C9400003134373C32353830BD
:10005C00333639231027E80364000A00010000102E
:10006C00000110000100050053656E686120496EA7
:10007C00636F72726574610053656E686120436FC3
:10008C00727265746100446174612073657461649B
:10009C0061004C6967616E646F2E2E2E005369737C
:1000AC0074656D612041726D61646F0041726D61A8
:1000BC006E646F2073697374656D61004461746163
:1000CC00206520486F72613A20005F5F2F5F5F2FC1
:1000DC005F5F205F5F3A5F5F202000417469766547
:1000EC00206F2073697374656D613A0053656E6897
:1000FC00613A205F205F205F205F202000416C650B
:10010C007274613A20496E74727573616F00416C40
:10011C00657274613A2050726573656E636100415B
:10012C006C657274613A20496E63656E64696F0028
:10013C0053757065726171756563696D656E746F09
:10014C0000416C657274613A20496E766173616F1F
:10015C00004572726F206E6F2053697374656D6108
:10016C000045737461646F20446573636F6E6865DA
:10017C006369646F0000323233340A00400020207F
:10018C00202053697374656D610020204465736190
:10019C00726D61646F00BC022B0280C00100020012
:1001AC0072001000600174000E00700184000C00DD
:1001BC007E0192000B008A019E000F009501A900A0
:1001CC001000A401B8000400B401A5000E00B80191
:1001DC00C8001100C601D6001100D701E7001100BC
:1001EC00E801F8001100F901090111000A02F800F8
:1001FC0011001B021A0111002C02F80011003D0223
:10020C002B0111004E02F80011005F023C0111009D
:10021C007002F800100081024D0111009102F800EB
:10022C001000A2025D011400B2026D010400DF0295
:10023C0082010100FA0286010100FC0288010C0017
:10024C00C6028A010C00D202960104000503A20129
:10025C0002000903A6010000F894EE27ECBBF1E0C4
:10026C00FBBFEBBFE5BFF8E1F1BDE1BD8DE0A2E066
:10027C00BB27ED938A95E9F780E094E0A0E6ED9337
:10028C000197E9F7E8EAF1E085919591009761F023
:10029C00A591B59105901590BF01F00105900D92B7
:1002AC000197E1F7FB01F0CFEFE5EDBFE4E0EEBF26
:1002BC00C0E6D1E00C9462010DD017D0829903C036
:1002CC00E6E0EA9333D0839903C0E7E0EA932ED0BB
:1002DC00F4CFFFCF58D00E94CE030E9427030E9478
:1002EC001C050E9461047894089520FE12C0E091D0
:1002FC00DE02EA9385D0E091DE02E03041F4E8E8DA
:10030C00F3E10E94C105E3E0EA9310D00895E8946C
:10031C0020F821FE05C0E091DE02EA930E94F4036E
:10032C00E091DE02EA930E9403050895E881E093D0
:10033C00DE02689420F8A881A53051F0A63041F077
:10034C00A73031F0A93021F0A43011F0A83029F4F5
:10035C00689421F8D0D0D6D00AC0A881A33029F453
:10036C00689421F8CFD0C7D002C0E89421F8A881B6
:10037C00A23039F4E0EDF7E00E94C105E1E0E09332
:10038C00DE020C94BF05D29AE0E1EA930E948E053E
:10039C00DB9AE0E0EA93EA930E94500508950E94EC
:1003AC00C505E981EA930E946A05E4EFF1E00E9439
:1003BC00C1050E94C505EAE2EA930E946A050C9405
:1003CC005B050E94CF0531970E94D205E981EA9323
:1003DC000E946A050C945B05E0E00E94D205E0E601
:1003EC00F1E009C00E945D05E0E7F1E004C00E9465
:1003FC005D05EEE7F1E0FA93EA930E947F0508951C
:10040C000E945D050E94CF05309719F4EAE8F1E0EF
:10041C006CC0E130A0E0FA0719F4E5E9F1E065C041
:10042C00E230A0E0FA0739F4E4EAF1E00E94D705E3
:10043C00E4EBF1E05AC0E330A0E0FA0739F4E8EB62
:10044C00F1E00E94D705E6ECF1E04FC0E430A0E00B
:10045C00FA0759F4E7EDF1E00E94D705E8EEF1E078
:10046C00FA93EA930E947F0504C0E530A0E0FA07F6
:10047C0039F4E9EFF1E00E94D705EAE0F2E035C08B
:10048C00E630A0E0FA0739F4EBE1F2E00E94D70580
:10049C00ECE2F2E02AC0E730A0E0FA0739F4EDE331
:1004AC00F2E00E94D705EEE4F2E01FC0E930A0E0D4
:1004BC00FA0739F4EFE5F2E00E94D705E0E7F2E045
:1004CC0014C0E830A0E0FA0739F4E1E8F2E00E9449
:1004DC00D705E1E9F2E009C0EA30A0E0FA0719F427
:1004EC00E2EAF2E002C0E2EBF2E0FA93EA930E9455
:1004FC007F050C94BF05E0E0E093E302E1E0E093BC
:10050C00F7020895E0E0E093E402E1E0E093F80202
:10051C000895A091E302A43010F00C94BF05E09173
:10052C00E302F0E0EB51FD4FA881A083E091E302E0
:10053C00EF5FE093E302E881EA93E091E302EA9350
:10054C002EDF0C94BF05A091E402BB27E3E0F0E0A2
:10055C000E94A206309721F4A091E402A03009F485
:10056C0005C0E091E402EE5FE093E4020C94BF0559
:10057C00A091E302A13068F0E091E302E150E09336
:10058C00E302EE0FE95F0E94D205EFE5EA930E94C9
:10059C006A050895A091E402A13058F0E091E402BC
:1005AC00E150E093E4020E94D205EFE5EA930E9449
:1005BC006A0508951A93E091F702E03021F0A091BA
:1005CC00E302A43010F4E0E01CC010E0143090F40E
:1005DC00E12FF0E00F01EB51FD4FA081F001E15252
:1005EC00FD4FE081EA1721F0F7DE85DFE2E009C07C
:1005FC001F5FECCFF7DEE0E0E093F702E093E3025D
:10060C00E1E019910895E091F802E03021F0A09119
:10061C00E402AE3010F4E0E00895E9DEE0E0E093AF
:10062C00F802E093E402E1E00895EA93FA93E0E043
:10063C00F0E0FDBDECBDE1E0E093F902F991E99148
:10064C001895E5E0EEBDE9B7E061E9BFE0E0F0E068
:10065C00FBBDEABD0895E881F98166277727A0E400
:10066C00B8E380E090E00E944A06DF01CB01E8EE9F
:10067C00F3E060E070E00E947D06662777273197F3
:10068C00FBBDEABD0C945B05E091F9020895E8818D
:10069C00E093F9020C94BF05AA93BA93EA93FA93E8
:1006AC00EFB7EA93EDE8E2BF0E94DD050E94410638
:1006BC00E093FD02F093FE02E3B3F0E0E095F095D9
:1006CC00EF70F070A091FD02B091FE02EA2BFB2BB3
:1006DC00E093FD02F093FE02E091FC02F0E0F59550
:1006EC00E795E093FC02A091FC02A830D1F5E0E480
:1006FC00E093FC020E94DD053097F9F0E091FB02DB
:10070C00E03011F0E15026C0A091FA02A150A09364
:10071C00FA02A93039F40E94DD05E093FF02F09350
:10072C0000031AC0E091FF02F0910003A091FD02BA
:10073C00B091FE02EA17FB0721F0EAE0E093FA021F
:10074C0009C0E091FA02E03039F44090FD0250907B
:10075C00FE02E4E1E093FB02E0E0E093FD02E093B3
:10076C00FE02E091FC02E095E5BBE991EFBFF99147
:10077C00E991B991A99118951A930A93F2018F01F5
:10078C00309711F044245524F801099119910895DA
:10079C00E4B3E067E4BBE5B3EF67E5BBE3B7E46064
:1007AC00E3BFE2B7ED68E2BFE9B7E160E9BF0895E6
:1007BC001A9310E01C3080F4E12FA1E0B0E00E940D
:1007CC003806A981BA81EA23FB23309719F0E12F6F
:1007DC000C948B051F5FEECF0C948B050E94B40616
:1007EC00CBDF8F01309711F40C945D041A930A93AC
:1007FC00DFDF3E2F0E94E20524912C3349F4AC81BB
:10080C00A33019F40E94D00252C00E94BE024FC005
:10081C002332E9F5AC81A33069F40E940903E0931B
:10082C0002030E94E705A0910203A13011F40E947B
:10083C00EA053DC00E94E002E09301030E94E70537
:10084C00A0910103A23031F4EC81EA930E949C0147
:10085C00BFD01CC0A0910103A130C1F4AC81A43065
:10086C0019F40E94EA0512C0E4E0EA930E949C018C
:10087C000E945D05E6ECF2E00E94D705E2EDF2E0A5
:10088C00FA93EA930E947F050E94E70510C0AC81A1
:10089C00A33039F40E94E205E491EA930E94A90284
:1008AC0006C00E94E205E491EA930E948F020E9426
:1008BC00B90625960895ECE1E5BDE0E8E1BB0895A5
:1008CC001A93E981FA81309719F48F980C948B055F
:1008DC008F9AE981FA8166277727A0E8B0E080E05B
:1008EC0090E00E944A06A0E0B0E081EE90E00E9409
:1008FC007D06E150F040604070401E2F13BD0C94FB
:10090C008B050E94F20501F10E94FC0522FE0CC031
:10091C000E9400063A960E940506A837E5E0BE073D
:10092C0010F0E89422F80BC00E9400063A970E943F
:10093C000506A935E2E0BE0710F4689422F80E947F
:10094C000006FA93EA93BCDF08950E94F20599F130
:10095C000E94FC0523FC18C00E940E06ED91FD912F
:10096C003596FE93EE930E940E060E94B006E43E6E
:10097C00A2E0FA0740F0689423F8ECEBF2E0E09385
:10098C000503F093060317C00E940E06ED91FD912E
:10099C003597FE93EE930E940E060E94B006E83C3B
:1009AC00A1E0FA0740F4E89423F8E7E0F3E0ABE2C7
:1009BC00B2E0A083B1830895E0E0F0E0FA93EA930B
:1009CC007FDFE0E0F0E0FA93EA930E9431030895B0
:1009DC00E4E6F0E0FA93EA930E9431030E944A03A2
:1009EC00E03029F00E94FC05E2ECF1E002C0E0E00E
:1009FC00F0E0FA93EA9364DF08950E94CF05E630A5
:100A0C00A0E0FA0721F0E530A0E0FA0711F479DF55
:100A1C000BC0E930A0E0FA0721F0E730A0E0FA07BC
:100A2C0011F493DF01C0C8DF0C94BF05E0E0E7BB15
:100A3C000895E881E07111F0DC9A01C0DC98E8813E
:100A4C00E07211F0DD9A01C0DD98E881E07411F0DC
:100A5C00DE9A01C0DE98E881E07811F0DF9A01C0DF
:100A6C00DF988AE08A95F1F7DA9A89E18A95F1F7AD
:100A7C00DA9889E18A95F1F77CC0E881EA93D9DFAD
:100A8C00E881E295E883E881EA93D3DF86EF8A95E3
:100A9C00F1F76FC00E94CF05E75FFC4FE081A981A1
:100AAC00EA0FEA93EADF7980688022960895E2E003
:100ABC000E941906ECE0EA93E0DFE1E00E941906DF
:100ACC00E0E06E2E7E2E0895A881AA3011F07914E4
:100ADC0048F0E0E0EA9363946A92DCDFA881AA30E4
:100AEC0009F447C07394D89AE881EA93C6DFD89882
:100AFC0040C01A93A981BA81ED91A983BA831E2FA4
:100B0C00E03019F01A93E0DFF5CF188123960895A1
:100B1C00D49AD59AD69AD79AD29AD09AD19ADA9858
:100B2C00D898D9989880E881E058E0930B03E88135
:100B3C00E054E0930C03E4E1F0E00E94C1050E9454
:100B4C001F060E941F060E941F06E0E2EA9371DF57
:100B5C0081E791E00197F1F7E8E2EA938EDFE4E0B8
:100B6C00EA938BDFE5E8EA9388DFE6E0EA9385DF3A
:100B7C009EDF21960895FA93EA930C942806E88157
:100B8C00F0E03197EE0FE95FEA93E1E0EA930C9421
:100B9C005005E881F0E00895EA93E1E0EA930C94C3
:100BAC005005FA93EA930E947F05E0E0F5CFE091BF
:100BBC00FD02F091FE020895E32FF0E0EC5AFF4F96
:100BCC000895E8EEF3E0D7CFE2E0EA930E94060244
:100BDC00E2E0EA930C949C01E4E1F0E0FA93EA93EE
:100BEC000E9431030E944A03E0300895E0E0EA934A
:100BFC000C944D03E0910303F09104030895E093EA
:100C0C000303F0930403A0910303B091040308952C
:100C1C00E0E023FCE1E0A5E0B3E0F0E0EE0FFF1F25
:100C2C00AE0FBF1F0895EA930E944305E3E0F0E086
:100C3C00A2CFE0E3EA930E941F0581E791E00197C0
:100C4C00F1F70895E991F991309639F086E69EE036
:100C5C000197F1F7A8953197C9F70895F195E195AA
:100C6C00F0400895EE230E2EFD0121F0EE0FFF1F34
:100C7C000A94E1F70895EE0FFF1FEE0FFF1FEE0F22
:100C8C00FF1FEE0FFF1F08957A9F702D6B9F700D45
:100C9C00F89F700DE99F700D6A9F602D710DFB9F81
:100CAC00600D711DE89F600D711D8827FA9FF02D56
:100CBC00610D781FEB9FF00D611D781FEA9FE02DF1
:100CCC00F10D681F781F08950024112490E1AA0FDC
:100CDC00BB1F001C111C0E1A1F0A18F40E0E1F1E2F
:100CEC0001C0A1609A9599F7FD01D00108953F9339
:100CFC004F935F93002411244427552730E2AA0F09
:100D0C00BB1F881F991F001C111C441F551F0E1A56
:100D1C001F0A460B570B28F40E0E1F1E461F571F9B
:100D2C0001C0A1603A9559F7FD01BC01D001CA017F
:100D3C005F914F913F910895E894B7FF04C0A0953F
:100D4C00B09511966894F7FD89DFBEDFFD010EF4B6
:100D5C0085DF0895ED91FC91119708953A932A93AC
:100D6C001A930A9308953B812A8119810881089569
:00000001FF
