:020000000C945E
:1000020054010C9400000C9453050C9400000C94C1
:1000120000000C9400000C94C3030C9400000C9498
:1000220000000C94FB030C9400000C9400000C9450
:1000320000000C9400000C9400000C9400000C943E
:1000420000000C9400000C9400000C9400000C942E
:1000520000003134373C32353830333639231027FB
:10006200E80364000A000100001000011000010012
:10007200090053656E686120496E636F7272657420
:10008200610053656E686120436F7272657461002E
:100092004461746120736574616461004C696761D5
:1000A2006E646F2E2E2E0053697374656D6120414C
:1000B200726D61646F0041726D616E646F2073696D
:1000C2007374656D61002020202020202E2E2E00CA
:1000D20044617461206520486F72613A20005F5F5D
:1000E2002F5F5F2F5F5F205F5F3A5F5F20200041DD
:1000F20074697665206F2073697374656D613A0067
:1001020053656E68613A205F205F205F205F202088
:1001120000416C657274613A20496E747275736144
:100122006F00416C657274613A2050726573656E3E
:10013200636100416C657274613A20496E63656E59
:1001420064696F0053757065726171756563696D7D
:10015200656E746F00416C657274613A20496E7607
:100162006173616F004572726F206E6F2053697305
:1001720074656D610045737461646F2044657363D7
:100182006F6E68656369646F0000323233343030F9
:1001920030303030303030303030303030000A00E3
:1001A20040002020202053697374656D6100202077
:1001B20044657361726D61646F00BC022B020D0AAB
:1001C20025642F25642F25642025643A25643A2569
:1001D200642C25642C0080C001002D4E414E004944
:1001E2004E4600000100020072001000600174001F
:1001F2000E00700184000C007E0192000B008A0147
:100202009E000F009501A9001000A401B8000A0089
:10021200B401C8000E00BE01D2001100CC01E00002
:100222001100DD01F1001100EE0102011100FF01D8
:100232001301110010020201110021022401110018
:10024200320202011100430235011100540202017F
:1002520011006502460111007602020110008702B8
:1002620057011100970202011000A8026701140051
:10027200B80277010400E6028C010F00F00290013F
:1002820001000203A00101000403A2010C00CC0240
:10029200A4010C00D802B00102000D03D801010034
:1002A2001103DA010000F894EE27ECBBF1E0FBBF8A
:1002B200EBBFE5BFF8E1F1BDE1BD8DE0A2E0BB27F8
:1002C200ED938A95E9F780E094E0A0E6ED9301973B
:1002D200E9F7E6EEF1E085919591009761F0A5913D
:1002E200B59105901590BF01F00105900D9201970F
:1002F200E1F7FB01F0CFEFE5EDBFE4E0EEBFC0E6D2
:10030200D1E00C9484010DD01DD0859903C0E6E0A4
:10031200EA9334D0839903C0E7E0EA932FD0F4CF75
:10032200FFCF73D00E945A050E94BC050E94770439
:100332000E94CF030E9449050E940A050E944809B3
:100342007894089520FE12C0E091E402EA9396D0D8
:10035200E091E402E03041F4E8E8F3E10E9495081C
:10036200E3E0EA930BD00895E89420F821FE05C05B
:10037200E091E402EA930E949F040895E091E4026E
:10038200E093E502E881E093E402A091E402A33065
:1003920011F0A03009F401C02FD0689420F8A88190
:1003A200A53051F0A63041F0A73031F0A93021F04C
:1003B200A43011F0A83029F4689421F8DAD0E0D002
:1003C2000AC0A881A33029F4689421F8D9D0D1D0E9
:1003D20002C0E89421F8A881A23049F4E0EDF7E0E8
:1003E2000E949508E1E0E093E402689422F82196E5
:1003F2000895E091E4020895E091E402A091E502FB
:10040200EA1711F00E94C7050895D29AE0E1EA9333
:100412000E94D407DB9AE0E0EA93EA930E949807ED
:1004220008950E949908E981EA930E94B107E4EFD6
:10043200F1E00E9495080E949908EAE206C00E9433
:10044200A30831970E94A608E981EA930E94B107A6
:1004520022960895E0E00E94A608E0E6F1E009C0D5
:100462000E94A407E0E7F1E004C00E94A407EEE7BF
:10047200F1E0FA93EA930E94C60708950E94A40746
:100482000E94A308309719F4EAE8F1E06CC0E13069
:10049200A0E0FA0719F4E5E9F1E065C0E230A0E076
:1004A200FA0739F4E4EAF1E00E94AB08E4EBF1E088
:1004B2005AC0E330A0E0FA0739F4EEEBF1E00E9413
:1004C200AB08ECECF1E04FC0E430A0E0FA0759F4DD
:1004D200EDEDF1E00E94AB08EEEEF1E0FA93EA9363
:1004E2000E94C60704C0E530A0E0FA0739F4EFEF36
:1004F200F1E00E94AB08E0E1F2E035C0E630A0E0B6
:10050200FA0739F4E1E2F2E00E94AB08E2E3F2E03A
:100512002AC0E730A0E0FA0739F4E3E4F2E00E94EF
:10052200AB08E4E5F2E01FC0E930A0E0FA0739F4D5
:10053200E5E6F2E00E94AB08E6E7F2E014C0E8303C
:10054200A0E0FA0739F4E7E8F2E00E94AB08E7E935
:10055200F2E009C0EA30A0E0FA0719F4E8EAF2E0B2
:1005620002C0E8EBF2E0FA93EA930E94C6070C9409
:100572000508E0E0E093EA02E1E0E093FF0208957B
:10058200E0E0E093EB02E1E0E09300030895A09144
:10059200EA02A43010F00C940508E091EA02F0E0BF
:1005A200E451FD4FA881A083E091EA02EF5FE0935E
:1005B200EA02E881EA93E091EA02EA9332DF0C94DC
:1005C2000508A091EB02AF3010F00C940508E09101
:1005D200EB02F0E0E051FD4FA881A083E091EB0235
:1005E200EF5FE093EB02E881EA93E091EB02EA939A
:1005F20026DF0E94B108329721F4A091EB02AF30BE
:1006020008F005C0E091EB02EF5FE093EB020C947F
:100612000508A091EA02A13068F0E091EA02E150F7
:10062200E093EA02EE0FE95F0E94A608EFE5EA9383
:100632000E94B1070895A091EB02A130A0F0E091D1
:10064200EB02E150E093EB020E94B108E230A0E03D
:10065200FA0709F40895E091EB020E94A608EFE57B
:10066200EA930E94B10708951A93E091FF02E030E5
:1006720021F0A091EA02A43010F4E0E01CC010E0E6
:10068200143090F4E12FF0E00F01E451FD4FA0810E
:10069200F001EA51FD4FE081EA1721F0DBDE69DF6C
:1006A200E2E009C01F5FECCFDBDEE0E0E093FF0297
:1006B200E093EA02E1E0199108950E94330AE09181
:1006C2000003E03021F0A091EB02AF3028F4E0E02B
:1006D2000E943A0A0C944208C8DEA091EB02AF30A5
:1006E20011F00C94B903E091F0020E94B9080E9443
:1006F200BC08E091F1020E94B908EA0F1E2FE091B6
:10070200F3020E94B9080E94BC08E091F4020E9420
:10071200B908EA0F0E2FE091F6020E94B9080E9472
:10072200BC08E091F7020E94B908EA0F3E2FE0915F
:10073200F9020E94B9080E94BC08E091FA020E94E4
:10074200B908EA0F2E2FE091FC020E94B9080E941C
:10075200BC08E091FD020E94B908EA0F5E2F1A93CD
:100762000A933A930E94A8052A935A930E94B205CB
:10077200E0E0E0930003E093EB02E1E00E943A0A3A
:100782000C944208EA93FA93E0E0F0E0FDBDECBD80
:10079200E1E0E0930103F991E9911895EEB5E46087
:1007A200EEBDE9B7E061E9BFE0E0F0E0FBBDEABD24
:1007B2000895E881F98166277727A0E4B8E380E00D
:1007C20090E00E94C009DF01CB01E8EEF3E060E0B7
:1007D20070E00E94F309662777273197FBBDEABDD7
:1007E2000C946908E09101030895E881E093010304
:1007F2000C940508AA93BA93EA93FA93EFB7EA9393
:10080200EDE8E2BF0E94C1080E94B709E093050328
:10081200F0930603E3B3F0E0E095F095EF70F0702B
:10082200A0910503B0910603EA2BFB2BE09305038D
:10083200F0930603E0910403F0E0F595E795E09369
:100842000403A0910403A830D1F5E0E4E09304038B
:100852000E94C1083097F9F0E0910303E03011F0F3
:10086200E15026C0A0910203A150A0930203A93037
:1008720039F40E94C108E0930703F09308031AC0F9
:10088200E0910703F0910803A0910503B0910603DC
:10089200EA17FB0721F0EAE0E093020309C0E091C6
:1008A2000203E03039F44090050350900603E4E17E
:1008B200E0930303E0E0E0930503E0930603E09195
:1008C2000403E095E5BBE991EFBFF991E991B99194
:1008D200A99118951A930A93F2018F01309711F09A
:1008E20044245524F801099119910895E4B3E0676D
:1008F200E4BBE5B3EF67E5BBE3B7E460E3BFE2B7B0
:10090200ED68E2BFE9B7E160E9BF08951A9310E02C
:100912001C3088F4E12FA1E0B0E00E94AE09A98169
:10092200BA81EA23FB23309721F0E12F18810C943E
:1009320057081F5FEDCF18810C9457080E94350AA3
:10094200C9DF8F01309711F40C9406051A930A93AC
:10095200DDDF3E2F0E94C60824912C3349F4AC817E
:10096200A33019F40E941C0350C00E940A034DC018
:100972002332D9F5AC81A33059F40E945E03E0938F
:100982000A03A0910A03A13011F40E94CB083DC0D2
:100992000E943503E0930903A0910903A23031F4C8
:1009A200EC81EA930E94BF015CD01EC0A0910903B2
:1009B200A130D1F4AC81A43019F40E94CB0814C048
:1009C200E4E0EA930E94BF010E94A407ECECF2E08B
:1009D2000E94AB08E8EDF2E0FA93EA930E94C607A0
:1009E200E8EEF3E00E94950810C0AC81A33039F420
:1009F2000E94C608E491EA930E94E20206C00E94A5
:100A0200C608E491EA930E94C8020E943C0A259615
:100A12000895E5B5EC61E5BD8F9A08951A93E981D1
:100A2200FA81309721F48F9818810C9457088F9A85
:100A3200E981FA8166277727A0E8B0E080E090E0BC
:100A42000E94C009A0E0B0E081EE90E00E94F309AC
:100A5200E150F040604070401E2F13BD18810C948D
:100A62005708E4E6F0E0FA93EA930E94DA030E9460
:100A7200F303E03039F0E0E0EA930E94F603E2EC9F
:100A8200F1E002C0E0E0F0E0FA93EA93C7DF0895F4
:100A9200E7B3E06CE7BBEBB7E064EBBFE5B7EC6054
:100AA200E5BF0895EA93EFB7689425F8EFBFE9919F
:100AB2001895E0E0EA93E1E0EA93E0E0EA930E942D
:100AC2000708E1B3E1BB929A089522970E94330A84
:100AD200E6E0F0E0FA93EA930E945D088F01EDB739
:100AE200FEB7FA93EA933F93EDB7FEB7FA93EA9310
:100AF2002F93EDB7FEB7FA93EA935F930E943408FF
:100B02005F912F913F91EDB7FEB7FA93EA934F931E
:100B1200FE013996FA93EA93FE013A96FA93EA9322
:100B22000E941C084F91E52FD801EC93F801218314
:100B320032834383EF81D8011496EC93EE81D8017E
:100B42001596EC93F8010E943A0A28960895EA81D4
:100B5200EA93EA81EA93EA81EA930E9444080C94B8
:100B62005708E981EA93E981EA93E0E0EA930E9477
:100B720028080C946908E0E0EBB9E8E0EAB9E6E895
:100B8200E0BDE0E0E0BDEFE2E9B908950E94350A78
:100B92009CDF8F010E94FA013E2FE0ECF1E0FA9314
:100BA200EA93F801E2810E94D308F801E1810E94F0
:100BB200D308D801EC910E94D308F801E3810E9486
:100BC200D308F801E4810E94D308F801E5810E946C
:100BD200D308E32F0E94D3088CE10E9440076E964F
:100BE2001A930A930E9460080E943C0A0C945B08C4
:100BF2005D9BFECFE881ECB90C940508EA81EA938B
:100C0200F7DFA881B981ED91FD913196FE93EE93C4
:100C12000C94570826970E94330A10E0AC85BD85D4
:100C2200E0E0F0E0ED93FC93EA89FB893196EA8BF0
:100C3200FB8B3197E4912E2FE03011F40C9438079E
:100C4200E12FE03039F4253211F411E002C00E94A4
:100C5200D9080CC1E130A9F4253219F40E94D9084F
:100C620004C112E040E000E02D3211F401E0FEC0C8
:100C72002B3211F44BE2FAC0203211F440E2F6C0FA
:100C820002C0E23039F450E013E0203311F400687E
:100C9200EDC004C0E33011F00C943707203310F09C
:100CA2002A3308F007C0AAE05A9F502DE22FE053E2
:100CB2005E0FDCC0E22FE33649F40E94E208E889C5
:100CC200F989A481AA930E94E808CFC0E33741F4CE
:100CD2000E94E2080E94F0080E946B081E2F0AC0C0
:100CE200E03761F40E94E2080E94F0080E94750851
:100CF2001E2F086002600F7730E035C0E43611F035
:100D0200E93611F4046002C0E53731F4E0E6F0E0C0
:100D1200EE83FF8315E00DC0E83511F4086004C0CE
:100D2200E83711F00C943607EAE6F0E0EE83FF8331
:100D320014E002FF14C00E94E2080E94FA08AB8588
:100D4200AA233AF4EA85FB850E94AA09EA87FB876F
:100D52004DE2403011F01F5F01C00B7F04C00E94C2
:100D6200E2080E94FA0800FD11C0151778F407FF87
:100D720008C002FF04C00B7F242F115001C020E3E2
:100D820001C020E20E94D9085150EFCF312F01FF5C
:100D920017C03030A1F003FF06C0EE81FF8125911C
:100DA200EE83FF8305C0AE81BF812D91AE83BF83E9
:100DB2000E94D908503009F051503150EACF4BC04F
:100DC20020E3EE81FF810E942A0AE887F987EE81FB
:100DD200FF813296EE83FF83E885F985AA85BB857C
:100DE200AE17BF0750F02F5FA885B985EA85FB854E
:100DF200EA1BFB0BEA87FB87EFCF2A3328F003FFBE
:100E020002C0295F01C0295D04FD1AC0213320F40C
:100E1200A885B985119709F409C0531710F000FF8E
:100E220001C013C020E207FF0BC020E3006102FFF4
:100E320007C00B7F4A930E94E808503009F05150D6
:100E42000E94D908503009F051503150A885B98517
:100E5200129708F0B5CF00FF08C0503031F0515062
:100E6200E0E2EA930E94E808F8CF10E0DDCEAC851C
:100E7200BD850E94260A0E943A0A64960895FF924E
:100E8200F82E26971A930A93DE0114960E94A60959
:100E92008D01E0E0EC83ED83EE83EF83DE011896B3
:100EA2000E94A6090E94260AFA93EA931A930A93C9
:100EB200EFEFF5E0FA93EA93FE013896FA93EA939C
:100EC200A9DE198108812896FF900895E881E071D2
:100ED20011F0DC9A01C0DC98E881E07211F0DD9A31
:100EE20001C0DD98E881E07411F0DE9A01C0DE985D
:100EF200E881E07811F0DF9A01C0DF988AE08A95F4
:100F0200F1F7DA9A89E18A95F1F7DA9889E18A9517
:100F1200F1F77AC0E881EA93D9DFE881E295E883C4
:100F2200E881EA93D3DF86EF8A95F1F76DC00E94DC
:100F3200A308E35FFC4FE081A981EA0FEA93EADFAD
:100F420079806880C5C0E2E00E940209ECE0EA9381
:100F5200E1DFE1E00E940209E0E06E2E7E2E0895BC
:100F6200A881AA3011F0791448F0E0E0EA93639482
:100F72006A92DDDFA881AA3009F446C07394D89A38
:100F8200E881EA93C7DFD8983FC01A93A981BA8152
:100F9200ED91A983BA831E2FE03019F01A93E0DF96
:100FA200F5CF188183C0D49AD59AD69AD79AD29A75
:100FB200D09AD19ADA98D898D9989880E881E0584E
:100FC200E0930F03E881E054E0931003E4E1F0E0E2
:100FD2000E9495080E9408090E9408090E940809B7
:100FE200E0E2EA9373DF81E791E00197F1F7E8E24B
:100FF200EA9390DFE4E0EA938DDFE5E8EA938ADFA3
:10100200E6E0EA9387DF9FDF21960895EA81E370A5
:10101200EA83E981E03019F0EA81E061EA83E8815C
:10102200E03019F0EA81E068EA830E941109E7E002
:101032000E94170936C00E941109E0E00E941C09B3
:10104200A881B9810E942C09AC81BD8117C00E9480
:101052001109E0E0EA930E948109E8810E943E09B9
:101062000E9417091BC00E941109E4E00E941C099A
:10107200AC81BD810E942C09A881B981EC930E94A8
:101082005C09269608950E941109E4E00E9417095E
:101092000E943E09EA930E948109E881EA930E9434
:1010A2008C08EA930E9481090E945C0923960895A4
:1010B200E0E0F0E024960895E0E0F0E009C0E88185
:1010C200F981FA93EA93E0E0F0E0FA93EA93F0DF31
:1010D20022960895A991B991EE27FF276D91662373
:1010E20011F03196FBCF0895AA27BB27E991F99118
:1010F2000590002011F01196FBCFFD010895E881C3
:10110200E295EF70AE2FAA0FAA0FEA0FEE0FA99188
:10111200AF70EA0F0895A991EE27AA5012F0E05F8E
:10112200FCCFA65FEA0F0895FA93EA930C949A090A
:10113200E881F0E03197EE0FE95FEA93E1E0EA93AC
:101142000C949807E881F0E00895EA93E1E0EA93CD
:101152000C949807FA93EA930E94C607E0E0F5CF51
:10116200A091EB02BB27E3E0F0E00E94180A089589
:10117200F0E0F0970895AAE0EA02F001AE2F089598
:10118200E0910503F09106030895E32FF0E0EC5A95
:10119200FF4F0895E2E0EA930E943F02E2E0EA9301
:1011A2000C94BF01FF27662777270E942E0A089515
:1011B2002A93ED85FE85FA93EA93E989FA890995DE
:1011C2000895E889F9893497E88BF98B0895ED85BC
:1011D200FE85FA93EA93E989FA8909950895A8891F
:1011E200B98914960E94260AEE83FF83FA93EA9342
:1011F2000895A889B98914960E94260AEA87FB876E
:101202000895EA930E948B07E3E0F0E08DCFE0E3DC
:10121200EA930E94670781E791E00197F1F7089549
:101222000E944D09E0EDEA930C948109EA930E9431
:101232008109EA810895EA930E9481090E944D0979
:10124200E1EDEA930E948109E1E0EA930E946609D6
:10125200EA930C948008EC93E1E0EA930E94660919
:10126200EA930E948008AA81BB81EC93E0E0EA93B2
:101272000E946609EA930C948008EA930E948C0803
:10128200EA930E948109E981EA930C948C08C4983C
:10129200C398BC9ABB9815C0BB98BC98EE270000B7
:1012A200B39B0895B49B089504D0BB9A02D0BC9A14
:1012B200E1E069E107C0BB9ABC9A03D0BC98F9DFB0
:1012C200BB9861E36A95F1F7089578E0BC98F1DF85
:1012D200B49BFECFEEDF8894B3990894BC9AF1DFF9
:1012E200EE1F7A9599F77991772311F4BB9801C093
:1012F200BB9ADFDFBC98E5DFBC9ADBDFBB98D9CFB6
:10130200E99178E0EE0F10F4BB9801C0BB9AD9DFE7
:10131200BC98CFDFB49BFECFCCDFBC9A7A9591F715
:10132200BB98C7DFBC98CDDFE1E0B399EE27BC9A4A
:10133200C0CFE991F991309639F086E69EE00197A7
:10134200F1F7A8953197C9F708950024AF0DB01DA4
:101352000895F195E195F0400895EE230E2EFD01DA
:1013620021F0EE0FFF1F0A94E1F70895EE0FFF1F21
:10137200EE0FFF1FEE0FFF1FEE0FFF1F08957A9F64
:10138200702D6B9F700DF89F700DE99F700D6A9F15
:10139200602D710DFB9F600D711DE89F600D711D29
:1013A2008827FA9FF02D610D781FEB9FF00D611DCC
:1013B200781FEA9FE02DF10D681F781F0895002421
:1013C200112490E1AA0FBB1F001C111C0E1A1F0A48
:1013D20018F40E0E1F1E01C0A1609A9599F7FD0127
:1013E200D00108953F934F935F9300241124442723
:1013F200552730E2AA0FBB1F881F991F001C111C22
:10140200441F551F0E1A1F0A460B570B28F40E0EC7
:101412001F1E461F571F01C0A1603A9559F7FD01D3
:10142200BC01D001CA015F914F913F910895E894A8
:10143200B7FF04C0A095B09511966894F7FD89DFB7
:10144200BEDFFD010EF485DF0895ED91FC91119749
:1014520008950590F491E02D08957A936A93FA9392
:10146200EA9308955A934A933A932A931A930A93C2
:1014720008955D814C813B812A81198108810895FB
:00000001FF
