:040000000C94570104
:100004000C9400000C94CD050C9400000C9400009A
:100014000C9400000C94C3030C9400000C94000096
:100024000C94FB030C9400000C9400000C9400004E
:100034000C9400000C9400000C9400000C9400003C
:100044000C9400000C9400000C9400000C9400002C
:100054003134373C32353830333639231027E8030E
:1000640064000A00010000100001100001000900F2
:1000740053656E686120496E636F727265746100C6
:1000840053656E686120436F7272657461004461E8
:10009400746120736574616461004C6967616E64A6
:1000A4006F2E2E2E0053697374656D612041726D3D
:1000B40061646F0041726D616E646F207369737463
:1000C400656D61002020202020202E2E2E0044610A
:1000D4007461206520486F72613A20005F5F2F5F72
:1000E4005F2F5F5F205F5F3A5F5F2020004174698C
:1000F4007665206F2073697374656D613A0053658A
:100104006E68613A205F205F205F205F20200041FD
:100114006C657274613A20496E74727573616F0014
:10012400416C657274613A2050726573656E6361E7
:1001340000416C657274613A20496E63656E64694E
:100144006F0053757065726171756563696D656E75
:10015400746F00416C657274613A20496E76617304
:10016400616F004572726F206E6F205369737465FE
:100174006D610045737461646F20446573636F6ED1
:1001840068656369646F0000323233343030303074
:100194003030303030303030303030000A00400001
:1001A4002020202053697374656D6100202044650C
:1001B4007361726D61646F00BC022B020D0A2564C9
:1001C4002F25642F25642025643A25643A25642C60
:1001D40025642C0080C001002D4E414E00494E463E
:1001E40000000100020072001000600174000E00A3
:1001F400700184000C007E0192000B008A019E00B5
:100204000F009501A9001000A401B8000A00B40170
:10021400C8000E00BE01D2001100CC01E0001100A4
:10022400DD01F1001100EE0102011100FF011301D3
:1002340011001002020111002102240111003202F6
:1002440002011100430235011100540202011100A0
:10025400650246011100760202011000870257016F
:100264001100970202011000A80267011400B802ED
:1002740077010400E6028C010F00F00290010100F6
:100284000203A00101000403A2010C00CC02A4019A
:100294000C00D802B00104000D03BC0102001303DA
:1002A400D80101001703DA010000F894EE27ECBB33
:1002B400F1E0FBBFEBBFE5BFF8E1F1BDE1BD8DE0CF
:1002C400A2E0BB27ED938A95E9F780E094E0A0E6ED
:1002D400ED930197E9F7E6EEF1E0859195910097AA
:1002E40061F0A591B59105901590BF01F0010590BD
:1002F4000D920197E1F7FB01F0CFEFE5EDBFE4E0EC
:10030400EEBFC0E6D1E00C94870103D013D0FECF3A
:10031400FFCF7BD00E9409060E946B060E947704DF
:100324000E94CF030E94C3050E940A050E94210A6D
:100334007894089520FE12C0E091E402EA939ED0DE
:10034400E091E402E03041F4E8E8F3E10E9442097C
:10035400E3E0EA9314D00895E89420F821FE05C060
:10036400E091E402EA930E949F0422FE02C00E94EC
:10037400D405E091E402EA930E94AA050895E0916D
:10038400E402E093E502E881E093E402A091E40250
:10039400A33011F0A03009F401C02ED0689420F8E5
:1003A400A881A53051F0A63041F0A73031F0A93032
:1003B40021F0A43011F0A83029F4689421F8D8D0A1
:1003C400DED00AC0A881A33029F4689421F8D7D0DC
:1003D400CFD002C0E89421F8A881A23049F4E0ED1E
:1003E400F7E00E944209E1E0E093E402689422F815
:1003F400D1C0E091E4020895E091E402A091E50205
:10040400EA1711F00E9476060895D29AE0E1EA9381
:100414000E948308DB9AE0E0EA93EA930E9447088B
:1004240008950E944609E981EA930E946008E4EF76
:10043400F1E00E9442090E944609EAE206C00E94D5
:10044400500931970E945309E981EA930E94600898
:1004540022960895E0E00E945309E0E6F1E009C025
:100464000E945308E0E7F1E004C00E945308EEE75D
:10047400F1E0FA93EA930E94750808950E945308E4
:100484000E945009309719F4EAE8F1E06CC0E130B9
:10049400A0E0FA0719F4E5E9F1E065C0E230A0E074
:1004A400FA0739F4E4EAF1E00E945809E4EBF1E0D8
:1004B4005AC0E330A0E0FA0739F4EEEBF1E00E9411
:1004C4005809ECECF1E04FC0E430A0E0FA0759F42D
:1004D400EDEDF1E00E945809EEEEF1E0FA93EA93B3
:1004E4000E94750804C0E530A0E0FA0739F4EFEF84
:1004F400F1E00E945809E0E1F2E035C0E630A0E006
:10050400FA0739F4E1E2F2E00E945809E2E3F2E08A
:100514002AC0E730A0E0FA0739F4E3E4F2E00E94ED
:100524005809E4E5F2E01FC0E930A0E0FA0739F425
:10053400E5E6F2E00E945809E6E7F2E014C0E8308C
:10054400A0E0FA0739F4E7E8F2E00E945809E7E985
:10055400F2E009C0EA30A0E0FA0719F4E8EAF2E0B0
:1005640002C0E8EBF2E0FA93EA930E94750812C025
:10057400E0E0E093EA02E1E0E093FF020895E0E0C6
:10058400E093EB02E1E0E09300030895A091EA0216
:10059400A43010F021960895E091EA02F0E0E451CD
:1005A400FD4FA881A083E091EA02EF5FE093EA02A5
:1005B400E881EA93E091EA02EA9333DF0C94B40809
:1005C400A091EB02AF3010F00C94B408E091EB0270
:1005D400F0E0E051FD4FA881A083E091EB02EF5FD2
:1005E400E093EB02E881EA93E091EB02EA9327DFE0
:1005F4000E945E09329721F4A091EB02AF3008F01B
:1006040005C0E091EB02EF5FE093EB020C94B408B9
:10061400A091EA02A13068F0E091EA02E150E0938F
:10062400EA02EE0FE95F0E945309EFE5EA930E94A4
:1006340060080895A091EB02A130A0F0E091EB02D4
:10064400E150E093EB020E945E09E230A0E0FA0779
:1006540009F40895E091EB020E945309EFE5EA934F
:100664000E94600808951A93E091FF02E03021F09F
:10067400A091EA02A43010F4E0E01CC010E01430B1
:1006840090F4E12FF0E00F01E451FD4FA081F0015F
:10069400EA51FD4FE081EA1721F0DCDE69DFE2E098
:1006A40009C01F5FECCFDCDEE0E0E093FF02E093E3
:1006B400EA02E1E0199108950E940C0BE091000315
:1006C400E03021F0A091EB02AF3028F4E0E00E948A
:1006D400130B0C94F108C9DEA091EB02AF3011F0BA
:1006E4000C94B903E091F0020E9466090E94690922
:1006F400E091F1020E946609EA0F1E2FE091F302D5
:100704000E9466090E946909E091F4020E94660948
:10071400EA0F0E2FE091F6020E9466090E94690911
:10072400E091F7020E946609EA0F3E2FE091F90278
:100734000E9466090E946909E091FA020E94660912
:10074400EA0F2E2FE091FC020E9466090E946909BB
:10075400E091FD020E946609EA0F5E2F1A930A9344
:100764003A930E9457062A935A930E946106E0E046
:10077400E0930003E093EB02E1E00E94130B0C947E
:10078400F108EA93FA93E0E0F0E0FDBDECBDE1E0AE
:10079400E0930103F991E9911895EEB5E460EEBD9B
:1007A400E9B7E061E9BFE0E0F0E0FBBDEABD089530
:1007B400E881F98166277727A0E4B8E380E090E038
:1007C4000E94990ADF01CB01E8EEF3E060E070E0FB
:1007D4000E94CC0A662777273197FBBDEABD0C94AB
:1007E4001609E09101030895E881E09301030C9454
:1007F400B408AA93BA93EA93FA93EFB7EA93EDE8AD
:10080400E2BF0E946E090E94900AE0930503F093F0
:100814000603E3B3F0E0E095F095EF70F070A0917B
:100824000503B0910603EA2BFB2BE0930503F09339
:100834000603E0910403F0E0F595E795E0930403E3
:10084400A0910403A830D1F5E0E4E09304030E94EE
:100854006E093097F9F0E0910303E03011F0E150B4
:1008640026C0A0910203A150A0930203A93039F439
:100874000E946E09E0930703F09308031AC0E09105
:100884000703F0910803A0910503B0910603EA174A
:10089400FB0721F0EAE0E093020309C0E0910203C0
:1008A400E03039F44090050350900603E4E1E0930E
:1008B4000303E0E0E0930503E0930603E0910403FF
:1008C400E095E5BBE991EFBFF991E991B991A9915F
:1008D40018951A930A93F2018F01309711F044246A
:1008E4005524F801099119910895E4B3E067E4BB34
:1008F400E5B3EF67E5BBE3B7E460E3BFE2B7ED68F8
:10090400E2BFE9B7E160E9BF08951A9310E01C3033
:1009140088F4E12FA1E0B0E00E94870AA981BA819E
:10092400EA23FB23309721F0E12F18810C94060968
:100934001F5FEDCF18810C9406090E940E0BC9DFCE
:100944008F01309711F40C9406051A930A93DDDF96
:100954003E2F0E94730924912C3349F4AC81A330B7
:1009640019F40E941C0350C00E940A034DC0233294
:10097400D9F5AC81A33059F40E945E03E0930A03D5
:10098400A0910A03A13011F40E9478093DC00E948D
:100994003503E0930903A0910903A23031F4EC81FB
:1009A400EA930E94C101BFD01EC0A0910903A130E7
:1009B400D1F4AC81A43019F40E94780914C0E4E0A5
:1009C400EA930E94C1010E945308ECECF2E00E94F9
:1009D4005809E8EDF2E0FA93EA930E947508E8EE0C
:1009E400F3E00E94420910C0AC81A33039F40E94A4
:1009F4007309E491EA930E94E20206C00E9473091B
:100A0400E491EA930E94C8020E94150B259608956A
:100A1400E5B5EC61E5BD8F9A08951A93E981FA81F1
:100A2400309721F48F9818810C9406098F9AE981E4
:100A3400FA8166277727A0E8B0E080E090E00E9482
:100A4400990AA0E0B0E081EE90E00E94CC0AE15067
:100A5400F040604070401E2F13BD18810C940609AD
:100A64000E94800901F10E948A0923FE0CC00E94A1
:100A74008E093A960E949309A837E5E0BE0710F064
:100A8400E89423F80BC00E948E093A970E949309B8
:100A9400A935E2E0BE0710F4689423F80E948E0999
:100AA400FA93EA93BADF08950E94800999F10E94AB
:100AB4008A0924FC18C00E949C09ED91FD91359689
:100AC400FE93EE930E949C090E94FF0AE43EA2E07A
:100AD400FA0740F0689424F8ECEBF2E0E0930D039D
:100AE400F0930E0317C00E949C09ED91FD91359778
:100AF400FE93EE930E949C090E94FF0AE83CA1E049
:100B0400FA0740F4E89424F8EFE0F3E0ABE2B2E053
:100B1400A083B18308950E94A7097FDF0E94A709DB
:100B24000E94DA030895E4E6F0E0FA93EA930E945F
:100B3400DA030E94F303E03029F00E948A09E2EC10
:100B4400F1E002C0E0E0F0E0FA93EA9366DF089592
:100B54000E945009E630A0E0FA0721F0E530A0E059
:100B6400FA0711F47DDF0BC0E930A0E0FA0721F0A9
:100B7400E730A0E0FA0711F497DF01C0CCDF0C9452
:100B8400B408E7B3E06CE7BBEBB7E064EBBFE5B7F1
:100B9400EC60E5BF0895EA93EFB7689425F8EFBFDA
:100BA400E9911895E0E0B599E1E0E0931103E0E004
:100BB400B799E1E0E0931203A0911103A03031F45E
:100BC40025FE04C0E0911203E03009F402C0E7E01E
:100BD40018C0E0911103E03011F4E7E012C025FEE3
:100BE40004C0E0911203E03009F402C0E8E009C057
:100BF400E0911203E03011F0E5E003C025FE04C0EB
:100C0400E6E0EA930E94C101E89425F80895E0E043
:100C1400EA93E1E0EA93E0E0EA930E94B608E1B3E4
:100C2400E1BB929A089522970E940C0BE6E0F0E053
:100C3400FA93EA930E940C098F01EDB7FEB7FA9379
:100C4400EA933F93EDB7FEB7FA93EA932F93EDB788
:100C5400FEB7FA93EA935F930E94E3085F912F91A2
:100C64003F91EDB7FEB7FA93EA934F93FE0139969D
:100C7400FA93EA93FE013A96FA93EA930E94CB0818
:100C84004F91E52FD801EC93F801218332834383FC
:100C9400EF81D8011496EC93EE81D8011596EC936C
:100CA400F8010E94130B28960895EA81EA93EA81D9
:100CB400EA93EA81EA930E94F3080C940609E98115
:100CC400EA93E981EA93E0E0EA930E94D7080C945E
:100CD4001609E0E0EBB9E8E0EAB9E6E8E0BDE0E0F7
:100CE400E0BDEFE2E9B908950E940E0B9CDF8F018D
:100CF4000E94FB013E2FE0ECF1E0FA93EA93F80145
:100D0400E2810E94AC09F801E1810E94AC09D8019A
:100D1400EC910E94AC09F801E3810E94AC09F8014E
:100D2400E4810E94AC09F801E5810E94AC09E32F3B
:100D34000E94AC098CE10E94EF076E961A930A9305
:100D44000E940F090E94150B0C940A095D9BFECFAB
:100D5400E881ECB90C94B408EA81EA93F7DFA8813E
:100D6400B981ED91FD913196FE93EE930C940609B1
:100D740026970E940C0B10E0AC85BD85E0E0F0E006
:100D8400ED93FC93EA89FB893196EA8BFB8B3197CF
:100D9400E4912E2FE03011F40C94E707E12FE030BA
:100DA40039F4253211F411E002C00E94B2090CC1D9
:100DB400E130A9F4253219F40E94B20904C112E009
:100DC40040E000E02D3211F401E0FEC02B3211F4BA
:100DD4004BE2FAC0203211F440E2F6C002C0E23025
:100DE40039F450E013E0203311F40068EDC004C07E
:100DF400E33011F00C94E607203310F02A3308F0A6
:100E040007C0AAE05A9F502DE22FE0535E0FDCC0CA
:100E1400E22FE33649F40E94BB09E889F989A481E9
:100E2400AA930E94C109CFC0E33741F40E94BB09D1
:100E34000E94C9090E9418091E2F0AC0E03761F4F4
:100E44000E94BB090E94C9090E9422091E2F086042
:100E540002600F7730E035C0E43611F0E93611F462
:100E6400046002C0E53731F4E0E6F0E0EE83FF838E
:100E740015E00DC0E83511F4086004C0E83711F03E
:100E84000C94E507EAE6F0E0EE83FF8314E002FF4A
:100E940014C00E94BB090E94D309AB85AA233AF46B
:100EA400EA85FB850E94830AEA87FB874DE240308E
:100EB40011F01F5F01C00B7F04C00E94BB090E9498
:100EC400D30900FD11C0151778F407FF08C002FF0D
:100ED40004C00B7F242F115001C020E301C020E285
:100EE4000E94B2095150EFCF312F01FF17C03030AB
:100EF400A1F003FF06C0EE81FF812591EE83FF83FD
:100F040005C0AE81BF812D91AE83BF830E94B2091B
:100F1400503009F051503150EACF4BC020E3EE81FC
:100F2400FF810E94030BE887F987EE81FF813296E7
:100F3400EE83FF83E885F985AA85BB85AE17BF07D5
:100F440050F02F5FA885B985EA85FB85EA1BFB0B6A
:100F5400EA87FB87EFCF2A3328F003FF02C0295F1B
:100F640001C0295D04FD1AC0213320F4A885B98588
:100F7400119709F409C0531710F000FF01C013C002
:100F840020E207FF0BC020E3006102FF07C00B7FD4
:100F94004A930E94C109503009F051500E94B2098D
:100FA400503009F051503150A885B985129708F096
:100FB400B5CF00FF08C0503031F05150E0E2EA9361
:100FC4000E94C109F8CF10E0DDCEAC85BD850E943A
:100FD400FF0A0E94130B64960895FF92F82E269739
:100FE4001A930A93DE0114960E947F0A8D01E0E0B1
:100FF400EC83ED83EE83EF83DE0118960E947F0A73
:101004000E94FF0AFA93EA931A930A93EEEAF6E02F
:10101400FA93EA93FE013896FA93EA93A9DE1981CA
:1010240008812896FF900895E881E07111F0DC9A18
:1010340001C0DC98E881E07211F0DD9A01C0DD980E
:10104400E881E07411F0DE9A01C0DE98E881E0786E
:1010540011F0DF9A01C0DF988AE08A95F1F7DA9AF5
:1010640089E18A95F1F7DA9889E18A95F1F77AC0EE
:10107400E881EA93D9DFE881E295E883E881EA939D
:10108400D3DF86EF8A95F1F76DC00E945009ED5EBB
:10109400FC4FE081A981EA0FEA93EADF7980688056
:1010A400C3C0E2E00E94DB09ECE0EA93E1DFE1E0A7
:1010B4000E94DB09E0E06E2E7E2E0895A881AA30FE
:1010C40011F0791448F0E0E0EA9363946A92DDDF6A
:1010D400A881AA3009F446C07394D89AE881EA93A7
:1010E400C7DFD8983FC01A93A981BA81ED91A9832B
:1010F400BA831E2FE03019F01A93E0DFF5CF188180
:1011040083C0D49AD59AD69AD79AD29AD09AD19A99
:10111400DA98D898D9989880E881E058E093150334
:10112400E881E054E0931603E4E1F0E00E94420910
:101134000E94E1090E94E1090E94E109E0E2EA93C8
:1011440073DF81E791E00197F1F7E8E2EA9390DF3A
:10115400E4E0EA938DDFE5E8EA938ADFE6E0EA93E8
:1011640087DF9FDF21960895EA81E370EA83E981AE
:10117400E03019F0EA81E061EA83E881E03019F0B7
:10118400EA81E068EA830E94EA09E7E00E94F00944
:1011940036C00E94EA09E0E00E94F509A881B981FD
:1011A4000E94050AAC81BD8117C00E94EA09E0E0F3
:1011B400EA930E945A0AE8810E94170A0E94F009E1
:1011C4001BC00E94EA09E4E00E94F509AC81BD81DC
:1011D4000E94050AA881B981EC930E94350A2696DB
:1011E40008950E94EA09E4E00E94F0090E94170AA7
:1011F400EA930E945A0AE881EA930E943909EA9321
:101204000E945A0A0E94350A23960895E0E0F0E00D
:1012140024960895E0E0F0E007C0E881F981FA93AC
:10122400EA930E94A709F2DF22960895A991B99141
:10123400EE27FF276D91662311F03196FBCF0895B9
:10124400AA27BB27E991F9910590002011F0119686
:10125400FBCFFD010895E881E295EF70AE2FAA0F50
:10126400AA0FEA0FEE0FA991AF70EA0F0895A991A2
:10127400EE27AA5012F0E05FFCCFA65FEA0F0895B4
:10128400FA93EA930C94730AE881F0E03197EE0F35
:10129400E95FEA93E1E0EA930C944708E881F0E01F
:1012A4000895EA93E1E0EA930C944708FA93EA93E9
:1012B4000E947508E0E0F5CFA091EB02BB27E3E0C4
:1012C400F0E00E94F10A0895F0E0F0970895AAE092
:1012D400EA02F001AE2F0895E0910503F0910603B0
:1012E4000895E32FF0E0EC5AFF4F0895E2E0EA930B
:1012F4000E944002E2E0EA930C94C101E4E1F0E0D0
:10130400FA93EA930E94DA030E94F303E03008950B
:10131400E0E0EA930C94F603E0910B03F0910C03E4
:101324000895E0930B03F0930C03A0910B03B09189
:101334000C030895E0E024FCE1E0ADE0B3E0F0E06C
:10134400EE0FFF1FAE0FBF1F0895E0E0F0E0FA9329
:10135400EA930895FF27662777270E94070B0895CD
:101364002A93ED85FE85FA93EA93E989FA8909952A
:101374000895E889F9893497E88BF98B0895ED8508
:10138400FE85FA93EA93E989FA8909950895A8896B
:10139400B98914960E94FF0AEE83FF83FA93EA93B5
:1013A4000895A889B98914960E94FF0AEA87FB87E1
:1013B4000895EA930E943A08E3E0F0E061CFE0E3A5
:1013C400EA930E94160881E791E00197F1F70895E6
:1013D4000E94260AE0EDEA930C945A0AEA930E94CA
:1013E4005A0AEA810895EA930E945A0A0E94260A38
:1013F400E1EDEA930E945A0AE1E0EA930E943F0A6F
:10140400EA930C942D09EC93E1E0EA930E943F0ADD
:10141400EA930E942D09AA81BB81EC93E0E0EA9350
:101424000E943F0AEA930C942D09EA930E94390919
:10143400EA930E945A0AE981EA930C943909C49800
:10144400C398BC9ABB9815C0BB98BC98EE27000003
:10145400B39B0895B49B089504D0BB9A02D0BC9A60
:10146400E1E069E107C0BB9ABC9A03D0BC98F9DFFC
:10147400BB9861E36A95F1F7089578E0BC98F1DFD1
:10148400B49BFECFEEDF8894B3990894BC9AF1DF45
:10149400EE1F7A9599F77991772311F4BB9801C0DF
:1014A400BB9ADFDFBC98E5DFBC9ADBDFBB98D9CF02
:1014B400E99178E0EE0F10F4BB9801C0BB9AD9DF34
:1014C400BC98CFDFB49BFECFCCDFBC9A7A9591F762
:1014D400BB98C7DFBC98CDDFE1E0B399EE27BC9A97
:1014E400C0CFE991F991309639F086E69EE00197F4
:1014F400F1F7A8953197C9F708950024AF0DB01DF1
:101504000895F195E195F0400895EE230E2EFD0126
:1015140021F0EE0FFF1F0A94E1F70895EE0FFF1F6D
:10152400EE0FFF1FEE0FFF1FEE0FFF1F08957A9FB0
:10153400702D6B9F700DF89F700DE99F700D6A9F61
:10154400602D710DFB9F600D711DE89F600D711D75
:101554008827FA9FF02D610D781FEB9FF00D611D18
:10156400781FEA9FE02DF10D681F781F089500246D
:10157400112490E1AA0FBB1F001C111C0E1A1F0A94
:1015840018F40E0E1F1E01C0A1609A9599F7FD0173
:10159400D00108953F934F935F930024112444276F
:1015A400552730E2AA0FBB1F881F991F001C111C6E
:1015B400441F551F0E1A1F0A460B570B28F40E0E14
:1015C4001F1E461F571F01C0A1603A9559F7FD0120
:1015D400BC01D001CA015F914F913F910895E894F5
:1015E400B7FF04C0A095B09511966894F7FD89DF04
:1015F400BEDFFD010EF485DF0895ED91FC91119796
:1016040008950590F491E02D08957A936A93FA93DE
:10161400EA9308955A934A933A932A931A930A930E
:1016240008955D814C813B812A8119810881089547
:00000001FF
