:020000000C945E
:100002005D010C9400000C946F050C9400000C949C
:1000120000000C9400000C94CF030C9400000C948C
:1000220000000C9407040C9400000C9400000C9443
:1000320000000C9400000C9400000C9400000C943E
:1000420000000C9400000C9400000C9400000C942E
:1000520000003134373C32353830333639231027FB
:10006200E80364000A000100001000011000010012
:10007200090053656E686120496E636F7272657420
:10008200610053656E686120436F7272657461002E
:100092004461746120736574616461004C696761D5
:1000A2006E646F2E2E2E0053697374656D6120414C
:1000B200726D61646F0041726D616E646F2073696D
:1000C2007374656D61002020202020202E2E2E00CA
:1000D20044617461206520486F72613A20005F5F5D
:1000E2002F5F5F2F5F5F205F5F3A5F5F20200041DD
:1000F20074697665206F2073697374656D613A0067
:1001020053656E68613A205F205F205F205F202088
:1001120000416C657274613A20496E747275736144
:100122006F00416C657274613A2050726573656E3E
:10013200636100416C657274613A20496E63656E59
:1001420064696F0053757065726171756563696D7D
:10015200656E746F00416C657274613A20496E7607
:100162006173616F004572726F206E6F2053697305
:1001720074656D610045737461646F2044657363D7
:100182006F6E68656369646F0000323233343030F9
:1001920030303030303030303030303030000A00E3
:1001A20040002020202053697374656D6100202077
:1001B20044657361726D61646F00BC022B027661EB
:1001C2006C6F72206C69646F3A2025640D0A00001E
:1001D2000D0A25642F25642F25642025643A2564A1
:1001E2003A25642C25642C0080C001002D4E414E1E
:1001F20000494E460000010002007200100060013A
:1002020074000E00700184000C007E0192000B004D
:100212008A019E000F009501A9001000A401B800F8
:100222000A00B401C8000E00BE01D2001100CC01C8
:10023200E0001100DD01F1001100EE0102011100E8
:10024200FF01130111001002020111002102240119
:100252001100320202011100430235011100540261
:10026200020111006502460111007602020110002E
:10027200870257011100970202011000A8026701CC
:100282001400B80277010400E6028C010F00F002AC
:10029200900101000403A00101000603A2010C0069
:1002A200CC02A4010C00D802B00102001003EA0142
:1002B20001001403EC010000F894EE27ECBBF1E01E
:1002C200FBBFEBBFE5BFF8E1F1BDE1BD8DE0A2E010
:1002D200BB27ED938A95E9F780E094E0A0E6ED93E1
:1002E2000197E9F7E8EFF1E085919591009761F0C8
:1002F200A591B59105901590BF01F00105900D9261
:100302000197E1F7FB01F0CFEFE5EDBFE4E0EEBFCF
:10031200C0E6D1E00C948D0108D018D0859903C0B5
:10032200E6E0EA9333D0F9CFFFCF7BD00E94C2053B
:100332000E9424060E948D040E94DB030E94650530
:100342000E9426050E94B0097894089520FE12C0EA
:10035200E091E402EA939ED0E091E402E03041F4BD
:10036200E8E8F3E10E94FD08E3E0EA930FD0089584
:10037200E89420F821FE05C0E091E402EA930E948D
:10038200BB0422FE02C00E9476050895E091E402B9
:10039200E093E502E881E093E402A091E402A33055
:1003A20011F0A03009F401C033D0689420F8A8817C
:1003B200A53051F0A63041F0A73031F0A93021F03C
:1003C200A43011F0A83049F4689421F8E89422F896
:1003D2000E94B504DAD0E0D00AC0A881A33029F483
:1003E200689421F8D9D0D1D002C0E89421F8A8812C
:1003F200A23049F4E0E6FAEE0E94FD08E1E0E09363
:10040200E402689422F821960895E091E4020895A6
:10041200E091E402A091E502EA1711F00E942F0692
:100422000895D29AE0E1EA930E943C08DB9AE0E068
:10043200EA93EA930E94000808950E940109E98163
:10044200EA930E941908E4EFF1E00E94FD080E947D
:100452000109EAE206C00E940B0931970E940E09C7
:10046200E981EA930E94190822960895E0E00E9429
:100472000E09E0E6F1E009C00E940C08E0E7F1E0B5
:1004820004C00E940C08EEE7F1E0FA93EA930E949E
:100492002E0808950E940C080E940B09309719F447
:1004A200EAE8F1E06CC0E130A0E0FA0719F4E5E90E
:1004B200F1E065C0E230A0E0FA0739F4E4EAF1E0E5
:1004C2000E941309E4EBF1E05AC0E330A0E0FA071E
:1004D20039F4EEEBF1E00E941309ECECF1E04FC0CD
:1004E200E430A0E0FA0759F4EDEDF1E00E941309BF
:1004F200EEEEF1E0FA93EA930E942E0804C0E53092
:10050200A0E0FA0739F4EFEFF1E00E941309E0E10D
:10051200F2E035C0E630A0E0FA0739F4E1E2F2E0B9
:100522000E941309E2E3F2E02AC0E730A0E0FA07F2
:1005320039F4E3E4F2E00E941309E4E5F2E01FC0BB
:10054200E930A0E0FA0739F4E5E6F2E00E94130987
:10055200E6E7F2E014C0E830A0E0FA0739F4E7E891
:10056200F2E00E941309E7E9F2E009C0EA30A0E0F4
:10057200FA0719F4E8EAF2E002C0E8EBF2E0FA93D3
:10058200EA930E942E080C946D08E0E0E093EA02E0
:10059200E1E0E093FF020895E0E0E093EB02E1E0A6
:1005A200E09300030895A091EA02A43010F00C94A5
:1005B2006D08E091EA02F0E0E451FD4FA881A083CA
:1005C200E091EA02EF5FE093EA02E881EA93E091C8
:1005D200EA02EA9332DF0C946D08A091EB02AF308D
:1005E20010F00C946D08E091EB02F0E0E051FD4F49
:1005F200A881A083E091EB02EF5FE093EB02E88138
:10060200EA93E091EB02EA9326DF0E9419093297FE
:1006120021F4A091EB02AF3008F005C0E091EB02AB
:10062200EF5FE093EB020C946D08A091EA02A13017
:1006320068F0E091EA02E150E093EA02EE0FE95F2E
:100642000E940E09EFE5EA930E9419080895A0910D
:10065200EB02A130A0F0E091EB02E150E093EB025B
:100662000E941909E230A0E0FA0709F40895E09126
:10067200EB020E940E09EFE5EA930E941908089521
:100682001A93E091FF02E03021F0A091EA02A43037
:1006920010F4E0E01CC010E0143090F4E12FF0E020
:1006A2000F01E451FD4FA081F001EA51FD4FE081BD
:1006B200EA1721F0DBDE69DFE2E009C01F5FECCF61
:1006C200DBDEE0E0E093FF02E093EA02E1E0199171
:1006D20008950E949B0AE0910003E03021F0A0916E
:1006E200EB02AF3028F4E0E00E94A20A0C94AA08C0
:1006F200C8DEA091EB02AF3011F00C94C503E0917B
:10070200F0020E9421090E942409E091F1020E9454
:100712002109EA0F1E2FE091F3020E9421090E9493
:100722002409E091F4020E942109EA0F0E2FE091C0
:10073200F6020E9421090E942409E091F7020E9418
:100742002109EA0F3E2FE091F9020E9421090E943D
:100752002409E091FA020E942109EA0F2E2FE0916A
:10076200FC020E9421090E942409E091FD020E94DC
:100772002109EA0F5E2F1A930A933A930E941006F8
:100782002A935A930E941A06E0E0E0930003E09352
:10079200EB02E1E00E94A20A0C94AA08EA93FA93FF
:1007A200E0E0F0E0FDBDECBDE1E0E0930103F99192
:1007B200E9911895EEB5E460EEBDE9B7E061E9BFF5
:1007C200E0E0F0E0FBBDEABD0895E881F98166272B
:1007D2007727A0E4B8E380E090E00E94280ADF01D6
:1007E200CB01E8EEF3E060E070E00E945B0A66276E
:1007F20077273197FBBDEABD0C94D108E091010344
:100802000895E881E09301030C946D08AA93BA93CA
:10081200EA93FA93EFB7EA93EDE8E2BF0E9429095F
:100822000E941F0AE0930703F0930803E3B3F0E08A
:10083200E095F095EF70F070A0910703B091080376
:10084200EA2BFB2BE0930703F0930803E0910603E6
:10085200F0E0F595E795E0930603A0910603A83032
:1008620011F00C947004E0E4E09306030E9429095D
:100872003097F9F0E0910503E03011F0E15028C023
:10088200A0910403A150A0930403A93039F40E945B
:100892002909E0930903F0930A031CC0E0910903BC
:1008A200F0910A03A0910703B0910803EA17FB072E
:1008B20021F0EAE0E09304030BC0E0910403E0308E
:1008C20049F40E942909E0930203F0930303E4E14F
:1008D200E0930503E0E0E0930703E0930803E0916F
:1008E2000603E095E5BBE991EFBFF991E991B99172
:1008F200A99118951A930A93E0910203F0910303C8
:100902008F01309729F0E0E0E0930203E0930303C4
:10091200F801099119910895E4B3E067E4BBE5B3E6
:10092200EF67E5BBE3B7E460E3BFE2B7ED68E2BFC0
:10093200E9B7E160E9BF08951A9310E01C3088F42A
:10094200E12FA1E0B0E00E94160AA981BA81EA2350
:10095200FB23309721F0E12F18810C94BF081F5F11
:10096200EDCF18810C94BF08E0E0E0930203E0931E
:10097200030308950E949D0ABDDF8F01309711F491
:100982000C9422051A930A93D7DF3E2F0E942E0958
:1009920024912C3349F4AC81A33019F40E9428032A
:1009A20050C00E9416034DC02332D9F5AC81A3304A
:1009B20059F40E946A03E0930C03A0910C03A13046
:1009C20011F40E9433093DC00E944103E0930B03DE
:1009D200A0910B03A23031F4EC81EA930E94C7018B
:1009E2005CD01EC0A0910B03A130D1F4AC81A43025
:1009F20019F40E94330914C0E4E0EA930E94C7018B
:100A02000E940C08ECECF2E00E941309E8EDF2E01F
:100A1200FA93EA930E942E08E8EEF3E00E94FD08A2
:100A220010C0AC81A33039F40E942E09E491EA93FC
:100A32000E94EE0206C00E942E09E491EA930E94EF
:100A4200D4020E94A40A25960895E5B5EC61E5BD9D
:100A52008F9A08951A93E981FA81309721F48F9839
:100A620018810C94BF088F9AE981FA81662777274B
:100A7200A0E8B0E080E090E00E94280AA0E0B0E0A8
:100A820081EE90E00E945B0AE150F04060407040CD
:100A92001E2F13BD18810C94BF08E4E6F0E0FA9310
:100AA200EA930E94E6030E94FF03E03039F0E0E09F
:100AB200EA930E940204E2ECF1E002C0E0E0F0E01E
:100AC200FA93EA93C7DF0895E7B3E7BBC79AEBB798
:100AD200E064EBBFE5B7EC60E5BF0895EA93EFB7DA
:100AE200689425F8EFBFE9911895E0E0B699E1E046
:100AF200E0930D03E0E0B79BE1E0E0930E03E0E05A
:100B0200B599E1E0E0930F03E0ECF1E0FA93EA93A8
:100B1200E0910F030E943B0984E00E94A8072696F9
:100B2200E0910D03E03041F0E0910F03E03021F05D
:100B3200E0910E03E03009F402C0E7E01CC0E0914E
:100B42000D03E03011F0E7E016C0E0910F03E03052
:100B520021F0E0910E03E03009F402C0E8E00BC09E
:100B6200E0910E03E03011F0E5E005C0E0910F03E3
:100B7200E03021F0E6E0EA930E94C701E89425F80C
:100B82000895E0E0EA93E1E0EA93E0E0EA930E946C
:100B92006F08E1B3E1BB929A089522970E949B0AE3
:100BA200E6E0F0E0FA93EA930E94C5088F01EDB700
:100BB200FEB7FA93EA933F93EDB7FEB7FA93EA933F
:100BC2002F93EDB7FEB7FA93EA935F930E949C08C6
:100BD2005F912F913F91EDB7FEB7FA93EA934F934E
:100BE200FE013996FA93EA93FE013A96FA93EA9352
:100BF2000E9484084F91E52FD801EC93F8012183DC
:100C020032834383EF81D8011496EC93EE81D801AD
:100C12001596EC93F8010E94A20A28960895EA819B
:100C2200EA93EA81EA93EA81EA930E94AC080C947F
:100C3200BF08E981EA93E981EA93E0E0EA930E943E
:100C420090080C94D108E0E0EBB9E8E0EAB9E6E8F4
:100C5200E0BDE0E0E0BDEFE2E9B908950E949D0A3F
:100C62009CDF8F010E9406023E2FE2EDF1E0FA9333
:100C7200EA93F801E2810E943B09F801E1810E94B6
:100C82003B09D801EC910E943B09F801E3810E94E3
:100C92003B09F801E4810E943B09F801E5810E94C9
:100CA2003B09E32F0E943B098CE10E94A8076E9644
:100CB2001A930A930E94C8080E94A40A0C94C308BB
:100CC2005D9BFECFE881ECB90C946D08EA81EA9352
:100CD200F7DFA881B981ED91FD913196FE93EE93F4
:100CE2000C94BF0826970E949B0A10E0AC85BD8534
:100CF200E0E0F0E0ED93FC93EA89FB893196EA8B20
:100D0200FB8B3197E4912E2FE03011F40C94A00765
:100D1200E12FE03039F4253211F411E002C00E94D3
:100D220041090CC1E130A9F4253219F40E944109AC
:100D320004C112E040E000E02D3211F401E0FEC0F7
:100D42002B3211F44BE2FAC0203211F440E2F6C029
:100D520002C0E23039F450E013E0203311F40068AD
:100D6200EDC004C0E33011F00C949F07203310F063
:100D72002A3308F007C0AAE05A9F502DE22FE05311
:100D82005E0FDCC0E22FE33649F40E944A09E8898B
:100D9200F989A481AA930E945009CFC0E33741F494
:100DA2000E944A090E9458090E94D3081E2F0AC0B5
:100DB200E03761F40E944A090E9458090E94DD0846
:100DC2001E2F086002600F7730E035C0E43611F064
:100DD200E93611F4046002C0E53731F4E0E6F0E0F0
:100DE200EE83FF8315E00DC0E83511F4086004C0FE
:100DF200E83711F00C949E07EAE6F0E0EE83FF83F9
:100E020014E002FF14C00E944A090E946209AB85E5
:100E1200AA233AF4EA85FB850E94120AEA87FB8735
:100E22004DE2403011F01F5F01C00B7F04C00E94F1
:100E32004A090E94620900FD11C0151778F407FFE4
:100E420008C002FF04C00B7F242F115001C020E311
:100E520001C020E20E9441095150EFCF312F01FF22
:100E620017C03030A1F003FF06C0EE81FF8125914B
:100E7200EE83FF8305C0AE81BF812D91AE83BF8318
:100E82000E944109503009F051503150EACF4BC015
:100E920020E3EE81FF810E94920AE887F987EE81C2
:100EA200FF813296EE83FF83E885F985AA85BB85AB
:100EB200AE17BF0750F02F5FA885B985EA85FB857D
:100EC200EA1BFB0BEA87FB87EFCF2A3328F003FFED
:100ED20002C0295F01C0295D04FD1AC0213320F43C
:100EE200A885B985119709F409C0531710F000FFBE
:100EF20001C013C020E207FF0BC020E3006102FF24
:100F020007C00B7F4A930E945009503009F051509C
:100F12000E944109503009F051503150A885B985DD
:100F2200129708F0B5CF00FF08C0503031F0515091
:100F3200E0E2EA930E945009F8CF10E0DDCEAC85E2
:100F4200BD850E948E0A0E94A20A64960895FF92AD
:100F5200F82E26971A930A93DE0114960E940E0A1F
:100F62008D01E0E0EC83ED83EE83EF83DE011896E2
:100F72000E940E0A0E948E0AFA93EA931A930A9327
:100F8200E7E6F6E0FA93EA93FE013896FA93EA93DB
:100F9200A9DE198108812896FF900895E881E07101
:100FA20011F0DC9A01C0DC98E881E07211F0DD9A60
:100FB20001C0DD98E881E07411F0DE9A01C0DE988C
:100FC200E881E07811F0DF9A01C0DF988AE08A9523
:100FD200F1F7DA9A89E18A95F1F7DA9889E18A9547
:100FE200F1F77AC0E881EA93D9DFE881E295E883F4
:100FF200E881EA93D3DF86EF8A95F1F76DC00E940C
:101002000B09E05FFC4FE081A981EA0FEA93EADF76
:1010120059804880C5C0E2E00E946A09ECE0EA9388
:10102200E1DFE1E00E946A09E0E04E2E5E2E0895C3
:10103200A881AA3011F0571448F0E0E0EA934394F3
:101042004A92DDDFA881AA3009F446C05394D89AA7
:10105200E881EA93C7DFD8983FC01A93A981BA8181
:10106200ED91A983BA831E2FE03019F01A93E0DFC5
:10107200F5CF188183C0D49AD59AD69AD79AD29AA4
:10108200D09AD19ADA98D898D9987880E881E0589D
:10109200E0931203E881E054E0931303E4E1F0E00B
:1010A2000E94FD080E9470090E9470090E94700946
:1010B200E0E2EA9373DF81E791E00197F1F7E8E27A
:1010C200EA9390DFE4E0EA938DDFE5E8EA938ADFD2
:1010D200E6E0EA9387DF9FDF21960895EA81E370D5
:1010E200EA83E981E03019F0EA81E061EA83E8818C
:1010F200E03019F0EA81E068EA830E947909E7E0CA
:101102000E947F0936C00E947909E0E00E948409AA
:10111200A881B9810E949409AC81BD8117C00E9447
:101122007909E0E0EA930E94E909E8810E94A609B0
:101132000E947F091BC00E947909E4E00E94840991
:10114200AC81BD810E949409A881B981EC930E946F
:10115200C409269608950E947909E4E00E947F0955
:101162000E94A609EA930E94E909E881EA930E9493
:10117200F408EA930E94E9090E94C409239608959B
:10118200E0E0F0E024960895E0E0F0E009C0E881B4
:10119200F981FA93EA93E0E0F0E0FA93EA93F0DF60
:1011A20022960895A991B991EE27FF276D916623A2
:1011B20011F03196FBCF0895AA27BB27E991F99147
:1011C2000590002011F01196FBCFFD010895E881F2
:1011D200E295EF70AE2FAA0FAA0FEA0FEE0FA991B8
:1011E200AF70EA0F0895A991EE27AA5012F0E05FBE
:1011F200FCCFA65FEA0F0895FA93EA930C94020AD1
:10120200E881F0E03197EE0FE95FEA93E1E0EA93DB
:101212000C940008E881F0E00895EA93E1E0EA9393
:101222000C940008FA93EA930E942E08E0E0F5CFAE
:10123200A091EB02BB27E3E0F0E00E94800A089550
:10124200F0E0F0970895AAE0EA02F001AE2F0895C7
:10125200E0910703F09108030895E32FF0E0EC5AC0
:10126200FF4F0895E2E0EA930E944B02E2E0EA9324
:101272000C94C701FF27662777270E94960A0895D4
:101282002A93ED85FE85FA93EA93E989FA8909950D
:101292000895E889F9893497E88BF98B0895ED85EB
:1012A200FE85FA93EA93E989FA8909950895A8894E
:1012B200B98914960E948E0AEE83FF83FA93EA9309
:1012C2000895A889B98914960E948E0AEA87FB8735
:1012D2000895EA930E94F307E3E0F0E08DCFE0E3A4
:1012E200EA930E94CF0781E791E00197F1F7089511
:1012F2000E94B509E0EDEA930C94E909EA930E9491
:10130200E909EA810895EA930E94E9090E94B50970
:10131200E1EDEA930E94E909E1E0EA930E94CE0935
:10132200EA930C94E808EC93E1E0EA930E94CE0978
:10133200EA930E94E808AA81BB81EC93E0E0EA9379
:101342000E94CE09EA930C94E808EA930E94F408FA
:10135200EA930E94E909E981EA930C94F408C4989B
:10136200C398BC9ABB9815C0BB98BC98EE270000E6
:10137200B39B0895B49B089504D0BB9A02D0BC9A43
:10138200E1E069E107C0BB9ABC9A03D0BC98F9DFDF
:10139200BB9861E36A95F1F7089578E0BC98F1DFB4
:1013A200B49BFECFEEDF8894B3990894BC9AF1DF28
:1013B200EE1F7A9599F77991772311F4BB9801C0C2
:1013C200BB9ADFDFBC98E5DFBC9ADBDFBB98D9CFE5
:1013D200E99178E0EE0F10F4BB9801C0BB9AD9DF17
:1013E200BC98CFDFB49BFECFCCDFBC9A7A9591F745
:1013F200BB98C7DFBC98CDDFE1E0B399EE27BC9A7A
:10140200C0CFE991F991309639F086E69EE00197D6
:10141200F1F7A8953197C9F708950024AF0DB01DD3
:101422000895F195E195F0400895EE230E2EFD0109
:1014320021F0EE0FFF1F0A94E1F70895EE0FFF1F50
:10144200EE0FFF1FEE0FFF1FEE0FFF1F08957A9F93
:10145200702D6B9F700DF89F700DE99F700D6A9F44
:10146200602D710DFB9F600D711DE89F600D711D58
:101472008827FA9FF02D610D781FEB9FF00D611DFB
:10148200781FEA9FE02DF10D681F781F0895002450
:10149200112490E1AA0FBB1F001C111C0E1A1F0A77
:1014A20018F40E0E1F1E01C0A1609A9599F7FD0156
:1014B200D00108953F934F935F9300241124442752
:1014C200552730E2AA0FBB1F881F991F001C111C51
:1014D200441F551F0E1A1F0A460B570B28F40E0EF7
:1014E2001F1E461F571F01C0A1603A9559F7FD0103
:1014F200BC01D001CA015F914F913F910895E894D8
:10150200B7FF04C0A095B09511966894F7FD89DFE6
:10151200BEDFFD010EF485DF0895ED91FC91119778
:1015220008950590F491E02D08957A936A93FA93C1
:10153200EA9308955A934A933A932A931A930A93F1
:1015420008955D814C813B812A811981088108952A
:00000001FF
