:100000000C94F9000C9400000C9400000C94000077
:100010000C9400000C9400000C9471020C940000ED
:100020000C9400000C94A8020C9400000C940000A6
:100030000C9400000C9400000C9400000C94000040
:100040000C9400000C9400000C9400000C94000030
:100050000C9400003134373C323538303336392394
:10006000050053656E686120496E636F7272657436
:10007000610053656E686120436F72726574610040
:100080004C6967616E646F2E2E2E00536973746520
:100090006D612041726D61646F0041726D616E64CB
:1000A0006F2053697374656D6100417469766520D2
:1000B0006F2073697374656D613A0053656E686192
:1000C0003A205F205F205F205F202000416C657236
:1000D00074613A20496E74727573616F00416C658A
:1000E0007274613A2050726573656E636100416C91
:1000F000657274613A20496E63656E64696F00537E
:10010000757065726171756563696D656E746F0098
:100110004572726F206E6F2053697374656D610054
:1001200045737461646F20446573636F6E686563C3
:1001300069646F00323233340A00400020202020EE
:1001400053697374656D6100202044657361726D3D
:1001500061646F008A02260280C001000200600014
:100160001000600162000E00700172000B007E0141
:1001700080000F0089018B00100098019A00040094
:10018000A80187001100AC01AA001100BD01BB004D
:100190001100CE01CC001100DF01BB001100F00105
:1001A000DD0011000102BB0011001202EE0011007F
:1001B0002302BB0011003402FF0011004502BB0006
:1001C0001000560210011400660220010400930280
:1001D000340101009E0238010100A0023A010C0026
:1001E0007A023C010C00860248010200A602580176
:1001F0000000F894EE27ECBBF1E0FBBFEBBFE5BFDE
:10020000F8E1F1BDE1BD8DE0A2E0BB27ED938A9559
:10021000E9F780E094E0A0E6ED930197E9F7EAE5DD
:10022000F1E085919591009761F0A591B5910590C8
:100230001590BF01F00105900D920197E1F7FB01C8
:10024000F0CFEFE5EDBFE4E0EEBFC0E6D1E00C9407
:1002500029010DD017D0829903C0E5E0EA932FD091
:10026000839903C0E6E0EA932AD0F4CFFFCF49D0C8
:100270000E9424030E947D020E94D8030E949B03D7
:100280007894089520FE11C0E0919202EA9365D01F
:10029000E0919202E03039F4E8E8F3E10E949E0434
:1002A0000E94A2040895E89420F821FE05C0E09180
:1002B0009202EA930E944A030E94DB030895E881B8
:1002C000E0939202689420F8A881A43041F0A53010
:1002D00031F0A63021F0A83011F0A33021F4689459
:1002E00021F8A0D002C0E89421F8A881A23039F406
:1002F000E0EDF7E00E949E04E1E0E09392020C94AE
:100300009C04D29AE0E1EA930E946F04DB9AE0E059
:10031000EA93EA930E94330408950E94AA04E981B3
:10032000EA930E944B04E4EFF1E00E949E040E94D5
:10033000AA04EAE2EA930E944B040C943E040E9451
:10034000B304E0E6F1E004C00E944004E0E7F1E01D
:10035000FA93EA930E94600408950E944004E881A1
:10036000F0E0309719F4EEE7F1E056C0E130A0E09C
:10037000FA0719F4E9E8F1E04FC0E230A0E0FA072B
:1003800039F4E8E9F1E00E94B804E8EAF1E044C099
:10039000E330A0E0FA0759F4ECEAF1E00E94B80477
:1003A000EDEBF1E0FA93EA930E94600404C0E430BC
:1003B000A0E0FA0739F4EEECF1E00E94B804EFEDAA
:1003C000F1E02AC0E530A0E0FA0739F4E0EFF1E00F
:1003D0000E94B804E1E0F2E01FC0E630A0E0FA07B6
:1003E00039F4E2E1F2E00E94B804E3E2F2E014C082
:1003F000E830A0E0FA0739F4E4E3F2E00E94B80440
:10040000E5E4F2E009C0E930A0E0FA0719F4E6E516
:10041000F2E002C0E6E6F2E0FA93EA930E9460049A
:100420000C949C04E0E0E0939702E1E0E0939C02EE
:100430000895A0919702A43010F00C949C04E091D0
:100440009702F0E0E856FD4FA881A083E091970263
:10045000EF5FE0939702E881EA93E0919702EA93D5
:100460005CDF0C949C04A0919702A13080F0E09195
:100470009702E150E0939702EE0FE95FEA93E1E023
:10048000EA930E943304EFE5EA930E944B04089537
:100490001A93E0919C02E03021F0A0919702A430E1
:1004A00010F4E0E01CC010E0143090F4E12FF0E014
:1004B0000F01E856FD4FA081F001ED56FD4FE081A0
:1004C000EA1721F03CDFAEDFE2E009C01F5FECCFAE
:1004D0003BDFE0E0E0939C02E0939702E1E01991BA
:1004E0000895EA93FA93E0E0F0E0FDBDECBDE1E0B1
:1004F000E0939D02F991E9911895E5E0EEBDE9B729
:10050000E061E9BFE0E0F0E0FBBDEABD0895E8810D
:10051000F98166277727A0E4B8E380E090E00E94A5
:10052000F104DF01CB01E8EEF3E060E070E00E944F
:100530001105662777273197FBBDEABD0C943E0471
:10054000E0919D020895E881E0939D020C949C0443
:10055000AA93BA93EA93FA93EFB7EA93EDE8E2BF6E
:100560000E94BC040E94E804E093A102F093A2025E
:10057000E3B3F0E0E095F095EF70F070A091A10288
:10058000B091A202EA2BFB2BE093A102F093A2020E
:10059000E091A002F0E0F595E795E093A002A0912C
:1005A000A002A830D1F5E0E4E093A0020E94BC04D0
:1005B0003097F9F0E0919F02E03011F0E15026C051
:1005C000A0919E02A150A0939E02A93039F40E94EE
:1005D000BC04E093A302F093A4021AC0E091A3022A
:1005E000F091A402A091A102B091A202EA17FB0728
:1005F00021F0EAE0E0939E0209C0E0919E02E03023
:1006000039F44090A1025090A202E4E1E0939F02ED
:10061000E0E0E093A102E093A202E091A002E09565
:10062000E5BBE991EFBFF991E991B991A9911895CD
:100630001A930A93F2018F01309711F04424552444
:10064000F801099119910895E4B3E067E4BBE5B3BB
:10065000EF67E5BBE3B7E460E3BFE2B7ED68E2BF95
:10066000E9B7E160E9BF08951A9310E01C3080F407
:10067000E12FA1E0B0E00E94DF04A981BA81EA2362
:10068000FB23309719F0E12F0C946C041F5FEECF21
:100690000C946C040E943605CBDF8F01309711F467
:1006A0000C9497031A930A93DFDF3E2F0E94C10434
:1006B00024912C3319F40E94330239C0233289F576
:1006C0000E944802E093A502E8EEF3E00E949E0437
:1006D000A091A502A23031F4EC81EA930E945F015F
:1006E00050D01EC0A091A502A130D1F4AC81A3309E
:1006F00019F40E94A20414C0E3E0EA930E945F018F
:100700000E944004EAE7F2E00E94B804E6E8F2E062
:10071000FA93EA930E946004E8EEF3E00E949E04DC
:1007200006C00E94C104E491EA930E9419020E944B
:100730003B0525960895ECE1E5BDE0E8E1BB0895B1
:100740001A93E981FA81309719F48F980C946C040C
:100750008F9AE981FA8166277727A0E8B0E080E0E8
:1007600090E00E94F104A0E0B0E081EE90E00E94F1
:100770001105E150F040604070401E2F13BD0C94F5
:100780006C04E4E1F0E0FA93EA930E9487020E948D
:10079000A002E03039F0E0E0EA930E94A302E2EC2C
:1007A000F1E002C0E0E0F0E0FA93EA93C9DF0895D7
:1007B000E0E0E7BB08950E943605E0E0B099E1E093
:1007C0001E2FE0E0B199E1E00E2FE0E0B299E1E008
:1007D0003E2F103011F0E6E00EC0003011F0303046
:1007E00009F402C0E7E007C0003011F0E5E003C003
:1007F000303021F0E4E0EA930E945F010E943B0563
:1008000024960895E881E07111F0DC9A01C0DC982B
:10081000E881E07211F0DD9A01C0DD98E881E074B2
:1008200011F0DE9A01C0DE98E881E07811F0DF9ADD
:1008300001C0DF988AE08A95F1F7DA9A89E18A9512
:10084000F1F7DA9889E18A95F1F776C0E881EA93C1
:10085000D9DFE881E295E883E881EA93D3DF86EF88
:100860008A95F1F769C0E881F0E0EA55FD4FE08133
:10087000A981EA0FEA93EADF7980688022960895D9
:10088000E2E084D0ECE0EA93E1DFE1E07FD0E0E079
:100890006E2E7E2E0895A881AA3011F0791448F0AA
:1008A000E0E0EA9363946A92DEDFA881AA3009F45B
:1008B00043C07394D89AE881EA93C8DFD8983CC0C3
:1008C0001A93A981BA81ED91A983BA831E2FE030D2
:1008D00019F01A93E0DFF5CF188123960895D49A82
:1008E000D59AD69AD79AD29AD09AD19ADA98D89895
:1008F000D9989880E881E058E093A802E881E05414
:10090000E093A902E4E1F0E019D045D044D043D00F
:10091000E0E2EA9377DF81E791E00197F1F7E8E21F
:10092000EA9394DFE4E0EA9391DFE5E8EA938EDF6F
:10093000E6E0EA938BDFA4DF21960895FA93EA9329
:100940000C94D304E2E0EA930E94AD01E2E0EA9362
:100950000C945F01E881F0E03197EE0FE95FEA93D4
:10096000E1E0EA9380CFE0E0EA93E1E0EA937BCF35
:10097000FA93EA93A5DFF7CFE091A102F091A202EA
:100980000895E32FF0E0EC5AFF4F0895EA935EDFFD
:10099000E3E0F0E0D3CFE0E3EA9334DF81E791E0F6
:1009A0000197F1F70895E991F991309639F086E6CB
:1009B0009EE00197F1F7A8953197C9F70895EE23C6
:1009C0000E2EFD0121F0EE0FFF1F0A94E1F70895AE
:1009D000EE0FFF1FEE0FFF1FEE0FFF1FEE0FFF1FAB
:1009E00008957A9F702D6B9F700DF89F700DE99F91
:1009F000700D6A9F602D710DFB9F600D711DE89F4A
:100A0000600D711D8827FA9FF02D610D781FEB9FF7
:100A1000F00D611D781FEA9FE02DF10D681F781F12
:100A200008953F934F935F93002411244427552743
:100A300030E2AA0FBB1F881F991F001C111C441F06
:100A4000551F0E1A1F0A460B570B28F40E0E1F1EB9
:100A5000461F571F01C0A1603A9559F7FD01BC011F
:100A6000D001CA015F914F913F9108953A932A9323
:100A70001A930A9308953B812A8119810881089568
:00000001FF
