:0A0000000C9463010C9400000C94B2
:10000A006C050C9400000C9400000C9400000C94F5
:10001A00DA030C9400000C9400000C9412040C9463
:10002A0000000C9400000C9400000C9400000C9446
:10003A0000000C9400000C9400000C9400000C9436
:10004A0000000C9400000C9400003134373C323527
:10005A003830333639231027E80364000A000100D8
:10006A000010000110000100090074696D657374C5
:10007A00616D702C65737461646F20646F2073699D
:10008A007374656D610D0A0053656E686120496E6F
:10009A00636F72726574610053656E686120436FA5
:1000AA00727265746100446174612073657461647D
:1000BA0061004C6967616E646F2E2E2E005369735E
:1000CA0074656D612041726D61646F0041726D618A
:1000DA006E646F2073697374656D6100202020203F
:1000EA0020202E2E2E0044617461206520486F72F4
:1000FA00613A20005F5F2F5F5F2F5F5F205F5F3A8B
:10010A005F5F2020004174697665206F20736973F0
:10011A0074656D613A0053656E68613A205F205FCD
:10012A00205F205F202000416C657274613A20498B
:10013A006E74727573616F00416C657274613A20F6
:10014A0050726573656E636100416C657274613AE1
:10015A0020496E63656E64696F00537570657261DC
:10016A0071756563696D656E746F00416C65727453
:10017A00613A20496E766173616F004572726F2031
:10018A006E6F2053697374656D61004573746164A1
:10019A006F20446573636F6E68656369646F0000FE
:1001AA00323233343030303030303030303030303A
:1001BA00303030000A004000202020205369737438
:1001CA00656D6100202044657361726D61646F0022
:1001DA00BC022B0225642F25642F25642025643A4E
:1001EA0025643A25642C25642C0D0A0080C0010080
:1001FA002D4E414E00494E46000001000200720099
:10020A001000600192000E007001A2000C007E0135
:10021A00B0000B008A01BC000F009501C700100056
:10022A00A401D6000A00B401E6000E00BE01F000E7
:10023A001100CC01FE001100DD010F011100EE01D9
:10024A0020011100FF0131011100100220011100EB
:10025A00210242011100320220011100430253011E
:10026A001100540220011100650264011100760296
:10027A002001100087027501110097022001100069
:10028A00A80285011400B80295010400E602AA0139
:10029A000F00F002AE0101000203BE0101000403D7
:1002AA00C0010C00CC02C2010C00D802CE0102002F
:1002BA000D03F60101001103F8010000F894EE277E
:1002CA00ECBBF1E0FBBFEBBFE5BFF8E1F1BDE1BD7F
:1002DA008DE0A2E0BB27ED938A95E9F780E094E0F0
:1002EA00A0E6ED930197E9F7E4E0F2E085919591B4
:1002FA00009761F0A591B59105901590BF01F001A5
:10030A0005900D920197E1F7FB01F0CFEFE5EDBF04
:10031A00E4E0EEBFC0E6D1E00C9493010DD01DD00D
:10032A00859903C0E6E0EA9334D0839903C0E7E0F5
:10033A00EA932FD0F4CFFFCF7BD00E9473050E949F
:10034A00D5050E948E040E94E6030E9462050E945F
:10035A0023050E9464097894089520FE12C0E09152
:10036A00E402EA939ED0E091E402E03041F4E8E846
:10037A00F3E10E94AE08E3E0EA930BD00895E89413
:10038A0020F821FE05C0E091E402EA930E94B60437
:10039A000895E091E402E093E502E881E093E40243
:1003AA00A091E402A33011F0A03009F401C037D0C3
:1003BA00689420F8A881A53051F0A63041F0A73002
:1003CA0031F0A93021F0A43011F0A83029F4689452
:1003DA0021F8E2D0E8D00AC0A881A33029F46894B1
:1003EA0021F8E1D0D9D002C0E89421F8A881A2303E
:1003FA0089F4E0EDF7E00E94AE08E1E0E093E40260
:10040A00E4E7F0E0FA93EA9380E00E945907229623
:10041A00689422F821960895E091E4020895E09103
:10042A00E402A091E502EA1711F00E94E00508959E
:10043A00D29AE0E1EA930E94ED07DB9AE0E0EA93C0
:10044A00EA930E94B10708950E94B208E981EA93EB
:10045A000E94CA07E4EFF1E00E94AE080E94B208C7
:10046A00EAE206C00E94BC0831970E94BF08E981EF
:10047A00EA930E94CA0722960895E0E00E94BF0804
:10048A00E0E6F1E009C00E94BD07E0E7F1E004C040
:10049A000E94BD07EEE7F1E0FA93EA930E94DF07B4
:1004AA0008950E94BD070E94BC08309719F4EAE833
:1004BA00F1E06CC0E130A0E0FA0719F4E5E9F1E0F7
:1004CA0065C0E230A0E0FA0739F4E4EAF1E00E94FC
:1004DA00C408E4EBF1E05AC0E330A0E0FA0739F4CB
:1004EA00EEEBF1E00E94C408ECECF1E04FC0E4301E
:1004FA00A0E0FA0759F4EDEDF1E00E94C408EEEE2F
:10050A00F1E0FA93EA930E94DF0704C0E530A0E025
:10051A00FA0739F4EFEFF1E00E94C408E0E1F2E0F3
:10052A0035C0E630A0E0FA0739F4E1E2F2E00E94D1
:10053A00C408E2E3F2E02AC0E730A0E0FA0739F49F
:10054A00E3E4F2E00E94C408E4E5F2E01FC0E93007
:10055A00A0E0FA0739F4E5E6F2E00E94C408E6E70B
:10056A00F2E014C0E830A0E0FA0739F4E7E8F2E074
:10057A000E94C408E7E9F2E009C0EA30A0E0FA07FD
:10058A0019F4E8EAF2E002C0E8EBF2E0FA93EA933F
:10059A000E94DF070C941E08E0E0E093EA02E1E023
:1005AA00E093FF020895E0E0E093EB02E1E0E093DC
:1005BA0000030895A091EA02A43010F00C941E08DA
:1005CA00E091EA02F0E0E451FD4FA881A083E091B6
:1005DA00EA02EF5FE093EA02E881EA93E091EA0235
:1005EA00EA9332DF0C941E08A091EB02AF3010F0B0
:1005FA000C941E08E091EB02F0E0E051FD4FA88157
:10060A00A083E091EB02EF5FE093EB02E881EA93CB
:10061A00E091EB02EA9326DF0E94CA08329721F49E
:10062A00A091EB02AF3008F005C0E091EB02EF5F5A
:10063A00E093EB020C941E08A091EA02A13068F044
:10064A00E091EA02E150E093EA02EE0FE95F0E94CC
:10065A00BF08EFE5EA930E94CA070895A091EB024A
:10066A00A130A0F0E091EB02E150E093EB020E948E
:10067A00CA08E230A0E0FA0709F40895E091EB0213
:10068A000E94BF08EFE5EA930E94CA0708951A93E9
:10069A00E091FF02E03021F0A091EA02A43010F4C8
:1006AA00E0E01CC010E0143090F4E12FF0E00F01FC
:1006BA00E451FD4FA081F001EA51FD4FE081EA17B4
:1006CA0021F0DBDE69DFE2E009C01F5FECCFDBDE91
:1006DA00E0E0E093FF02E093EA02E1E01991089575
:1006EA000E944F0AE0910003E03021F0A091EB0252
:1006FA00AF3028F4E0E00E94560A0C945B08C8DE8A
:10070A00A091EB02AF3011F00C94D003E091F0020B
:10071A000E94D2080E94D508E091F1020E94D208F4
:10072A00EA0F1E2FE091F3020E94D2080E94D50818
:10073A00E091F4020E94D208EA0F0E2FE091F6022D
:10074A000E94D2080E94D508E091F7020E94D208BE
:10075A00EA0F3E2FE091F9020E94D2080E94D508C2
:10076A00E091FA020E94D208EA0F2E2FE091FC02D1
:10077A000E94D2080E94D508E091FD020E94D20888
:10078A00EA0F5E2F1A930A933A930E94C1052A939D
:10079A005A930E94CB05E0E0E0930003E093EB025A
:1007AA00E1E00E94560A0C945B08EA93FA93E0E0AF
:1007BA00F0E0FDBDECBDE1E0E0930103F991E991C0
:1007CA001895EEB5E460EEBDE9B7E061E9BFE0E097
:1007DA00F0E0FBBDEABD0895E881F9816627772735
:1007EA00A0E4B8E380E090E00E94DC09DF01CB01DD
:1007FA00E8EEF3E060E070E00E940F0A66277727D0
:10080A003197FBBDEABD0C948208E091010308957B
:10081A00E881E09301030C941E08AA93BA93EA9321
:10082A00FA93EFB7EA93EDE8E2BF0E94DA080E9472
:10083A00D309E0930503F0930603E3B3F0E0E095F0
:10084A00F095EF70F070A0910503B0910603EA2BC2
:10085A00FB2BE0930503F0930603E0910403F0E019
:10086A00F595E795E0930403A0910403A830D1F528
:10087A00E0E4E09304030E94DA083097F9F0E0918B
:10088A000303E03011F0E15026C0A0910203A15009
:10089A00A0930203A93039F40E94DA08E09307030F
:1008AA00F09308031AC0E0910703F0910803A0919E
:1008BA000503B0910603EA17FB0721F0EAE0E0938B
:1008CA00020309C0E0910203E03039F440900503C5
:1008DA0050900603E4E1E0930303E0E0E0930503AC
:1008EA00E0930603E0910403E095E5BBE991EFBFCD
:1008FA00F991E991B991A99118951A930A93F2017C
:10090A008F01309711F044245524F8010991199167
:10091A000895E4B3E067E4BBE5B3EF67E5BBE3B78B
:10092A00E460E3BFE2B7ED68E2BFE9B7E160E9BFBF
:10093A0008951A9310E01C3088F4E12FA1E0B0E08A
:10094A000E94CA09A981BA81EA23FB23309721F0C0
:10095A00E12F18810C9470081F5FEDCF18810C9459
:10096A0070080E94510AC9DF8F01309711F40C9464
:10097A001F051A930A93DDDF3E2F0E94DF08249198
:10098A002C3349F4AC81A33019F40E94330352C0CA
:10099A000E9421034FC02332E9F5AC81A33069F4E8
:1009AA000E947503E0930A030E94E408A0910A03D7
:1009BA00A13011F40E94E7083DC00E944C03E09365
:1009CA0009030E94E408A0910903A23031F4EC81E2
:1009DA00EA930E94CE015AD01CC0A0910903A1300B
:1009EA00C1F4AC81A43019F40E94E70812C0E4E013
:1009FA00EA930E94CE010E94BD07ECECF2E00E944D
:100A0A00C408E8EDF2E0FA93EA930E94DF070E9435
:100A1A00E40810C0AC81A33039F40E94DF08E491E5
:100A2A00EA930E94F90206C00E94DF08E491EA9361
:100A3A000E94DF020E94580A25960895E5B5EC61E6
:100A4A00E5BD8F9A08951A93E981FA81309721F4C6
:100A5A008F9818810C9470088F9AE981FA81662719
:100A6A007727A0E8B0E080E090E00E94DC09A0E0EF
:100A7A00B0E081EE90E00E940F0AE150F040604041
:100A8A0070401E2F13BD18810C947008E4E6F0E044
:100A9A00FA93EA930E94F1030E940A04E03039F0C3
:100AAA00E0E0EA930E940D04E2ECF1E002C0E0E02B
:100ABA00F0E0FA93EA93C7DF0895E7B3E06CE7BB87
:100ACA00EBB7E064EBBFE5B7EC60E5BF0895EA93E6
:100ADA00EFB7689425F8EFBFE9911895E0E0EA933B
:100AEA00E1E0EA93E0E0EA930E942008E1B3E1BB87
:100AFA00929A089522970E944F0AE6E0F0E0FA934C
:100B0A00EA930E9476088F01EDB7FEB7FA93EA934B
:100B1A003F93EDB7FEB7FA93EA932F93EDB7FEB77B
:100B2A00FA93EA935F930E944D085F912F913F9148
:100B3A00EDB7FEB7FA93EA934F93FE013996FA930B
:100B4A00EA93FE013A96FA93EA930E9435084F9186
:100B5A00E52FD801EC93F801218332834383EF8197
:100B6A00D8011496EC93EE81D8011596EC93F8010E
:100B7A000E94560A28960895EA81EA93EA81EA933E
:100B8A00EA81EA930E945D080C947008E981EA936D
:100B9A00E981EA93E0E0EA930E9441080C94820812
:100BAA00E0E0EBB9E8E0EAB9E6E8E0BDE0E0E0BDA4
:100BBA00EFE2E9B908950E94510A9CDF8F010E9471
:100BCA0011023E2FEEEDF1E0FA93EA93F801E28189
:100BDA000E94EF08F801E1810E94EF08D801EC9128
:100BEA000E94EF08F801E3810E94EF08F801E4810E
:100BFA000E94EF08F801E5810E94EF08E32F0E94A6
:100C0A00EF088CE10E9459076E961A930A930E9484
:100C1A0079080E94580A0C9474085D9BFECFE881FB
:100C2A00ECB90C941E08EA81EA93F7DFA881B9812E
:100C3A00ED91FD913196FE93EE930C9470082697F0
:100C4A000E944F0A10E0AC85BD85E0E0F0E0ED932C
:100C5A00FC93EA89FB893196EA8BFB8B3197E49105
:100C6A002E2FE03011F40C945107E12FE03039F4C3
:100C7A00253211F411E002C00E94F5080CC1E130DE
:100C8A00A9F4253219F40E94F50804C112E040E0E3
:100C9A0000E02D3211F401E0FEC02B3211F44BE2D8
:100CAA00FAC0203211F440E2F6C002C0E23039F450
:100CBA0050E013E0203311F40068EDC004C0E330C3
:100CCA0011F00C945007203310F02A3308F007C0B3
:100CDA00AAE05A9F502DE22FE0535E0FDCC0E22FAC
:100CEA00E33649F40E94FE08E889F989A481AA93A7
:100CFA000E940409CFC0E33741F40E94FE080E9413
:100D0A000C090E9484081E2F0AC0E03761F40E9471
:100D1A00FE080E940C090E948E081E2F08600260BD
:100D2A000F7730E035C0E43611F0E93611F404608B
:100D3A0002C0E53731F4E0E6F0E0EE83FF8315E028
:100D4A000DC0E83511F4086004C0E83711F00C94BE
:100D5A004F07EAE6F0E0EE83FF8314E002FF14C0D7
:100D6A000E94FE080E941609AB85AA233AF4EA8576
:100D7A00FB850E94C609EA87FB874DE2403011F0E5
:100D8A001F5F01C00B7F04C00E94FE080E94160963
:100D9A0000FD11C0151778F407FF08C002FF04C050
:100DAA000B7F242F115001C020E301C020E20E94D2
:100DBA00F5085150EFCF312F01FF17C03030A1F0A5
:100DCA0003FF06C0EE81FF812591EE83FF8305C0F4
:100DDA00AE81BF812D91AE83BF830E94F50850304A
:100DEA0009F051503150EACF4BC020E3EE81FF8128
:100DFA000E94460AE887F987EE81FF813296EE83E0
:100E0A00FF83E885F985AA85BB85AE17BF0750F031
:100E1A002F5FA885B985EA85FB85EA1BFB0BEA8764
:100E2A00FB87EFCF2A3328F003FF02C0295F01C0F6
:100E3A00295D04FD1AC0213320F4A885B9851197CC
:100E4A0009F409C0531710F000FF01C013C020E2D3
:100E5A0007FF0BC020E3006102FF07C00B7F4A9324
:100E6A000E940409503009F051500E94F508503090
:100E7A0009F051503150A885B985129708F0B5CFBD
:100E8A0000FF08C0503031F05150E0E2EA930E946E
:100E9A000409F8CF10E0DDCEAC85BD850E94420A78
:100EAA000E94560A64960895FF92F82E26971A937E
:100EBA000A93DE0114960E94C2098D01E0E0EC83D8
:100ECA00ED83EE83EF83DE0118960E94C2090E9429
:100EDA00420AFA93EA931A930A93E8E1F6E0FA933C
:100EEA00EA93FE013896FA93EA93A9DE19810881FA
:100EFA002896FF900895E881E07111F0DC9A01C00C
:100F0A00DC98E881E07211F0DD9A01C0DD98E88191
:100F1A00E07411F0DE9A01C0DE98E881E07811F001
:100F2A00DF9A01C0DF988AE08A95F1F7DA9A89E1B7
:100F3A008A95F1F7DA9889E18A95F1F77AC0E8811A
:100F4A00EA93D9DFE881E295E883E881EA93D3DF7F
:100F5A0086EF8A95F1F76DC00E94BC08E35FFC4FEB
:100F6A00E081A981EA0FEA93EADF79806880C5C047
:100F7A00E2E00E941E09ECE0EA93E1DFE1E00E9470
:100F8A001E09E0E06E2E7E2E0895A881AA3011F087
:100F9A00791448F0E0E0EA9363946A92DDDFA8816D
:100FAA00AA3009F446C07394D89AE881EA93C7DF55
:100FBA00D8983FC01A93A981BA81ED91A983BA83BF
:100FCA001E2FE03019F01A93E0DFF5CF188183C0A5
:100FDA00D49AD59AD69AD79AD29AD09AD19ADA9896
:100FEA00D898D9989880E881E058E0930F03E8816F
:100FFA00E054E0931003E4E1F0E00E94AE080E949E
:10100A0024090E9424090E942409E0E2EA9373DF7A
:10101A0081E791E00197F1F7E8E2EA9390DFE4E0F3
:10102A00EA938DDFE5E8EA938ADFE6E0EA9387DF71
:10103A009FDF21960895EA81E370EA83E981E0302F
:10104A0019F0EA81E061EA83E881E03019F0EA8187
:10105A00E068EA830E942D09E7E00E94330936C05E
:10106A000E942D09E0E00E943809A881B9810E94F6
:10107A004809AC81BD8117C00E942D09E0E0EA93BE
:10108A000E949D09E8810E945A090E9433091BC0E7
:10109A000E942D09E4E00E943809AC81BD810E94BA
:1010AA004809A881B981EC930E9478092696089587
:1010BA000E942D09E4E00E9433090E945A09EA932A
:1010CA000E949D09E881EA930E94A508EA930E947A
:1010DA009D090E94780923960895E0E0F0E024969D
:1010EA000895E0E0F0E009C0E881F981FA93EA9313
:1010FA00E0E0F0E0FA93EA93F0DF22960895A991EE
:10110A00B991EE27FF276D91662311F03196FBCF37
:10111A000895AA27BB27E991F9910590002011F0BB
:10112A001196FBCFFD010895E881E295EF70AE2F8D
:10113A00AA0FAA0FEA0FEE0FA991AF70EA0F08954E
:10114A00A991EE27AA5012F0E05FFCCFA65FEA0F42
:10115A000895FA93EA930C94B609E881F0E031977E
:10116A00EE0FE95FEA93E1E0EA930C94B107E881B4
:10117A00F0E00895EA93E1E0EA930C94B107FA9358
:10118A00EA930E94DF07E0E0F5CFA091EB02BB27CC
:10119A00E3E0F0E00E94340A0895F0E0F097089541
:1011AA00AAE0EA02F001AE2F0895E0910503F0915A
:1011BA0006030895E32FF0E0EC5AFF4F0895E8EE96
:1011CA00F3E0C7CFE2E0EA930E945602E2E0EA9334
:1011DA000C94CE01FF27662777270E944A0A0895B2
:1011EA002A93ED85FE85FA93EA93E989FA890995A6
:1011FA000895E889F9893497E88BF98B0895ED8584
:10120A00FE85FA93EA93E989FA8909950895A889E6
:10121A00B98914960E94420AEE83FF83FA93EA93ED
:10122A000895A889B98914960E94420AEA87FB8719
:10123A000895EA930E94A407E3E0F0E08ACFE0E38E
:10124A00EA930E94800781E791E00197F1F70895F8
:10125A000E946909E0EDEA930C949D09EA930E94C1
:10126A009D09EA810895EA930E949D090E946909ED
:10127A00E1EDEA930E949D09E1E0EA930E94820966
:10128A00EA930C949908EC93E1E0EA930E948209AC
:10129A00EA930E949908AA81BB81EC93E0E0EA9361
:1012AA000E948209EA930C949908EA930E94A5087D
:1012BA00EA930E949D09E981EA930C94A508C498CF
:1012CA00C398BC9ABB9815C0BB98BC98EE2700007F
:1012DA00B39B0895B49B089504D0BB9A02D0BC9ADC
:1012EA00E1E069E107C0BB9ABC9A03D0BC98F9DF78
:1012FA00BB9861E36A95F1F7089578E0BC98F1DF4D
:10130A00B49BFECFEEDF8894B3990894BC9AF1DFC0
:10131A00EE1F7A9599F77991772311F4BB9801C05A
:10132A00BB9ADFDFBC98E5DFBC9ADBDFBB98D9CF7D
:10133A00E99178E0EE0F10F4BB9801C0BB9AD9DFAF
:10134A00BC98CFDFB49BFECFCCDFBC9A7A9591F7DD
:10135A00BB98C7DFBC98CDDFE1E0B399EE27BC9A12
:10136A00C0CFE991F991309639F086E69EE001976F
:10137A00F1F7A8953197C9F708950024AF0DB01D6C
:10138A000895F195E195F0400895EE230E2EFD01A2
:10139A0021F0EE0FFF1F0A94E1F70895EE0FFF1FE9
:1013AA00EE0FFF1FEE0FFF1FEE0FFF1F08957A9F2C
:1013BA00702D6B9F700DF89F700DE99F700D6A9FDD
:1013CA00602D710DFB9F600D711DE89F600D711DF1
:1013DA008827FA9FF02D610D781FEB9FF00D611D94
:1013EA00781FEA9FE02DF10D681F781F08950024E9
:1013FA00112490E1AA0FBB1F001C111C0E1A1F0A10
:10140A0018F40E0E1F1E01C0A1609A9599F7FD01EE
:10141A00D00108953F934F935F93002411244427EA
:10142A00552730E2AA0FBB1F881F991F001C111CE9
:10143A00441F551F0E1A1F0A460B570B28F40E0E8F
:10144A001F1E461F571F01C0A1603A9559F7FD019B
:10145A00BC01D001CA015F914F913F910895E89470
:10146A00B7FF04C0A095B09511966894F7FD89DF7F
:10147A00BEDFFD010EF485DF0895ED91FC91119711
:10148A0008950590F491E02D08957A936A93FA935A
:10149A00EA9308955A934A933A932A931A930A938A
:1014AA0008955D814C813B812A81198108810895C3
:00000001FF
